{
  "_format": "hh-sol-artifact-1",
  "contractName": "ParkingStore",
  "sourceName": "contracts/systems/core/ParkingStore.sol",
  "abi": [
    {
      "inputs": [],
      "stateMutability": "nonpayable",
      "type": "constructor"
    },
    {
      "anonymous": false,
      "inputs": [
        {
          "indexed": false,
          "internalType": "address",
          "name": "previousAdmin",
          "type": "address"
        },
        {
          "indexed": false,
          "internalType": "address",
          "name": "newAdmin",
          "type": "address"
        }
      ],
      "name": "AdminChanged",
      "type": "event"
    },
    {
      "anonymous": false,
      "inputs": [
        {
          "indexed": true,
          "internalType": "address",
          "name": "beacon",
          "type": "address"
        }
      ],
      "name": "BeaconUpgraded",
      "type": "event"
    },
    {
      "anonymous": false,
      "inputs": [
        {
          "indexed": true,
          "internalType": "uint256",
          "name": "tokenId",
          "type": "uint256"
        },
        {
          "indexed": true,
          "internalType": "uint256",
          "name": "electric",
          "type": "uint256"
        }
      ],
      "name": "ElectricChange",
      "type": "event"
    },
    {
      "anonymous": false,
      "inputs": [
        {
          "indexed": false,
          "internalType": "uint8",
          "name": "version",
          "type": "uint8"
        }
      ],
      "name": "Initialized",
      "type": "event"
    },
    {
      "anonymous": false,
      "inputs": [
        {
          "indexed": true,
          "internalType": "address",
          "name": "to",
          "type": "address"
        },
        {
          "indexed": true,
          "internalType": "uint256",
          "name": "tokenId",
          "type": "uint256"
        },
        {
          "indexed": false,
          "internalType": "address",
          "name": "account",
          "type": "address"
        }
      ],
      "name": "ParkingMint",
      "type": "event"
    },
    {
      "anonymous": false,
      "inputs": [
        {
          "indexed": true,
          "internalType": "address",
          "name": "to",
          "type": "address"
        },
        {
          "indexed": false,
          "internalType": "uint256[]",
          "name": "tokenIds",
          "type": "uint256[]"
        }
      ],
      "name": "ParkingMintMax",
      "type": "event"
    },
    {
      "anonymous": false,
      "inputs": [
        {
          "indexed": false,
          "internalType": "address",
          "name": "account",
          "type": "address"
        }
      ],
      "name": "Paused",
      "type": "event"
    },
    {
      "anonymous": false,
      "inputs": [
        {
          "indexed": true,
          "internalType": "bytes32",
          "name": "role",
          "type": "bytes32"
        },
        {
          "indexed": true,
          "internalType": "bytes32",
          "name": "previousAdminRole",
          "type": "bytes32"
        },
        {
          "indexed": true,
          "internalType": "bytes32",
          "name": "newAdminRole",
          "type": "bytes32"
        }
      ],
      "name": "RoleAdminChanged",
      "type": "event"
    },
    {
      "anonymous": false,
      "inputs": [
        {
          "indexed": true,
          "internalType": "bytes32",
          "name": "role",
          "type": "bytes32"
        },
        {
          "indexed": true,
          "internalType": "address",
          "name": "account",
          "type": "address"
        },
        {
          "indexed": true,
          "internalType": "address",
          "name": "sender",
          "type": "address"
        }
      ],
      "name": "RoleGranted",
      "type": "event"
    },
    {
      "anonymous": false,
      "inputs": [
        {
          "indexed": true,
          "internalType": "bytes32",
          "name": "role",
          "type": "bytes32"
        },
        {
          "indexed": true,
          "internalType": "address",
          "name": "account",
          "type": "address"
        },
        {
          "indexed": true,
          "internalType": "address",
          "name": "sender",
          "type": "address"
        }
      ],
      "name": "RoleRevoked",
      "type": "event"
    },
    {
      "anonymous": false,
      "inputs": [
        {
          "indexed": false,
          "internalType": "address",
          "name": "account",
          "type": "address"
        }
      ],
      "name": "Unpaused",
      "type": "event"
    },
    {
      "anonymous": false,
      "inputs": [
        {
          "indexed": true,
          "internalType": "address",
          "name": "implementation",
          "type": "address"
        }
      ],
      "name": "Upgraded",
      "type": "event"
    },
    {
      "inputs": [],
      "name": "ADMIN_ROLE",
      "outputs": [
        {
          "internalType": "bytes32",
          "name": "",
          "type": "bytes32"
        }
      ],
      "stateMutability": "view",
      "type": "function"
    },
    {
      "inputs": [],
      "name": "DEFAULT_ADMIN_ROLE",
      "outputs": [
        {
          "internalType": "bytes32",
          "name": "",
          "type": "bytes32"
        }
      ],
      "stateMutability": "view",
      "type": "function"
    },
    {
      "inputs": [],
      "name": "GAME_ROLE",
      "outputs": [
        {
          "internalType": "bytes32",
          "name": "",
          "type": "bytes32"
        }
      ],
      "stateMutability": "view",
      "type": "function"
    },
    {
      "inputs": [],
      "name": "PAUSER_ROLE",
      "outputs": [
        {
          "internalType": "bytes32",
          "name": "",
          "type": "bytes32"
        }
      ],
      "stateMutability": "view",
      "type": "function"
    },
    {
      "inputs": [],
      "name": "UPGRADER_ROLE",
      "outputs": [
        {
          "internalType": "bytes32",
          "name": "",
          "type": "bytes32"
        }
      ],
      "stateMutability": "view",
      "type": "function"
    },
    {
      "inputs": [
        {
          "internalType": "uint256",
          "name": "_tokenId",
          "type": "uint256"
        },
        {
          "internalType": "uint256",
          "name": "_electric",
          "type": "uint256"
        }
      ],
      "name": "charge",
      "outputs": [],
      "stateMutability": "nonpayable",
      "type": "function"
    },
    {
      "inputs": [
        {
          "internalType": "uint256",
          "name": "_tokenId",
          "type": "uint256"
        },
        {
          "internalType": "uint256",
          "name": "_electric",
          "type": "uint256"
        }
      ],
      "name": "consumption",
      "outputs": [],
      "stateMutability": "nonpayable",
      "type": "function"
    },
    {
      "inputs": [],
      "name": "currentTokenId",
      "outputs": [
        {
          "internalType": "uint256",
          "name": "",
          "type": "uint256"
        }
      ],
      "stateMutability": "view",
      "type": "function"
    },
    {
      "inputs": [
        {
          "internalType": "uint256",
          "name": "",
          "type": "uint256"
        }
      ],
      "name": "electric",
      "outputs": [
        {
          "internalType": "uint256",
          "name": "",
          "type": "uint256"
        }
      ],
      "stateMutability": "view",
      "type": "function"
    },
    {
      "inputs": [
        {
          "internalType": "uint256",
          "name": "_tokenId",
          "type": "uint256"
        }
      ],
      "name": "getElectric",
      "outputs": [
        {
          "internalType": "uint256",
          "name": "",
          "type": "uint256"
        }
      ],
      "stateMutability": "view",
      "type": "function"
    },
    {
      "inputs": [
        {
          "internalType": "bytes32",
          "name": "role",
          "type": "bytes32"
        }
      ],
      "name": "getRoleAdmin",
      "outputs": [
        {
          "internalType": "bytes32",
          "name": "",
          "type": "bytes32"
        }
      ],
      "stateMutability": "view",
      "type": "function"
    },
    {
      "inputs": [
        {
          "internalType": "bytes32",
          "name": "role",
          "type": "bytes32"
        },
        {
          "internalType": "uint256",
          "name": "index",
          "type": "uint256"
        }
      ],
      "name": "getRoleMember",
      "outputs": [
        {
          "internalType": "address",
          "name": "",
          "type": "address"
        }
      ],
      "stateMutability": "view",
      "type": "function"
    },
    {
      "inputs": [
        {
          "internalType": "bytes32",
          "name": "role",
          "type": "bytes32"
        }
      ],
      "name": "getRoleMemberCount",
      "outputs": [
        {
          "internalType": "uint256",
          "name": "",
          "type": "uint256"
        }
      ],
      "stateMutability": "view",
      "type": "function"
    },
    {
      "inputs": [
        {
          "internalType": "bytes32",
          "name": "role",
          "type": "bytes32"
        },
        {
          "internalType": "address",
          "name": "account",
          "type": "address"
        }
      ],
      "name": "grantRole",
      "outputs": [],
      "stateMutability": "nonpayable",
      "type": "function"
    },
    {
      "inputs": [
        {
          "internalType": "bytes32",
          "name": "role",
          "type": "bytes32"
        },
        {
          "internalType": "address",
          "name": "account",
          "type": "address"
        }
      ],
      "name": "hasRole",
      "outputs": [
        {
          "internalType": "bool",
          "name": "",
          "type": "bool"
        }
      ],
      "stateMutability": "view",
      "type": "function"
    },
    {
      "inputs": [
        {
          "internalType": "address",
          "name": "parkingERC721_",
          "type": "address"
        },
        {
          "internalType": "address",
          "name": "erc6551Registry_",
          "type": "address"
        },
        {
          "internalType": "address payable",
          "name": "erc6551Account_",
          "type": "address"
        }
      ],
      "name": "initialize",
      "outputs": [],
      "stateMutability": "nonpayable",
      "type": "function"
    },
    {
      "inputs": [],
      "name": "maxNFTPerAddress",
      "outputs": [
        {
          "internalType": "uint256",
          "name": "",
          "type": "uint256"
        }
      ],
      "stateMutability": "view",
      "type": "function"
    },
    {
      "inputs": [],
      "name": "mint",
      "outputs": [
        {
          "internalType": "uint256",
          "name": "",
          "type": "uint256"
        }
      ],
      "stateMutability": "nonpayable",
      "type": "function"
    },
    {
      "inputs": [],
      "name": "mintMax",
      "outputs": [
        {
          "internalType": "uint256[]",
          "name": "",
          "type": "uint256[]"
        }
      ],
      "stateMutability": "nonpayable",
      "type": "function"
    },
    {
      "inputs": [
        {
          "internalType": "address",
          "name": "",
          "type": "address"
        }
      ],
      "name": "parkingNFTCount",
      "outputs": [
        {
          "internalType": "uint256",
          "name": "",
          "type": "uint256"
        }
      ],
      "stateMutability": "view",
      "type": "function"
    },
    {
      "inputs": [],
      "name": "paused",
      "outputs": [
        {
          "internalType": "bool",
          "name": "",
          "type": "bool"
        }
      ],
      "stateMutability": "view",
      "type": "function"
    },
    {
      "inputs": [],
      "name": "proxiableUUID",
      "outputs": [
        {
          "internalType": "bytes32",
          "name": "",
          "type": "bytes32"
        }
      ],
      "stateMutability": "view",
      "type": "function"
    },
    {
      "inputs": [
        {
          "internalType": "bytes32",
          "name": "role",
          "type": "bytes32"
        },
        {
          "internalType": "address",
          "name": "account",
          "type": "address"
        }
      ],
      "name": "renounceRole",
      "outputs": [],
      "stateMutability": "nonpayable",
      "type": "function"
    },
    {
      "inputs": [
        {
          "internalType": "bytes32",
          "name": "role",
          "type": "bytes32"
        },
        {
          "internalType": "address",
          "name": "account",
          "type": "address"
        }
      ],
      "name": "revokeRole",
      "outputs": [],
      "stateMutability": "nonpayable",
      "type": "function"
    },
    {
      "inputs": [
        {
          "internalType": "uint256",
          "name": "_tokenId",
          "type": "uint256"
        },
        {
          "internalType": "uint256",
          "name": "_electric",
          "type": "uint256"
        }
      ],
      "name": "setElectric",
      "outputs": [],
      "stateMutability": "nonpayable",
      "type": "function"
    },
    {
      "inputs": [
        {
          "internalType": "bytes4",
          "name": "interfaceId",
          "type": "bytes4"
        }
      ],
      "name": "supportsInterface",
      "outputs": [
        {
          "internalType": "bool",
          "name": "",
          "type": "bool"
        }
      ],
      "stateMutability": "view",
      "type": "function"
    },
    {
      "inputs": [
        {
          "internalType": "address",
          "name": "newImplementation",
          "type": "address"
        }
      ],
      "name": "upgradeTo",
      "outputs": [],
      "stateMutability": "nonpayable",
      "type": "function"
    },
    {
      "inputs": [
        {
          "internalType": "address",
          "name": "newImplementation",
          "type": "address"
        },
        {
          "internalType": "bytes",
          "name": "data",
          "type": "bytes"
        }
      ],
      "name": "upgradeToAndCall",
      "outputs": [],
      "stateMutability": "payable",
      "type": "function"
    }
  ],
  "bytecode": "0x60a06040523073ffffffffffffffffffffffffffffffffffffffff1660809073ffffffffffffffffffffffffffffffffffffffff168152503480156200004457600080fd5b50620000556200005b60201b60201c565b62000205565b600060019054906101000a900460ff1615620000ae576040517f08c379a0000000000000000000000000000000000000000000000000000000008152600401620000a590620001a8565b60405180910390fd5b60ff801660008054906101000a900460ff1660ff16146200011f5760ff6000806101000a81548160ff021916908360ff1602179055507f7f26b83ff96e1f2b6a682f133852f6798a09c465da95921460cefb384740249860ff604051620001169190620001e8565b60405180910390a15b565b600082825260208201905092915050565b7f496e697469616c697a61626c653a20636f6e747261637420697320696e69746960008201527f616c697a696e6700000000000000000000000000000000000000000000000000602082015250565b60006200019060278362000121565b91506200019d8262000132565b604082019050919050565b60006020820190508181036000830152620001c38162000181565b9050919050565b600060ff82169050919050565b620001e281620001ca565b82525050565b6000602082019050620001ff6000830184620001d7565b92915050565b608051613b256200023d600039600081816109ea01528181610a7801528181610d5b01528181610de90152610eb70152613b256000f3fe6080604052600436106101b65760003560e01c80637e94876b116100ec578063c0c53b8b1161008a578063d9e01d5411610064578063d9e01d5414610624578063e63ab1e914610661578063f352978f1461068c578063f72c0d8b146106b5576101b6565b8063c0c53b8b14610595578063ca15c873146105be578063d547741f146105fb576101b6565b806390852186116100c657806390852186146104c557806391d1485414610502578063a217fddf1461053f578063ab4007061461056a576101b6565b80637e94876b14610434578063837aea6c1461045d5780639010d07c14610488576101b6565b80633659cfe6116101595780635109f03f116101335780635109f03f1461037657806352d1902d146103b35780635c975abb146103de57806375b238fc14610409576101b6565b80633659cfe6146103065780634d1555611461032f5780634f1ef2861461035a576101b6565b8063248a9ca311610195578063248a9ca31461024e5780632cc5af881461028b5780632f2ff15d146102b457806336568abe146102dd576101b6565b80629a9b7b146101bb57806301ffc9a7146101e65780631249c58b14610223575b600080fd5b3480156101c757600080fd5b506101d06106e0565b6040516101dd91906127b1565b60405180910390f35b3480156101f257600080fd5b5061020d60048036038101906102089190612838565b610700565b60405161021a9190612880565b60405180910390f35b34801561022f57600080fd5b5061023861077a565b60405161024591906127b1565b60405180910390f35b34801561025a57600080fd5b50610275600480360381019061027091906128d1565b610828565b604051610282919061290d565b60405180910390f35b34801561029757600080fd5b506102b260048036038101906102ad9190612954565b610848565b005b3480156102c057600080fd5b506102db60048036038101906102d691906129f2565b610944565b005b3480156102e957600080fd5b5061030460048036038101906102ff91906129f2565b610965565b005b34801561031257600080fd5b5061032d60048036038101906103289190612a32565b6109e8565b005b34801561033b57600080fd5b50610344610b70565b6040516103519190612b1d565b60405180910390f35b610374600480360381019061036f9190612c85565b610d59565b005b34801561038257600080fd5b5061039d60048036038101906103989190612ce1565b610e95565b6040516103aa91906127b1565b60405180910390f35b3480156103bf57600080fd5b506103c8610eb3565b6040516103d5919061290d565b60405180910390f35b3480156103ea57600080fd5b506103f3610f6c565b6040516104009190612880565b60405180910390f35b34801561041557600080fd5b5061041e610f83565b60405161042b919061290d565b60405180910390f35b34801561044057600080fd5b5061045b60048036038101906104569190612954565b610fa7565b005b34801561046957600080fd5b50610472611054565b60405161047f91906127b1565b60405180910390f35b34801561049457600080fd5b506104af60048036038101906104aa9190612d0e565b61105b565b6040516104bc9190612d5d565b60405180910390f35b3480156104d157600080fd5b506104ec60048036038101906104e79190612a32565b61108a565b6040516104f991906127b1565b60405180910390f35b34801561050e57600080fd5b50610529600480360381019061052491906129f2565b6110a3565b6040516105369190612880565b60405180910390f35b34801561054b57600080fd5b5061055461110e565b604051610561919061290d565b60405180910390f35b34801561057657600080fd5b5061057f611115565b60405161058c919061290d565b60405180910390f35b3480156105a157600080fd5b506105bc60048036038101906105b79190612db6565b611139565b005b3480156105ca57600080fd5b506105e560048036038101906105e091906128d1565b6113c4565b6040516105f291906127b1565b60405180910390f35b34801561060757600080fd5b50610622600480360381019061061d91906129f2565b6113e8565b005b34801561063057600080fd5b5061064b60048036038101906106469190612ce1565b611409565b60405161065891906127b1565b60405180910390f35b34801561066d57600080fd5b50610676611422565b604051610683919061290d565b60405180910390f35b34801561069857600080fd5b506106b360048036038101906106ae9190612954565b611446565b005b3480156106c157600080fd5b506106ca611526565b6040516106d7919061290d565b60405180910390f35b6000610198546106f161019461154a565b6106fb9190612e38565b905090565b60007f5a05180f000000000000000000000000000000000000000000000000000000007bffffffffffffffffffffffffffffffffffffffffffffffffffffffff1916827bffffffffffffffffffffffffffffffffffffffffffffffffffffffff19161480610773575061077282611558565b5b9050919050565b60006107846115d2565b61078c61161c565b6101975461019560003373ffffffffffffffffffffffffffffffffffffffff1673ffffffffffffffffffffffffffffffffffffffff168152602001908152602001600020541115610812576040517f08c379a000000000000000000000000000000000000000000000000000000000815260040161080990612ec9565b60405180910390fd5b61081b3361166b565b9050610825611896565b90565b600060976000838152602001908152602001600020600101549050919050565b6108506115d2565b7f6a64baf327d646d1bca72653e2a075d15fd6ac6d8cbd7f6ee03fc55875e0fa8861087a816118a0565b61088261161c565b6064826101966000868152602001908152602001600020546108a49190612e38565b11156108c95760646101966000858152602001908152602001600020819055506108f5565b81610196600085815260200190815260200160002060008282546108ed9190612e38565b925050819055505b610196600084815260200190815260200160002054837f5b389bc238bb45e93a15902b3b85778d3b6a2159e7dca3b0b004abea8c9e344d60405160405180910390a361093f611896565b505050565b61094d82610828565b610956816118a0565b61096083836118b4565b505050565b61096d6118e8565b73ffffffffffffffffffffffffffffffffffffffff168173ffffffffffffffffffffffffffffffffffffffff16146109da576040517f08c379a00000000000000000000000000000000000000000000000000000000081526004016109d190612f5b565b60405180910390fd5b6109e482826118f0565b5050565b7f000000000000000000000000000000000000000000000000000000000000000073ffffffffffffffffffffffffffffffffffffffff163073ffffffffffffffffffffffffffffffffffffffff1603610a76576040517f08c379a0000000000000000000000000000000000000000000000000000000008152600401610a6d90612fed565b60405180910390fd5b7f000000000000000000000000000000000000000000000000000000000000000073ffffffffffffffffffffffffffffffffffffffff16610ab5611924565b73ffffffffffffffffffffffffffffffffffffffff1614610b0b576040517f08c379a0000000000000000000000000000000000000000000000000000000008152600401610b029061307f565b60405180910390fd5b610b148161197b565b610b6d81600067ffffffffffffffff811115610b3357610b32612b5a565b5b6040519080825280601f01601f191660200182016040528015610b655781602001600182028036833780820191505090505b5060006119a9565b50565b6060610b7a6115d2565b610b8261161c565b6101975461019560003373ffffffffffffffffffffffffffffffffffffffff1673ffffffffffffffffffffffffffffffffffffffff168152602001908152602001600020541115610c08576040517f08c379a0000000000000000000000000000000000000000000000000000000008152600401610bff90612ec9565b60405180910390fd5b6000339050600061019560008373ffffffffffffffffffffffffffffffffffffffff1673ffffffffffffffffffffffffffffffffffffffff1681526020019081526020016000205461019754610c5e919061309f565b905060008167ffffffffffffffff811115610c7c57610c7b612b5a565b5b604051908082528060200260200182016040528015610caa5781602001602082028036833780820191505090505b50905060005b82811015610cf9576000610cc38561166b565b905080838381518110610cd957610cd86130d3565b5b602002602001018181525050508080610cf190613102565b915050610cb0565b508273ffffffffffffffffffffffffffffffffffffffff167fbd5287d80c26a22a90c7f8f67470c87a135722b46fdabc9ec9c794cb0d415c0982604051610d409190612b1d565b60405180910390a2809350505050610d56611896565b90565b7f000000000000000000000000000000000000000000000000000000000000000073ffffffffffffffffffffffffffffffffffffffff163073ffffffffffffffffffffffffffffffffffffffff1603610de7576040517f08c379a0000000000000000000000000000000000000000000000000000000008152600401610dde90612fed565b60405180910390fd5b7f000000000000000000000000000000000000000000000000000000000000000073ffffffffffffffffffffffffffffffffffffffff16610e26611924565b73ffffffffffffffffffffffffffffffffffffffff1614610e7c576040517f08c379a0000000000000000000000000000000000000000000000000000000008152600401610e739061307f565b60405180910390fd5b610e858261197b565b610e91828260016119a9565b5050565b60006101966000838152602001908152602001600020549050919050565b60007f000000000000000000000000000000000000000000000000000000000000000073ffffffffffffffffffffffffffffffffffffffff163073ffffffffffffffffffffffffffffffffffffffff1614610f43576040517f08c379a0000000000000000000000000000000000000000000000000000000008152600401610f3a906131bc565b60405180910390fd5b7f360894a13ba1a3210667c828492db98dca3e2076cc3735a920a3ca505d382bbc60001b905090565b6000603360009054906101000a900460ff16905090565b7fa49807205ce4d355092ef5a8a18f56e8913cf4a201fbe287825b095693c2177581565b610faf6115d2565b7f6a64baf327d646d1bca72653e2a075d15fd6ac6d8cbd7f6ee03fc55875e0fa88610fd9816118a0565b60008210158015610feb575060648211155b610ff457600080fd5b81610196600085815260200190815260200160002081905550610196600084815260200190815260200160002054837f5b389bc238bb45e93a15902b3b85778d3b6a2159e7dca3b0b004abea8c9e344d60405160405180910390a3505050565b6101975481565b60006110828260c96000868152602001908152602001600020611b1790919063ffffffff16565b905092915050565b6101956020528060005260406000206000915090505481565b60006097600084815260200190815260200160002060000160008373ffffffffffffffffffffffffffffffffffffffff1673ffffffffffffffffffffffffffffffffffffffff16815260200190815260200160002060009054906101000a900460ff16905092915050565b6000801b81565b7f6a64baf327d646d1bca72653e2a075d15fd6ac6d8cbd7f6ee03fc55875e0fa8881565b60008060019054906101000a900460ff1615905080801561116a5750600160008054906101000a900460ff1660ff16105b80611197575061117930611b31565b1580156111965750600160008054906101000a900460ff1660ff16145b5b6111d6576040517f08c379a00000000000000000000000000000000000000000000000000000000081526004016111cd9061324e565b60405180910390fd5b60016000806101000a81548160ff021916908360ff1602179055508015611213576001600060016101000a81548160ff0219169083151502179055505b8361019160006101000a81548173ffffffffffffffffffffffffffffffffffffffff021916908373ffffffffffffffffffffffffffffffffffffffff1602179055508261019360006101000a81548173ffffffffffffffffffffffffffffffffffffffff021916908373ffffffffffffffffffffffffffffffffffffffff1602179055508161019260006101000a81548173ffffffffffffffffffffffffffffffffffffffff021916908373ffffffffffffffffffffffffffffffffffffffff1602179055506103e8610198819055506005610197819055506112f4611b54565b6112fc611bad565b611304611bfe565b6113116000801b336118b4565b61133b7f65d7a28e3265b37a6474929f336521b332c1681b933f6cb9f3376673440d862a336118b4565b6113657f189ab7a9244df0848122154315af71fe140f3db0fe014031783b0946b8c9d2e3336118b4565b80156113be5760008060016101000a81548160ff0219169083151502179055507f7f26b83ff96e1f2b6a682f133852f6798a09c465da95921460cefb384740249860016040516113b591906132c0565b60405180910390a15b50505050565b60006113e160c96000848152602001908152602001600020611c4f565b9050919050565b6113f182610828565b6113fa816118a0565b61140483836118f0565b505050565b6101966020528060005260406000206000915090505481565b7f65d7a28e3265b37a6474929f336521b332c1681b933f6cb9f3376673440d862a81565b61144e6115d2565b7f6a64baf327d646d1bca72653e2a075d15fd6ac6d8cbd7f6ee03fc55875e0fa88611478816118a0565b8161019660008581526020019081526020016000205411156114c45781610196600085815260200190815260200160002060008282546114b8919061309f565b925050819055506114df565b60006101966000858152602001908152602001600020819055505b610196600084815260200190815260200160002054837f5b389bc238bb45e93a15902b3b85778d3b6a2159e7dca3b0b004abea8c9e344d60405160405180910390a3505050565b7f189ab7a9244df0848122154315af71fe140f3db0fe014031783b0946b8c9d2e381565b600081600001549050919050565b60007f7965db0b000000000000000000000000000000000000000000000000000000007bffffffffffffffffffffffffffffffffffffffffffffffffffffffff1916827bffffffffffffffffffffffffffffffffffffffffffffffffffffffff191614806115cb57506115ca82611c64565b5b9050919050565b6115da610f6c565b1561161a576040517f08c379a000000000000000000000000000000000000000000000000000000000815260040161161190613327565b60405180910390fd5b565b600260fb5403611661576040517f08c379a000000000000000000000000000000000000000000000000000000000815260040161165890613393565b60405180910390fd5b600260fb81905550565b6000806116766106e0565b9050611683610194611cce565b61168d8382611ce4565b606461019660008381526020019081526020016000208190555061019560008473ffffffffffffffffffffffffffffffffffffffff1673ffffffffffffffffffffffffffffffffffffffff16815260200190815260200160002060008154809291906116f890613102565b9190505550600061019360009054906101000a900473ffffffffffffffffffffffffffffffffffffffff1673ffffffffffffffffffffffffffffffffffffffff1663da7323b361019260009054906101000a900473ffffffffffffffffffffffffffffffffffffffff164661019160009054906101000a900473ffffffffffffffffffffffffffffffffffffffff168687600067ffffffffffffffff8111156117a4576117a3612b5a565b5b6040519080825280601f01601f1916602001820160405280156117d65781602001600182028036833780820191505090505b506040518763ffffffff1660e01b81526004016117f896959493929190613432565b6020604051808303816000875af1158015611817573d6000803e3d6000fd5b505050506040513d601f19601f8201168201806040525081019061183b91906134af565b9050818473ffffffffffffffffffffffffffffffffffffffff167fc332cf0d89359fbb18950fb357d47b07ff52cc38df1467a595acc3df4370ff01836040516118849190612d5d565b60405180910390a38192505050919050565b600160fb81905550565b6118b1816118ac6118e8565b611d78565b50565b6118be8282611dfd565b6118e38160c96000858152602001908152602001600020611ede90919063ffffffff16565b505050565b600033905090565b6118fa8282611f0e565b61191f8160c96000858152602001908152602001600020611ff090919063ffffffff16565b505050565b60006119527f360894a13ba1a3210667c828492db98dca3e2076cc3735a920a3ca505d382bbc60001b612020565b60000160009054906101000a900473ffffffffffffffffffffffffffffffffffffffff16905090565b7f189ab7a9244df0848122154315af71fe140f3db0fe014031783b0946b8c9d2e36119a5816118a0565b5050565b6119d57f4910fdfa16fed3260ed0e7147f7cc6da11a60208b5b9406d12a635614ffd914360001b61202a565b60000160009054906101000a900460ff16156119f9576119f483612034565b611b12565b8273ffffffffffffffffffffffffffffffffffffffff166352d1902d6040518163ffffffff1660e01b8152600401602060405180830381865afa925050508015611a6157506040513d601f19601f82011682018060405250810190611a5e91906134f1565b60015b611aa0576040517f08c379a0000000000000000000000000000000000000000000000000000000008152600401611a9790613590565b60405180910390fd5b7f360894a13ba1a3210667c828492db98dca3e2076cc3735a920a3ca505d382bbc60001b8114611b05576040517f08c379a0000000000000000000000000000000000000000000000000000000008152600401611afc90613622565b60405180910390fd5b50611b118383836120ed565b5b505050565b6000611b268360000183612119565b60001c905092915050565b6000808273ffffffffffffffffffffffffffffffffffffffff163b119050919050565b600060019054906101000a900460ff16611ba3576040517f08c379a0000000000000000000000000000000000000000000000000000000008152600401611b9a906136b4565b60405180910390fd5b611bab612144565b565b600060019054906101000a900460ff16611bfc576040517f08c379a0000000000000000000000000000000000000000000000000000000008152600401611bf3906136b4565b60405180910390fd5b565b600060019054906101000a900460ff16611c4d576040517f08c379a0000000000000000000000000000000000000000000000000000000008152600401611c44906136b4565b60405180910390fd5b565b6000611c5d826000016121b0565b9050919050565b60007f01ffc9a7000000000000000000000000000000000000000000000000000000007bffffffffffffffffffffffffffffffffffffffffffffffffffffffff1916827bffffffffffffffffffffffffffffffffffffffffffffffffffffffff1916149050919050565b6001816000016000828254019250508190555050565b61019160009054906101000a900473ffffffffffffffffffffffffffffffffffffffff1673ffffffffffffffffffffffffffffffffffffffff1663a144819483836040518363ffffffff1660e01b8152600401611d429291906136d4565b600060405180830381600087803b158015611d5c57600080fd5b505af1158015611d70573d6000803e3d6000fd5b505050505050565b611d8282826110a3565b611df957611d8f816121c1565b611d9d8360001c60206121ee565b604051602001611dae9291906137dc565b6040516020818303038152906040526040517f08c379a0000000000000000000000000000000000000000000000000000000008152600401611df0919061384f565b60405180910390fd5b5050565b611e0782826110a3565b611eda5760016097600084815260200190815260200160002060000160008373ffffffffffffffffffffffffffffffffffffffff1673ffffffffffffffffffffffffffffffffffffffff16815260200190815260200160002060006101000a81548160ff021916908315150217905550611e7f6118e8565b73ffffffffffffffffffffffffffffffffffffffff168173ffffffffffffffffffffffffffffffffffffffff16837f2f8788117e7eff1d82e926ec794901d17c78024a50270940304540a733656f0d60405160405180910390a45b5050565b6000611f06836000018373ffffffffffffffffffffffffffffffffffffffff1660001b61242a565b905092915050565b611f1882826110a3565b15611fec5760006097600084815260200190815260200160002060000160008373ffffffffffffffffffffffffffffffffffffffff1673ffffffffffffffffffffffffffffffffffffffff16815260200190815260200160002060006101000a81548160ff021916908315150217905550611f916118e8565b73ffffffffffffffffffffffffffffffffffffffff168173ffffffffffffffffffffffffffffffffffffffff16837ff6391f5c32d9c69d2a47ea670b442974b53935d1edc7fd64eb21e047a839171b60405160405180910390a45b5050565b6000612018836000018373ffffffffffffffffffffffffffffffffffffffff1660001b61249a565b905092915050565b6000819050919050565b6000819050919050565b61203d81611b31565b61207c576040517f08c379a0000000000000000000000000000000000000000000000000000000008152600401612073906138e3565b60405180910390fd5b806120a97f360894a13ba1a3210667c828492db98dca3e2076cc3735a920a3ca505d382bbc60001b612020565b60000160006101000a81548173ffffffffffffffffffffffffffffffffffffffff021916908373ffffffffffffffffffffffffffffffffffffffff16021790555050565b6120f6836125ae565b6000825111806121035750805b156121145761211283836125fd565b505b505050565b6000826000018281548110612131576121306130d3565b5b9060005260206000200154905092915050565b600060019054906101000a900460ff16612193576040517f08c379a000000000000000000000000000000000000000000000000000000000815260040161218a906136b4565b60405180910390fd5b6000603360006101000a81548160ff021916908315150217905550565b600081600001805490509050919050565b60606121e78273ffffffffffffffffffffffffffffffffffffffff16601460ff166121ee565b9050919050565b6060600060028360026122019190613903565b61220b9190612e38565b67ffffffffffffffff81111561222457612223612b5a565b5b6040519080825280601f01601f1916602001820160405280156122565781602001600182028036833780820191505090505b5090507f30000000000000000000000000000000000000000000000000000000000000008160008151811061228e5761228d6130d3565b5b60200101907effffffffffffffffffffffffffffffffffffffffffffffffffffffffffffff1916908160001a9053507f7800000000000000000000000000000000000000000000000000000000000000816001815181106122f2576122f16130d3565b5b60200101907effffffffffffffffffffffffffffffffffffffffffffffffffffffffffffff1916908160001a905350600060018460026123329190613903565b61233c9190612e38565b90505b60018111156123dc577f3031323334353637383961626364656600000000000000000000000000000000600f86166010811061237e5761237d6130d3565b5b1a60f81b828281518110612395576123946130d3565b5b60200101907effffffffffffffffffffffffffffffffffffffffffffffffffffffffffffff1916908160001a905350600485901c9450806123d590613945565b905061233f565b5060008414612420576040517f08c379a0000000000000000000000000000000000000000000000000000000008152600401612417906139ba565b60405180910390fd5b8091505092915050565b6000612436838361262a565b61248f578260000182908060018154018082558091505060019003906000526020600020016000909190919091505582600001805490508360010160008481526020019081526020016000208190555060019050612494565b600090505b92915050565b600080836001016000848152602001908152602001600020549050600081146125a25760006001826124cc919061309f565b90506000600186600001805490506124e4919061309f565b9050818114612553576000866000018281548110612505576125046130d3565b5b9060005260206000200154905080876000018481548110612529576125286130d3565b5b90600052602060002001819055508387600101600083815260200190815260200160002081905550505b85600001805480612567576125666139da565b5b6001900381819060005260206000200160009055905585600101600086815260200190815260200160002060009055600193505050506125a8565b60009150505b92915050565b6125b781612034565b8073ffffffffffffffffffffffffffffffffffffffff167fbc7cd75a20ee27fd9adebab32041f755214dbc6bffa90cc0225b39da2e5c2d3b60405160405180910390a250565b60606126228383604051806060016040528060278152602001613ac96027913961264d565b905092915050565b600080836001016000848152602001908152602001600020541415905092915050565b60606000808573ffffffffffffffffffffffffffffffffffffffff16856040516126779190613a45565b600060405180830381855af49150503d80600081146126b2576040519150601f19603f3d011682016040523d82523d6000602084013e6126b7565b606091505b50915091506126c8868383876126d3565b925050509392505050565b6060831561273557600083510361272d576126ed85611b31565b61272c576040517f08c379a000000000000000000000000000000000000000000000000000000000815260040161272390613aa8565b60405180910390fd5b5b829050612740565b61273f8383612748565b5b949350505050565b60008251111561275b5781518083602001fd5b806040517f08c379a000000000000000000000000000000000000000000000000000000000815260040161278f919061384f565b60405180910390fd5b6000819050919050565b6127ab81612798565b82525050565b60006020820190506127c660008301846127a2565b92915050565b6000604051905090565b600080fd5b600080fd5b60007fffffffff0000000000000000000000000000000000000000000000000000000082169050919050565b612815816127e0565b811461282057600080fd5b50565b6000813590506128328161280c565b92915050565b60006020828403121561284e5761284d6127d6565b5b600061285c84828501612823565b91505092915050565b60008115159050919050565b61287a81612865565b82525050565b60006020820190506128956000830184612871565b92915050565b6000819050919050565b6128ae8161289b565b81146128b957600080fd5b50565b6000813590506128cb816128a5565b92915050565b6000602082840312156128e7576128e66127d6565b5b60006128f5848285016128bc565b91505092915050565b6129078161289b565b82525050565b600060208201905061292260008301846128fe565b92915050565b61293181612798565b811461293c57600080fd5b50565b60008135905061294e81612928565b92915050565b6000806040838503121561296b5761296a6127d6565b5b60006129798582860161293f565b925050602061298a8582860161293f565b9150509250929050565b600073ffffffffffffffffffffffffffffffffffffffff82169050919050565b60006129bf82612994565b9050919050565b6129cf816129b4565b81146129da57600080fd5b50565b6000813590506129ec816129c6565b92915050565b60008060408385031215612a0957612a086127d6565b5b6000612a17858286016128bc565b9250506020612a28858286016129dd565b9150509250929050565b600060208284031215612a4857612a476127d6565b5b6000612a56848285016129dd565b91505092915050565b600081519050919050565b600082825260208201905092915050565b6000819050602082019050919050565b612a9481612798565b82525050565b6000612aa68383612a8b565b60208301905092915050565b6000602082019050919050565b6000612aca82612a5f565b612ad48185612a6a565b9350612adf83612a7b565b8060005b83811015612b10578151612af78882612a9a565b9750612b0283612ab2565b925050600181019050612ae3565b5085935050505092915050565b60006020820190508181036000830152612b378184612abf565b905092915050565b600080fd5b600080fd5b6000601f19601f8301169050919050565b7f4e487b7100000000000000000000000000000000000000000000000000000000600052604160045260246000fd5b612b9282612b49565b810181811067ffffffffffffffff82111715612bb157612bb0612b5a565b5b80604052505050565b6000612bc46127cc565b9050612bd08282612b89565b919050565b600067ffffffffffffffff821115612bf057612bef612b5a565b5b612bf982612b49565b9050602081019050919050565b82818337600083830152505050565b6000612c28612c2384612bd5565b612bba565b905082815260208101848484011115612c4457612c43612b44565b5b612c4f848285612c06565b509392505050565b600082601f830112612c6c57612c6b612b3f565b5b8135612c7c848260208601612c15565b91505092915050565b60008060408385031215612c9c57612c9b6127d6565b5b6000612caa858286016129dd565b925050602083013567ffffffffffffffff811115612ccb57612cca6127db565b5b612cd785828601612c57565b9150509250929050565b600060208284031215612cf757612cf66127d6565b5b6000612d058482850161293f565b91505092915050565b60008060408385031215612d2557612d246127d6565b5b6000612d33858286016128bc565b9250506020612d448582860161293f565b9150509250929050565b612d57816129b4565b82525050565b6000602082019050612d726000830184612d4e565b92915050565b6000612d8382612994565b9050919050565b612d9381612d78565b8114612d9e57600080fd5b50565b600081359050612db081612d8a565b92915050565b600080600060608486031215612dcf57612dce6127d6565b5b6000612ddd868287016129dd565b9350506020612dee868287016129dd565b9250506040612dff86828701612da1565b9150509250925092565b7f4e487b7100000000000000000000000000000000000000000000000000000000600052601160045260246000fd5b6000612e4382612798565b9150612e4e83612798565b9250828201905080821115612e6657612e65612e09565b5b92915050565b600082825260208201905092915050565b7f4d6178204e4654206c696d697420726561636865640000000000000000000000600082015250565b6000612eb3601583612e6c565b9150612ebe82612e7d565b602082019050919050565b60006020820190508181036000830152612ee281612ea6565b9050919050565b7f416363657373436f6e74726f6c3a2063616e206f6e6c792072656e6f756e636560008201527f20726f6c657320666f722073656c660000000000000000000000000000000000602082015250565b6000612f45602f83612e6c565b9150612f5082612ee9565b604082019050919050565b60006020820190508181036000830152612f7481612f38565b9050919050565b7f46756e6374696f6e206d7573742062652063616c6c6564207468726f7567682060008201527f64656c656761746563616c6c0000000000000000000000000000000000000000602082015250565b6000612fd7602c83612e6c565b9150612fe282612f7b565b604082019050919050565b6000602082019050818103600083015261300681612fca565b9050919050565b7f46756e6374696f6e206d7573742062652063616c6c6564207468726f7567682060008201527f6163746976652070726f78790000000000000000000000000000000000000000602082015250565b6000613069602c83612e6c565b91506130748261300d565b604082019050919050565b600060208201905081810360008301526130988161305c565b9050919050565b60006130aa82612798565b91506130b583612798565b92508282039050818111156130cd576130cc612e09565b5b92915050565b7f4e487b7100000000000000000000000000000000000000000000000000000000600052603260045260246000fd5b600061310d82612798565b91507fffffffffffffffffffffffffffffffffffffffffffffffffffffffffffffffff820361313f5761313e612e09565b5b600182019050919050565b7f555550535570677261646561626c653a206d757374206e6f742062652063616c60008201527f6c6564207468726f7567682064656c656761746563616c6c0000000000000000602082015250565b60006131a6603883612e6c565b91506131b18261314a565b604082019050919050565b600060208201905081810360008301526131d581613199565b9050919050565b7f496e697469616c697a61626c653a20636f6e747261637420697320616c72656160008201527f647920696e697469616c697a6564000000000000000000000000000000000000602082015250565b6000613238602e83612e6c565b9150613243826131dc565b604082019050919050565b600060208201905081810360008301526132678161322b565b9050919050565b6000819050919050565b600060ff82169050919050565b6000819050919050565b60006132aa6132a56132a08461326e565b613285565b613278565b9050919050565b6132ba8161328f565b82525050565b60006020820190506132d560008301846132b1565b92915050565b7f5061757361626c653a2070617573656400000000000000000000000000000000600082015250565b6000613311601083612e6c565b915061331c826132db565b602082019050919050565b6000602082019050818103600083015261334081613304565b9050919050565b7f5265656e7472616e637947756172643a207265656e7472616e742063616c6c00600082015250565b600061337d601f83612e6c565b915061338882613347565b602082019050919050565b600060208201905081810360008301526133ac81613370565b9050919050565b600081519050919050565b600082825260208201905092915050565b60005b838110156133ed5780820151818401526020810190506133d2565b60008484015250505050565b6000613404826133b3565b61340e81856133be565b935061341e8185602086016133cf565b61342781612b49565b840191505092915050565b600060c0820190506134476000830189612d4e565b61345460208301886127a2565b6134616040830187612d4e565b61346e60608301866127a2565b61347b60808301856127a2565b81810360a083015261348d81846133f9565b9050979650505050505050565b6000815190506134a9816129c6565b92915050565b6000602082840312156134c5576134c46127d6565b5b60006134d38482850161349a565b91505092915050565b6000815190506134eb816128a5565b92915050565b600060208284031215613507576135066127d6565b5b6000613515848285016134dc565b91505092915050565b7f45524331393637557067726164653a206e657720696d706c656d656e7461746960008201527f6f6e206973206e6f742055555053000000000000000000000000000000000000602082015250565b600061357a602e83612e6c565b91506135858261351e565b604082019050919050565b600060208201905081810360008301526135a98161356d565b9050919050565b7f45524331393637557067726164653a20756e737570706f727465642070726f7860008201527f6961626c65555549440000000000000000000000000000000000000000000000602082015250565b600061360c602983612e6c565b9150613617826135b0565b604082019050919050565b6000602082019050818103600083015261363b816135ff565b9050919050565b7f496e697469616c697a61626c653a20636f6e7472616374206973206e6f74206960008201527f6e697469616c697a696e67000000000000000000000000000000000000000000602082015250565b600061369e602b83612e6c565b91506136a982613642565b604082019050919050565b600060208201905081810360008301526136cd81613691565b9050919050565b60006040820190506136e96000830185612d4e565b6136f660208301846127a2565b9392505050565b600081905092915050565b7f416363657373436f6e74726f6c3a206163636f756e7420000000000000000000600082015250565b600061373e6017836136fd565b915061374982613708565b601782019050919050565b600081519050919050565b600061376a82613754565b61377481856136fd565b93506137848185602086016133cf565b80840191505092915050565b7f206973206d697373696e6720726f6c6520000000000000000000000000000000600082015250565b60006137c66011836136fd565b91506137d182613790565b601182019050919050565b60006137e782613731565b91506137f3828561375f565b91506137fe826137b9565b915061380a828461375f565b91508190509392505050565b600061382182613754565b61382b8185612e6c565b935061383b8185602086016133cf565b61384481612b49565b840191505092915050565b600060208201905081810360008301526138698184613816565b905092915050565b7f455243313936373a206e657720696d706c656d656e746174696f6e206973206e60008201527f6f74206120636f6e747261637400000000000000000000000000000000000000602082015250565b60006138cd602d83612e6c565b91506138d882613871565b604082019050919050565b600060208201905081810360008301526138fc816138c0565b9050919050565b600061390e82612798565b915061391983612798565b925082820261392781612798565b9150828204841483151761393e5761393d612e09565b5b5092915050565b600061395082612798565b91506000820361396357613962612e09565b5b600182039050919050565b7f537472696e67733a20686578206c656e67746820696e73756666696369656e74600082015250565b60006139a4602083612e6c565b91506139af8261396e565b602082019050919050565b600060208201905081810360008301526139d381613997565b9050919050565b7f4e487b7100000000000000000000000000000000000000000000000000000000600052603160045260246000fd5b600081905092915050565b6000613a1f826133b3565b613a298185613a09565b9350613a398185602086016133cf565b80840191505092915050565b6000613a518284613a14565b915081905092915050565b7f416464726573733a2063616c6c20746f206e6f6e2d636f6e7472616374000000600082015250565b6000613a92601d83612e6c565b9150613a9d82613a5c565b602082019050919050565b60006020820190508181036000830152613ac181613a85565b905091905056fe416464726573733a206c6f772d6c6576656c2064656c65676174652063616c6c206661696c6564a2646970667358221220b7d9363444e04cda7b4ee893db50b710ee0635b8acd7aaeffca45a297971abb864736f6c63430008140033",
  "linkReferences": {},
  "deployedLinkReferences": {}
}