{
  "_format": "hh-sol-artifact-1",
  "contractName": "StandardERC6551Account",
  "sourceName": "contracts/systems/ERC6551/StandardERC6551Account.sol",
  "abi": [
    {
      "inputs": [
        {
          "internalType": "uint256",
          "name": "_size",
          "type": "uint256"
        },
        {
          "internalType": "uint256",
          "name": "_start",
          "type": "uint256"
        },
        {
          "internalType": "uint256",
          "name": "_end",
          "type": "uint256"
        }
      ],
      "name": "InvalidCodeAtRange",
      "type": "error"
    },
    {
      "inputs": [
        {
          "internalType": "address",
          "name": "to",
          "type": "address"
        },
        {
          "internalType": "uint256",
          "name": "value",
          "type": "uint256"
        },
        {
          "internalType": "bytes",
          "name": "data",
          "type": "bytes"
        }
      ],
      "name": "executeCall",
      "outputs": [
        {
          "internalType": "bytes",
          "name": "result",
          "type": "bytes"
        }
      ],
      "stateMutability": "payable",
      "type": "function"
    },
    {
      "inputs": [
        {
          "internalType": "bytes32",
          "name": "hash",
          "type": "bytes32"
        },
        {
          "internalType": "bytes",
          "name": "signature",
          "type": "bytes"
        }
      ],
      "name": "isValidSignature",
      "outputs": [
        {
          "internalType": "bytes4",
          "name": "magicValue",
          "type": "bytes4"
        }
      ],
      "stateMutability": "view",
      "type": "function"
    },
    {
      "inputs": [],
      "name": "nonce",
      "outputs": [
        {
          "internalType": "uint256",
          "name": "",
          "type": "uint256"
        }
      ],
      "stateMutability": "view",
      "type": "function"
    },
    {
      "inputs": [],
      "name": "owner",
      "outputs": [
        {
          "internalType": "address",
          "name": "",
          "type": "address"
        }
      ],
      "stateMutability": "view",
      "type": "function"
    },
    {
      "inputs": [
        {
          "internalType": "bytes4",
          "name": "interfaceId",
          "type": "bytes4"
        }
      ],
      "name": "supportsInterface",
      "outputs": [
        {
          "internalType": "bool",
          "name": "",
          "type": "bool"
        }
      ],
      "stateMutability": "pure",
      "type": "function"
    },
    {
      "inputs": [],
      "name": "token",
      "outputs": [
        {
          "internalType": "uint256",
          "name": "chainId",
          "type": "uint256"
        },
        {
          "internalType": "address",
          "name": "tokenContract",
          "type": "address"
        },
        {
          "internalType": "uint256",
          "name": "tokenId",
          "type": "uint256"
        }
      ],
      "stateMutability": "view",
      "type": "function"
    },
    {
      "stateMutability": "payable",
      "type": "receive"
    }
  ],
  "bytecode": "0x608060405234801561001057600080fd5b506114b4806100206000396000f3fe6080604052600436106100595760003560e01c806301ffc9a7146100655780631626ba7e146100a25780638da5cb5b146100df5780639e5d4c491461010a578063affed0e01461013a578063fc0c546a1461016557610060565b3661006057005b600080fd5b34801561007157600080fd5b5061008c60048036038101906100879190610aa3565b610192565b6040516100999190610aeb565b60405180910390f35b3480156100ae57600080fd5b506100c960048036038101906100c49190610c82565b610264565b6040516100d69190610ced565b60405180910390f35b3480156100eb57600080fd5b506100f461029d565b6040516101019190610d49565b60405180910390f35b610124600480360381019061011f9190610e26565b6103ae565b6040516101319190610f19565b60405180910390f35b34801561014657600080fd5b5061014f61051c565b60405161015c9190610f4a565b60405180910390f35b34801561017157600080fd5b5061017a61053d565b60405161018993929190610f65565b60405180910390f35b60007f01ffc9a7000000000000000000000000000000000000000000000000000000007bffffffffffffffffffffffffffffffffffffffffffffffffffffffff1916827bffffffffffffffffffffffffffffffffffffffffffffffffffffffff1916148061025d57507f400a0398000000000000000000000000000000000000000000000000000000007bffffffffffffffffffffffffffffffffffffffffffffffffffffffff1916827bffffffffffffffffffffffffffffffffffffffffffffffffffffffff1916145b9050919050565b60008061027961027261029d565b8585610593565b9050801561029157631626ba7e60e01b915050610297565b60009150505b92915050565b6000806000803073ffffffffffffffffffffffffffffffffffffffff1663fc0c546a6040518163ffffffff1660e01b8152600401606060405180830381865afa1580156102ee573d6000803e3d6000fd5b505050506040513d601f19601f820116820180604052508101906103129190610fc6565b92509250925046831461032b57600093505050506103ab565b8173ffffffffffffffffffffffffffffffffffffffff16636352211e826040518263ffffffff1660e01b81526004016103649190610f4a565b602060405180830381865afa158015610381573d6000803e3d6000fd5b505050506040513d601f19601f820116820180604052508101906103a59190611019565b93505050505b90565b60606103b861029d565b73ffffffffffffffffffffffffffffffffffffffff163273ffffffffffffffffffffffffffffffffffffffff16148061042357506103f461029d565b73ffffffffffffffffffffffffffffffffffffffff163373ffffffffffffffffffffffffffffffffffffffff16145b610462576040517f08c379a0000000000000000000000000000000000000000000000000000000008152600401610459906110a3565b60405180910390fd5b60008573ffffffffffffffffffffffffffffffffffffffff1685858560405161048c9291906110f3565b60006040518083038185875af1925050503d80600081146104c9576040519150601f19603f3d011682016040523d82523d6000602084013e6104ce565b606091505b508093508192505050806104e457815160208301fd5b6000806104ef610622565b8152602001908152602001600020600081548092919061050e9061113b565b919050555050949350505050565b6000806000610529610622565b815260200190815260200160002054905090565b6000806000803073ffffffffffffffffffffffffffffffffffffffff163b90506105743060608361056e9190611183565b836106d0565b80602001905181019061058791906111f5565b93509350935050909192565b60008060006105a285856107b5565b91509150600060048111156105ba576105b9611248565b5b8160048111156105cd576105cc611248565b5b14801561060557508573ffffffffffffffffffffffffffffffffffffffff168273ffffffffffffffffffffffffffffffffffffffff16145b806106175750610616868686610806565b5b925050509392505050565b6000806000803073ffffffffffffffffffffffffffffffffffffffff1663fc0c546a6040518163ffffffff1660e01b8152600401606060405180830381865afa158015610673573d6000803e3d6000fd5b505050506040513d601f19601f820116820180604052508101906106979190610fc6565b9250925092508282826040516020016106b2939291906112e0565b60405160208183030381529060405280519060200120935050505090565b606060006106dd8561094a565b9050600081036106ff57604051806020016040528060008152509150506107ae565b8084111561071f57604051806020016040528060008152509150506107ae565b83831015610768578084846040517f2c4a89fa00000000000000000000000000000000000000000000000000000000815260040161075f9392919061131d565b60405180910390fd5b600084840390506000858303905060008282106107855782610787565b815b90506040519450601f19601f60208301011685016040528085528087602087018a3c505050505b9392505050565b60008060418351036107f65760008060006020860151925060408601519150606086015160001a90506107ea87828585610955565b945094505050506107ff565b60006002915091505b9250929050565b60008060008573ffffffffffffffffffffffffffffffffffffffff16631626ba7e60e01b868660405160240161083d929190611363565b604051602081830303815290604052907bffffffffffffffffffffffffffffffffffffffffffffffffffffffff19166020820180517bffffffffffffffffffffffffffffffffffffffffffffffffffffffff83818316178352505050506040516108a791906113c4565b600060405180830381855afa9150503d80600081146108e2576040519150601f19603f3d011682016040523d82523d6000602084013e6108e7565b606091505b50915091508180156108fb57506020815110155b801561093f5750631626ba7e60e01b7bffffffffffffffffffffffffffffffffffffffffffffffffffffffff19168180602001905181019061093d91906113f0565b145b925050509392505050565b6000813b9050919050565b6000807f7fffffffffffffffffffffffffffffff5d576e7357a4501ddfe92f46681b20a08360001c1115610990576000600391509150610a2e565b6000600187878787604051600081526020016040526040516109b59493929190611439565b6020604051602081039080840390855afa1580156109d7573d6000803e3d6000fd5b505050602060405103519050600073ffffffffffffffffffffffffffffffffffffffff168173ffffffffffffffffffffffffffffffffffffffff1603610a2557600060019250925050610a2e565b80600092509250505b94509492505050565b6000604051905090565b600080fd5b600080fd5b60007fffffffff0000000000000000000000000000000000000000000000000000000082169050919050565b610a8081610a4b565b8114610a8b57600080fd5b50565b600081359050610a9d81610a77565b92915050565b600060208284031215610ab957610ab8610a41565b5b6000610ac784828501610a8e565b91505092915050565b60008115159050919050565b610ae581610ad0565b82525050565b6000602082019050610b006000830184610adc565b92915050565b6000819050919050565b610b1981610b06565b8114610b2457600080fd5b50565b600081359050610b3681610b10565b92915050565b600080fd5b600080fd5b6000601f19601f8301169050919050565b7f4e487b7100000000000000000000000000000000000000000000000000000000600052604160045260246000fd5b610b8f82610b46565b810181811067ffffffffffffffff82111715610bae57610bad610b57565b5b80604052505050565b6000610bc1610a37565b9050610bcd8282610b86565b919050565b600067ffffffffffffffff821115610bed57610bec610b57565b5b610bf682610b46565b9050602081019050919050565b82818337600083830152505050565b6000610c25610c2084610bd2565b610bb7565b905082815260208101848484011115610c4157610c40610b41565b5b610c4c848285610c03565b509392505050565b600082601f830112610c6957610c68610b3c565b5b8135610c79848260208601610c12565b91505092915050565b60008060408385031215610c9957610c98610a41565b5b6000610ca785828601610b27565b925050602083013567ffffffffffffffff811115610cc857610cc7610a46565b5b610cd485828601610c54565b9150509250929050565b610ce781610a4b565b82525050565b6000602082019050610d026000830184610cde565b92915050565b600073ffffffffffffffffffffffffffffffffffffffff82169050919050565b6000610d3382610d08565b9050919050565b610d4381610d28565b82525050565b6000602082019050610d5e6000830184610d3a565b92915050565b610d6d81610d28565b8114610d7857600080fd5b50565b600081359050610d8a81610d64565b92915050565b6000819050919050565b610da381610d90565b8114610dae57600080fd5b50565b600081359050610dc081610d9a565b92915050565b600080fd5b600080fd5b60008083601f840112610de657610de5610b3c565b5b8235905067ffffffffffffffff811115610e0357610e02610dc6565b5b602083019150836001820283011115610e1f57610e1e610dcb565b5b9250929050565b60008060008060608587031215610e4057610e3f610a41565b5b6000610e4e87828801610d7b565b9450506020610e5f87828801610db1565b935050604085013567ffffffffffffffff811115610e8057610e7f610a46565b5b610e8c87828801610dd0565b925092505092959194509250565b600081519050919050565b600082825260208201905092915050565b60005b83811015610ed4578082015181840152602081019050610eb9565b60008484015250505050565b6000610eeb82610e9a565b610ef58185610ea5565b9350610f05818560208601610eb6565b610f0e81610b46565b840191505092915050565b60006020820190508181036000830152610f338184610ee0565b905092915050565b610f4481610d90565b82525050565b6000602082019050610f5f6000830184610f3b565b92915050565b6000606082019050610f7a6000830186610f3b565b610f876020830185610d3a565b610f946040830184610f3b565b949350505050565b600081519050610fab81610d9a565b92915050565b600081519050610fc081610d64565b92915050565b600080600060608486031215610fdf57610fde610a41565b5b6000610fed86828701610f9c565b9350506020610ffe86828701610fb1565b925050604061100f86828701610f9c565b9150509250925092565b60006020828403121561102f5761102e610a41565b5b600061103d84828501610fb1565b91505092915050565b600082825260208201905092915050565b7f4e6f7420746f6b656e206f776e65720000000000000000000000000000000000600082015250565b600061108d600f83611046565b915061109882611057565b602082019050919050565b600060208201905081810360008301526110bc81611080565b9050919050565b600081905092915050565b60006110da83856110c3565b93506110e7838584610c03565b82840190509392505050565b60006111008284866110ce565b91508190509392505050565b7f4e487b7100000000000000000000000000000000000000000000000000000000600052601160045260246000fd5b600061114682610d90565b91507fffffffffffffffffffffffffffffffffffffffffffffffffffffffffffffffff82036111785761117761110c565b5b600182019050919050565b600061118e82610d90565b915061119983610d90565b92508282039050818111156111b1576111b061110c565b5b92915050565b60006111c282610d08565b9050919050565b6111d2816111b7565b81146111dd57600080fd5b50565b6000815190506111ef816111c9565b92915050565b60008060006060848603121561120e5761120d610a41565b5b600061121c86828701610f9c565b935050602061122d868287016111e0565b925050604061123e86828701610f9c565b9150509250925092565b7f4e487b7100000000000000000000000000000000000000000000000000000000600052602160045260246000fd5b6000819050919050565b61129261128d82610d90565b611277565b82525050565b60008160601b9050919050565b60006112b082611298565b9050919050565b60006112c2826112a5565b9050919050565b6112da6112d582610d28565b6112b7565b82525050565b60006112ec8286611281565b6020820191506112fc82856112c9565b60148201915061130c8284611281565b602082019150819050949350505050565b60006060820190506113326000830186610f3b565b61133f6020830185610f3b565b61134c6040830184610f3b565b949350505050565b61135d81610b06565b82525050565b60006040820190506113786000830185611354565b818103602083015261138a8184610ee0565b90509392505050565b600061139e82610e9a565b6113a881856110c3565b93506113b8818560208601610eb6565b80840191505092915050565b60006113d08284611393565b915081905092915050565b6000815190506113ea81610b10565b92915050565b60006020828403121561140657611405610a41565b5b6000611414848285016113db565b91505092915050565b600060ff82169050919050565b6114338161141d565b82525050565b600060808201905061144e6000830187611354565b61145b602083018661142a565b6114686040830185611354565b6114756060830184611354565b9594505050505056fea26469706673582212202fc7dd8b5ee90e1d405dfb621bc3fa3c362f437c78a659562481bde50c9fb06264736f6c63430008140033",
  "linkReferences": {},
  "deployedLinkReferences": {}
}