{
  "_format": "hh-sol-artifact-1",
  "contractName": "CarStore",
  "sourceName": "contracts/systems/core/CarStore.sol",
  "abi": [
    {
      "inputs": [],
      "stateMutability": "nonpayable",
      "type": "constructor"
    },
    {
      "anonymous": false,
      "inputs": [
        {
          "indexed": false,
          "internalType": "address",
          "name": "previousAdmin",
          "type": "address"
        },
        {
          "indexed": false,
          "internalType": "address",
          "name": "newAdmin",
          "type": "address"
        }
      ],
      "name": "AdminChanged",
      "type": "event"
    },
    {
      "anonymous": false,
      "inputs": [
        {
          "indexed": true,
          "internalType": "address",
          "name": "beacon",
          "type": "address"
        }
      ],
      "name": "BeaconUpgraded",
      "type": "event"
    },
    {
      "anonymous": false,
      "inputs": [
        {
          "indexed": true,
          "internalType": "address",
          "name": "to",
          "type": "address"
        },
        {
          "indexed": true,
          "internalType": "uint256",
          "name": "tokenId",
          "type": "uint256"
        },
        {
          "indexed": false,
          "internalType": "address",
          "name": "account",
          "type": "address"
        }
      ],
      "name": "CarMint",
      "type": "event"
    },
    {
      "anonymous": false,
      "inputs": [
        {
          "indexed": false,
          "internalType": "uint8",
          "name": "version",
          "type": "uint8"
        }
      ],
      "name": "Initialized",
      "type": "event"
    },
    {
      "anonymous": false,
      "inputs": [
        {
          "indexed": false,
          "internalType": "address",
          "name": "account",
          "type": "address"
        }
      ],
      "name": "Paused",
      "type": "event"
    },
    {
      "anonymous": false,
      "inputs": [
        {
          "indexed": true,
          "internalType": "bytes32",
          "name": "role",
          "type": "bytes32"
        },
        {
          "indexed": true,
          "internalType": "bytes32",
          "name": "previousAdminRole",
          "type": "bytes32"
        },
        {
          "indexed": true,
          "internalType": "bytes32",
          "name": "newAdminRole",
          "type": "bytes32"
        }
      ],
      "name": "RoleAdminChanged",
      "type": "event"
    },
    {
      "anonymous": false,
      "inputs": [
        {
          "indexed": true,
          "internalType": "bytes32",
          "name": "role",
          "type": "bytes32"
        },
        {
          "indexed": true,
          "internalType": "address",
          "name": "account",
          "type": "address"
        },
        {
          "indexed": true,
          "internalType": "address",
          "name": "sender",
          "type": "address"
        }
      ],
      "name": "RoleGranted",
      "type": "event"
    },
    {
      "anonymous": false,
      "inputs": [
        {
          "indexed": true,
          "internalType": "bytes32",
          "name": "role",
          "type": "bytes32"
        },
        {
          "indexed": true,
          "internalType": "address",
          "name": "account",
          "type": "address"
        },
        {
          "indexed": true,
          "internalType": "address",
          "name": "sender",
          "type": "address"
        }
      ],
      "name": "RoleRevoked",
      "type": "event"
    },
    {
      "anonymous": false,
      "inputs": [
        {
          "indexed": false,
          "internalType": "address",
          "name": "account",
          "type": "address"
        }
      ],
      "name": "Unpaused",
      "type": "event"
    },
    {
      "anonymous": false,
      "inputs": [
        {
          "indexed": true,
          "internalType": "address",
          "name": "implementation",
          "type": "address"
        }
      ],
      "name": "Upgraded",
      "type": "event"
    },
    {
      "inputs": [],
      "name": "ADMIN_ROLE",
      "outputs": [
        {
          "internalType": "bytes32",
          "name": "",
          "type": "bytes32"
        }
      ],
      "stateMutability": "view",
      "type": "function"
    },
    {
      "inputs": [],
      "name": "DEFAULT_ADMIN_ROLE",
      "outputs": [
        {
          "internalType": "bytes32",
          "name": "",
          "type": "bytes32"
        }
      ],
      "stateMutability": "view",
      "type": "function"
    },
    {
      "inputs": [],
      "name": "PAUSER_ROLE",
      "outputs": [
        {
          "internalType": "bytes32",
          "name": "",
          "type": "bytes32"
        }
      ],
      "stateMutability": "view",
      "type": "function"
    },
    {
      "inputs": [],
      "name": "UPGRADER_ROLE",
      "outputs": [
        {
          "internalType": "bytes32",
          "name": "",
          "type": "bytes32"
        }
      ],
      "stateMutability": "view",
      "type": "function"
    },
    {
      "inputs": [],
      "name": "currentTokenId",
      "outputs": [
        {
          "internalType": "uint256",
          "name": "",
          "type": "uint256"
        }
      ],
      "stateMutability": "view",
      "type": "function"
    },
    {
      "inputs": [],
      "name": "get",
      "outputs": [
        {
          "internalType": "address",
          "name": "",
          "type": "address"
        },
        {
          "internalType": "address",
          "name": "",
          "type": "address"
        },
        {
          "internalType": "address",
          "name": "",
          "type": "address"
        }
      ],
      "stateMutability": "view",
      "type": "function"
    },
    {
      "inputs": [
        {
          "internalType": "bytes32",
          "name": "role",
          "type": "bytes32"
        }
      ],
      "name": "getRoleAdmin",
      "outputs": [
        {
          "internalType": "bytes32",
          "name": "",
          "type": "bytes32"
        }
      ],
      "stateMutability": "view",
      "type": "function"
    },
    {
      "inputs": [
        {
          "internalType": "bytes32",
          "name": "role",
          "type": "bytes32"
        },
        {
          "internalType": "uint256",
          "name": "index",
          "type": "uint256"
        }
      ],
      "name": "getRoleMember",
      "outputs": [
        {
          "internalType": "address",
          "name": "",
          "type": "address"
        }
      ],
      "stateMutability": "view",
      "type": "function"
    },
    {
      "inputs": [
        {
          "internalType": "bytes32",
          "name": "role",
          "type": "bytes32"
        }
      ],
      "name": "getRoleMemberCount",
      "outputs": [
        {
          "internalType": "uint256",
          "name": "",
          "type": "uint256"
        }
      ],
      "stateMutability": "view",
      "type": "function"
    },
    {
      "inputs": [
        {
          "internalType": "bytes32",
          "name": "role",
          "type": "bytes32"
        },
        {
          "internalType": "address",
          "name": "account",
          "type": "address"
        }
      ],
      "name": "grantRole",
      "outputs": [],
      "stateMutability": "nonpayable",
      "type": "function"
    },
    {
      "inputs": [
        {
          "internalType": "bytes32",
          "name": "role",
          "type": "bytes32"
        },
        {
          "internalType": "address",
          "name": "account",
          "type": "address"
        }
      ],
      "name": "hasRole",
      "outputs": [
        {
          "internalType": "bool",
          "name": "",
          "type": "bool"
        }
      ],
      "stateMutability": "view",
      "type": "function"
    },
    {
      "inputs": [
        {
          "internalType": "address",
          "name": "carERC721_",
          "type": "address"
        },
        {
          "internalType": "address",
          "name": "erc6551Registry_",
          "type": "address"
        },
        {
          "internalType": "address payable",
          "name": "erc6551Account_",
          "type": "address"
        }
      ],
      "name": "initialize",
      "outputs": [],
      "stateMutability": "nonpayable",
      "type": "function"
    },
    {
      "inputs": [],
      "name": "mint",
      "outputs": [
        {
          "internalType": "uint256",
          "name": "",
          "type": "uint256"
        }
      ],
      "stateMutability": "nonpayable",
      "type": "function"
    },
    {
      "inputs": [],
      "name": "paused",
      "outputs": [
        {
          "internalType": "bool",
          "name": "",
          "type": "bool"
        }
      ],
      "stateMutability": "view",
      "type": "function"
    },
    {
      "inputs": [],
      "name": "proxiableUUID",
      "outputs": [
        {
          "internalType": "bytes32",
          "name": "",
          "type": "bytes32"
        }
      ],
      "stateMutability": "view",
      "type": "function"
    },
    {
      "inputs": [
        {
          "internalType": "bytes32",
          "name": "role",
          "type": "bytes32"
        },
        {
          "internalType": "address",
          "name": "account",
          "type": "address"
        }
      ],
      "name": "renounceRole",
      "outputs": [],
      "stateMutability": "nonpayable",
      "type": "function"
    },
    {
      "inputs": [
        {
          "internalType": "bytes32",
          "name": "role",
          "type": "bytes32"
        },
        {
          "internalType": "address",
          "name": "account",
          "type": "address"
        }
      ],
      "name": "revokeRole",
      "outputs": [],
      "stateMutability": "nonpayable",
      "type": "function"
    },
    {
      "inputs": [
        {
          "internalType": "bytes4",
          "name": "interfaceId",
          "type": "bytes4"
        }
      ],
      "name": "supportsInterface",
      "outputs": [
        {
          "internalType": "bool",
          "name": "",
          "type": "bool"
        }
      ],
      "stateMutability": "view",
      "type": "function"
    },
    {
      "inputs": [
        {
          "internalType": "address",
          "name": "newImplementation",
          "type": "address"
        }
      ],
      "name": "upgradeTo",
      "outputs": [],
      "stateMutability": "nonpayable",
      "type": "function"
    },
    {
      "inputs": [
        {
          "internalType": "address",
          "name": "newImplementation",
          "type": "address"
        },
        {
          "internalType": "bytes",
          "name": "data",
          "type": "bytes"
        }
      ],
      "name": "upgradeToAndCall",
      "outputs": [],
      "stateMutability": "payable",
      "type": "function"
    }
  ],
  "bytecode": "0x60a06040523073ffffffffffffffffffffffffffffffffffffffff1660809073ffffffffffffffffffffffffffffffffffffffff168152503480156200004457600080fd5b50620000556200005b60201b60201c565b62000205565b600060019054906101000a900460ff1615620000ae576040517f08c379a0000000000000000000000000000000000000000000000000000000008152600401620000a590620001a8565b60405180910390fd5b60ff801660008054906101000a900460ff1660ff16146200011f5760ff6000806101000a81548160ff021916908360ff1602179055507f7f26b83ff96e1f2b6a682f133852f6798a09c465da95921460cefb384740249860ff604051620001169190620001e8565b60405180910390a15b565b600082825260208201905092915050565b7f496e697469616c697a61626c653a20636f6e747261637420697320696e69746960008201527f616c697a696e6700000000000000000000000000000000000000000000000000602082015250565b60006200019060278362000121565b91506200019d8262000132565b604082019050919050565b60006020820190508181036000830152620001c38162000181565b9050919050565b600060ff82169050919050565b620001e281620001ca565b82525050565b6000602082019050620001ff6000830184620001d7565b92915050565b6080516133446200023d60003960008181610929015281816109b701528181610ab101528181610b3f0152610bef01526133446000f3fe60806040526004361061011e5760003560e01c80636d4ce63c116100a0578063c0c53b8b11610064578063c0c53b8b146103dd578063ca15c87314610406578063d547741f14610443578063e63ab1e91461046c578063f72c0d8b146104975761011e565b80636d4ce63c146102e057806375b238fc1461030d5780639010d07c1461033857806391d1485414610375578063a217fddf146103b25761011e565b806336568abe116100e757806336568abe1461021c5780633659cfe6146102455780634f1ef2861461026e57806352d1902d1461028a5780635c975abb146102b55761011e565b80629a9b7b1461012357806301ffc9a71461014e5780631249c58b1461018b578063248a9ca3146101b65780632f2ff15d146101f3575b600080fd5b34801561012f57600080fd5b506101386104c2565b6040516101459190612147565b60405180910390f35b34801561015a57600080fd5b50610175600480360381019061017091906121ce565b6104e2565b6040516101829190612216565b60405180910390f35b34801561019757600080fd5b506101a061055c565b6040516101ad9190612147565b60405180910390f35b3480156101c257600080fd5b506101dd60048036038101906101d89190612267565b610863565b6040516101ea91906122a3565b60405180910390f35b3480156101ff57600080fd5b5061021a6004803603810190610215919061231c565b610883565b005b34801561022857600080fd5b50610243600480360381019061023e919061231c565b6108a4565b005b34801561025157600080fd5b5061026c6004803603810190610267919061235c565b610927565b005b610288600480360381019061028391906124cf565b610aaf565b005b34801561029657600080fd5b5061029f610beb565b6040516102ac91906122a3565b60405180910390f35b3480156102c157600080fd5b506102ca610ca4565b6040516102d79190612216565b60405180910390f35b3480156102ec57600080fd5b506102f5610cbb565b6040516103049392919061253a565b60405180910390f35b34801561031957600080fd5b50610322610d37565b60405161032f91906122a3565b60405180910390f35b34801561034457600080fd5b5061035f600480360381019061035a919061259d565b610d5b565b60405161036c91906125dd565b60405180910390f35b34801561038157600080fd5b5061039c6004803603810190610397919061231c565b610d8a565b6040516103a99190612216565b60405180910390f35b3480156103be57600080fd5b506103c7610df5565b6040516103d491906122a3565b60405180910390f35b3480156103e957600080fd5b5061040460048036038101906103ff9190612636565b610dfc565b005b34801561041257600080fd5b5061042d60048036038101906104289190612267565b61107e565b60405161043a9190612147565b60405180910390f35b34801561044f57600080fd5b5061046a6004803603810190610465919061231c565b6110a2565b005b34801561047857600080fd5b506104816110c3565b60405161048e91906122a3565b60405180910390f35b3480156104a357600080fd5b506104ac6110e7565b6040516104b991906122a3565b60405180910390f35b6000610195546104d361019461110b565b6104dd91906126b8565b905090565b60007f5a05180f000000000000000000000000000000000000000000000000000000007bffffffffffffffffffffffffffffffffffffffffffffffffffffffff1916827bffffffffffffffffffffffffffffffffffffffffffffffffffffffff19161480610555575061055482611119565b5b9050919050565b6000610566611193565b61056e6111dd565b60006105786104c2565b905061058561019461122c565b600061058f611242565b905061059b818361124a565b600061019360009054906101000a900473ffffffffffffffffffffffffffffffffffffffff1673ffffffffffffffffffffffffffffffffffffffff1663da7323b361019260009054906101000a900473ffffffffffffffffffffffffffffffffffffffff164661019160009054906101000a900473ffffffffffffffffffffffffffffffffffffffff168788600067ffffffffffffffff811115610642576106416123a4565b5b6040519080825280601f01601f1916602001820160405280156106745781602001600182028036833780820191505090505b506040518763ffffffff1660e01b81526004016106969695949392919061276b565b6020604051808303816000875af11580156106b5573d6000803e3d6000fd5b505050506040513d601f19601f820116820180604052508101906106d991906127e8565b9050600061019360009054906101000a900473ffffffffffffffffffffffffffffffffffffffff1673ffffffffffffffffffffffffffffffffffffffff16635e9bc53661019260009054906101000a900473ffffffffffffffffffffffffffffffffffffffff164661019160009054906101000a900473ffffffffffffffffffffffffffffffffffffffff1688896040518663ffffffff1660e01b8152600401610787959493929190612815565b602060405180830381865afa1580156107a4573d6000803e3d6000fd5b505050506040513d601f19601f820116820180604052508101906107c891906127e8565b90508073ffffffffffffffffffffffffffffffffffffffff168273ffffffffffffffffffffffffffffffffffffffff161461080257600080fd5b838373ffffffffffffffffffffffffffffffffffffffff167f24d7fa338c7656135dd55c11113d3f04b239cb3cf9a8d14fcc7814b22f066f478460405161084991906125dd565b60405180910390a3839450505050506108606112de565b90565b600060976000838152602001908152602001600020600101549050919050565b61088c82610863565b610895816112e8565b61089f83836112fc565b505050565b6108ac611242565b73ffffffffffffffffffffffffffffffffffffffff168173ffffffffffffffffffffffffffffffffffffffff1614610919576040517f08c379a0000000000000000000000000000000000000000000000000000000008152600401610910906128eb565b60405180910390fd5b6109238282611330565b5050565b7f000000000000000000000000000000000000000000000000000000000000000073ffffffffffffffffffffffffffffffffffffffff163073ffffffffffffffffffffffffffffffffffffffff16036109b5576040517f08c379a00000000000000000000000000000000000000000000000000000000081526004016109ac9061297d565b60405180910390fd5b7f000000000000000000000000000000000000000000000000000000000000000073ffffffffffffffffffffffffffffffffffffffff166109f4611364565b73ffffffffffffffffffffffffffffffffffffffff1614610a4a576040517f08c379a0000000000000000000000000000000000000000000000000000000008152600401610a4190612a0f565b60405180910390fd5b610a53816113bb565b610aac81600067ffffffffffffffff811115610a7257610a716123a4565b5b6040519080825280601f01601f191660200182016040528015610aa45781602001600182028036833780820191505090505b5060006113e9565b50565b7f000000000000000000000000000000000000000000000000000000000000000073ffffffffffffffffffffffffffffffffffffffff163073ffffffffffffffffffffffffffffffffffffffff1603610b3d576040517f08c379a0000000000000000000000000000000000000000000000000000000008152600401610b349061297d565b60405180910390fd5b7f000000000000000000000000000000000000000000000000000000000000000073ffffffffffffffffffffffffffffffffffffffff16610b7c611364565b73ffffffffffffffffffffffffffffffffffffffff1614610bd2576040517f08c379a0000000000000000000000000000000000000000000000000000000008152600401610bc990612a0f565b60405180910390fd5b610bdb826113bb565b610be7828260016113e9565b5050565b60007f000000000000000000000000000000000000000000000000000000000000000073ffffffffffffffffffffffffffffffffffffffff163073ffffffffffffffffffffffffffffffffffffffff1614610c7b576040517f08c379a0000000000000000000000000000000000000000000000000000000008152600401610c7290612aa1565b60405180910390fd5b7f360894a13ba1a3210667c828492db98dca3e2076cc3735a920a3ca505d382bbc60001b905090565b6000603360009054906101000a900460ff16905090565b600080600061019260009054906101000a900473ffffffffffffffffffffffffffffffffffffffff1661019160009054906101000a900473ffffffffffffffffffffffffffffffffffffffff1661019360009054906101000a900473ffffffffffffffffffffffffffffffffffffffff16925092509250909192565b7fa49807205ce4d355092ef5a8a18f56e8913cf4a201fbe287825b095693c2177581565b6000610d828260c9600086815260200190815260200160002061155790919063ffffffff16565b905092915050565b60006097600084815260200190815260200160002060000160008373ffffffffffffffffffffffffffffffffffffffff1673ffffffffffffffffffffffffffffffffffffffff16815260200190815260200160002060009054906101000a900460ff16905092915050565b6000801b81565b60008060019054906101000a900460ff16159050808015610e2d5750600160008054906101000a900460ff1660ff16105b80610e5a5750610e3c30611571565b158015610e595750600160008054906101000a900460ff1660ff16145b5b610e99576040517f08c379a0000000000000000000000000000000000000000000000000000000008152600401610e9090612b33565b60405180910390fd5b60016000806101000a81548160ff021916908360ff1602179055508015610ed6576001600060016101000a81548160ff0219169083151502179055505b8361019160006101000a81548173ffffffffffffffffffffffffffffffffffffffff021916908373ffffffffffffffffffffffffffffffffffffffff1602179055508261019360006101000a81548173ffffffffffffffffffffffffffffffffffffffff021916908373ffffffffffffffffffffffffffffffffffffffff1602179055508161019260006101000a81548173ffffffffffffffffffffffffffffffffffffffff021916908373ffffffffffffffffffffffffffffffffffffffff160217905550610fa4611594565b610fac6115ed565b610fb461163e565b610fc16000801b336112fc565b610feb7f65d7a28e3265b37a6474929f336521b332c1681b933f6cb9f3376673440d862a336112fc565b6110157f189ab7a9244df0848122154315af71fe140f3db0fe014031783b0946b8c9d2e3336112fc565b6103e86101958190555080156110785760008060016101000a81548160ff0219169083151502179055507f7f26b83ff96e1f2b6a682f133852f6798a09c465da95921460cefb3847402498600160405161106f9190612ba5565b60405180910390a15b50505050565b600061109b60c9600084815260200190815260200160002061168f565b9050919050565b6110ab82610863565b6110b4816112e8565b6110be8383611330565b505050565b7f65d7a28e3265b37a6474929f336521b332c1681b933f6cb9f3376673440d862a81565b7f189ab7a9244df0848122154315af71fe140f3db0fe014031783b0946b8c9d2e381565b600081600001549050919050565b60007f7965db0b000000000000000000000000000000000000000000000000000000007bffffffffffffffffffffffffffffffffffffffffffffffffffffffff1916827bffffffffffffffffffffffffffffffffffffffffffffffffffffffff1916148061118c575061118b826116a4565b5b9050919050565b61119b610ca4565b156111db576040517f08c379a00000000000000000000000000000000000000000000000000000000081526004016111d290612c0c565b60405180910390fd5b565b600260fb5403611222576040517f08c379a000000000000000000000000000000000000000000000000000000000815260040161121990612c78565b60405180910390fd5b600260fb81905550565b6001816000016000828254019250508190555050565b600033905090565b61019160009054906101000a900473ffffffffffffffffffffffffffffffffffffffff1673ffffffffffffffffffffffffffffffffffffffff1663a144819483836040518363ffffffff1660e01b81526004016112a8929190612c98565b600060405180830381600087803b1580156112c257600080fd5b505af11580156112d6573d6000803e3d6000fd5b505050505050565b600160fb81905550565b6112f9816112f4611242565b61170e565b50565b6113068282611793565b61132b8160c9600085815260200190815260200160002061187490919063ffffffff16565b505050565b61133a82826118a4565b61135f8160c9600085815260200190815260200160002061198690919063ffffffff16565b505050565b60006113927f360894a13ba1a3210667c828492db98dca3e2076cc3735a920a3ca505d382bbc60001b6119b6565b60000160009054906101000a900473ffffffffffffffffffffffffffffffffffffffff16905090565b7f189ab7a9244df0848122154315af71fe140f3db0fe014031783b0946b8c9d2e36113e5816112e8565b5050565b6114157f4910fdfa16fed3260ed0e7147f7cc6da11a60208b5b9406d12a635614ffd914360001b6119c0565b60000160009054906101000a900460ff161561143957611434836119ca565b611552565b8273ffffffffffffffffffffffffffffffffffffffff166352d1902d6040518163ffffffff1660e01b8152600401602060405180830381865afa9250505080156114a157506040513d601f19601f8201168201806040525081019061149e9190612cd6565b60015b6114e0576040517f08c379a00000000000000000000000000000000000000000000000000000000081526004016114d790612d75565b60405180910390fd5b7f360894a13ba1a3210667c828492db98dca3e2076cc3735a920a3ca505d382bbc60001b8114611545576040517f08c379a000000000000000000000000000000000000000000000000000000000815260040161153c90612e07565b60405180910390fd5b50611551838383611a83565b5b505050565b60006115668360000183611aaf565b60001c905092915050565b6000808273ffffffffffffffffffffffffffffffffffffffff163b119050919050565b600060019054906101000a900460ff166115e3576040517f08c379a00000000000000000000000000000000000000000000000000000000081526004016115da90612e99565b60405180910390fd5b6115eb611ada565b565b600060019054906101000a900460ff1661163c576040517f08c379a000000000000000000000000000000000000000000000000000000000815260040161163390612e99565b60405180910390fd5b565b600060019054906101000a900460ff1661168d576040517f08c379a000000000000000000000000000000000000000000000000000000000815260040161168490612e99565b60405180910390fd5b565b600061169d82600001611b46565b9050919050565b60007f01ffc9a7000000000000000000000000000000000000000000000000000000007bffffffffffffffffffffffffffffffffffffffffffffffffffffffff1916827bffffffffffffffffffffffffffffffffffffffffffffffffffffffff1916149050919050565b6117188282610d8a565b61178f5761172581611b57565b6117338360001c6020611b84565b604051602001611744929190612f98565b6040516020818303038152906040526040517f08c379a0000000000000000000000000000000000000000000000000000000008152600401611786919061300b565b60405180910390fd5b5050565b61179d8282610d8a565b6118705760016097600084815260200190815260200160002060000160008373ffffffffffffffffffffffffffffffffffffffff1673ffffffffffffffffffffffffffffffffffffffff16815260200190815260200160002060006101000a81548160ff021916908315150217905550611815611242565b73ffffffffffffffffffffffffffffffffffffffff168173ffffffffffffffffffffffffffffffffffffffff16837f2f8788117e7eff1d82e926ec794901d17c78024a50270940304540a733656f0d60405160405180910390a45b5050565b600061189c836000018373ffffffffffffffffffffffffffffffffffffffff1660001b611dc0565b905092915050565b6118ae8282610d8a565b156119825760006097600084815260200190815260200160002060000160008373ffffffffffffffffffffffffffffffffffffffff1673ffffffffffffffffffffffffffffffffffffffff16815260200190815260200160002060006101000a81548160ff021916908315150217905550611927611242565b73ffffffffffffffffffffffffffffffffffffffff168173ffffffffffffffffffffffffffffffffffffffff16837ff6391f5c32d9c69d2a47ea670b442974b53935d1edc7fd64eb21e047a839171b60405160405180910390a45b5050565b60006119ae836000018373ffffffffffffffffffffffffffffffffffffffff1660001b611e30565b905092915050565b6000819050919050565b6000819050919050565b6119d381611571565b611a12576040517f08c379a0000000000000000000000000000000000000000000000000000000008152600401611a099061309f565b60405180910390fd5b80611a3f7f360894a13ba1a3210667c828492db98dca3e2076cc3735a920a3ca505d382bbc60001b6119b6565b60000160006101000a81548173ffffffffffffffffffffffffffffffffffffffff021916908373ffffffffffffffffffffffffffffffffffffffff16021790555050565b611a8c83611f44565b600082511180611a995750805b15611aaa57611aa88383611f93565b505b505050565b6000826000018281548110611ac757611ac66130bf565b5b9060005260206000200154905092915050565b600060019054906101000a900460ff16611b29576040517f08c379a0000000000000000000000000000000000000000000000000000000008152600401611b2090612e99565b60405180910390fd5b6000603360006101000a81548160ff021916908315150217905550565b600081600001805490509050919050565b6060611b7d8273ffffffffffffffffffffffffffffffffffffffff16601460ff16611b84565b9050919050565b606060006002836002611b9791906130ee565b611ba191906126b8565b67ffffffffffffffff811115611bba57611bb96123a4565b5b6040519080825280601f01601f191660200182016040528015611bec5781602001600182028036833780820191505090505b5090507f300000000000000000000000000000000000000000000000000000000000000081600081518110611c2457611c236130bf565b5b60200101907effffffffffffffffffffffffffffffffffffffffffffffffffffffffffffff1916908160001a9053507f780000000000000000000000000000000000000000000000000000000000000081600181518110611c8857611c876130bf565b5b60200101907effffffffffffffffffffffffffffffffffffffffffffffffffffffffffffff1916908160001a90535060006001846002611cc891906130ee565b611cd291906126b8565b90505b6001811115611d72577f3031323334353637383961626364656600000000000000000000000000000000600f861660108110611d1457611d136130bf565b5b1a60f81b828281518110611d2b57611d2a6130bf565b5b60200101907effffffffffffffffffffffffffffffffffffffffffffffffffffffffffffff1916908160001a905350600485901c945080611d6b90613130565b9050611cd5565b5060008414611db6576040517f08c379a0000000000000000000000000000000000000000000000000000000008152600401611dad906131a5565b60405180910390fd5b8091505092915050565b6000611dcc8383611fc0565b611e25578260000182908060018154018082558091505060019003906000526020600020016000909190919091505582600001805490508360010160008481526020019081526020016000208190555060019050611e2a565b600090505b92915050565b60008083600101600084815260200190815260200160002054905060008114611f38576000600182611e6291906131c5565b9050600060018660000180549050611e7a91906131c5565b9050818114611ee9576000866000018281548110611e9b57611e9a6130bf565b5b9060005260206000200154905080876000018481548110611ebf57611ebe6130bf565b5b90600052602060002001819055508387600101600083815260200190815260200160002081905550505b85600001805480611efd57611efc6131f9565b5b600190038181906000526020600020016000905590558560010160008681526020019081526020016000206000905560019350505050611f3e565b60009150505b92915050565b611f4d816119ca565b8073ffffffffffffffffffffffffffffffffffffffff167fbc7cd75a20ee27fd9adebab32041f755214dbc6bffa90cc0225b39da2e5c2d3b60405160405180910390a250565b6060611fb883836040518060600160405280602781526020016132e860279139611fe3565b905092915050565b600080836001016000848152602001908152602001600020541415905092915050565b60606000808573ffffffffffffffffffffffffffffffffffffffff168560405161200d9190613264565b600060405180830381855af49150503d8060008114612048576040519150601f19603f3d011682016040523d82523d6000602084013e61204d565b606091505b509150915061205e86838387612069565b925050509392505050565b606083156120cb5760008351036120c35761208385611571565b6120c2576040517f08c379a00000000000000000000000000000000000000000000000000000000081526004016120b9906132c7565b60405180910390fd5b5b8290506120d6565b6120d583836120de565b5b949350505050565b6000825111156120f15781518083602001fd5b806040517f08c379a0000000000000000000000000000000000000000000000000000000008152600401612125919061300b565b60405180910390fd5b6000819050919050565b6121418161212e565b82525050565b600060208201905061215c6000830184612138565b92915050565b6000604051905090565b600080fd5b600080fd5b60007fffffffff0000000000000000000000000000000000000000000000000000000082169050919050565b6121ab81612176565b81146121b657600080fd5b50565b6000813590506121c8816121a2565b92915050565b6000602082840312156121e4576121e361216c565b5b60006121f2848285016121b9565b91505092915050565b60008115159050919050565b612210816121fb565b82525050565b600060208201905061222b6000830184612207565b92915050565b6000819050919050565b61224481612231565b811461224f57600080fd5b50565b6000813590506122618161223b565b92915050565b60006020828403121561227d5761227c61216c565b5b600061228b84828501612252565b91505092915050565b61229d81612231565b82525050565b60006020820190506122b86000830184612294565b92915050565b600073ffffffffffffffffffffffffffffffffffffffff82169050919050565b60006122e9826122be565b9050919050565b6122f9816122de565b811461230457600080fd5b50565b600081359050612316816122f0565b92915050565b600080604083850312156123335761233261216c565b5b600061234185828601612252565b925050602061235285828601612307565b9150509250929050565b6000602082840312156123725761237161216c565b5b600061238084828501612307565b91505092915050565b600080fd5b600080fd5b6000601f19601f8301169050919050565b7f4e487b7100000000000000000000000000000000000000000000000000000000600052604160045260246000fd5b6123dc82612393565b810181811067ffffffffffffffff821117156123fb576123fa6123a4565b5b80604052505050565b600061240e612162565b905061241a82826123d3565b919050565b600067ffffffffffffffff82111561243a576124396123a4565b5b61244382612393565b9050602081019050919050565b82818337600083830152505050565b600061247261246d8461241f565b612404565b90508281526020810184848401111561248e5761248d61238e565b5b612499848285612450565b509392505050565b600082601f8301126124b6576124b5612389565b5b81356124c684826020860161245f565b91505092915050565b600080604083850312156124e6576124e561216c565b5b60006124f485828601612307565b925050602083013567ffffffffffffffff81111561251557612514612171565b5b612521858286016124a1565b9150509250929050565b612534816122de565b82525050565b600060608201905061254f600083018661252b565b61255c602083018561252b565b612569604083018461252b565b949350505050565b61257a8161212e565b811461258557600080fd5b50565b60008135905061259781612571565b92915050565b600080604083850312156125b4576125b361216c565b5b60006125c285828601612252565b92505060206125d385828601612588565b9150509250929050565b60006020820190506125f2600083018461252b565b92915050565b6000612603826122be565b9050919050565b612613816125f8565b811461261e57600080fd5b50565b6000813590506126308161260a565b92915050565b60008060006060848603121561264f5761264e61216c565b5b600061265d86828701612307565b935050602061266e86828701612307565b925050604061267f86828701612621565b9150509250925092565b7f4e487b7100000000000000000000000000000000000000000000000000000000600052601160045260246000fd5b60006126c38261212e565b91506126ce8361212e565b92508282019050808211156126e6576126e5612689565b5b92915050565b600081519050919050565b600082825260208201905092915050565b60005b8381101561272657808201518184015260208101905061270b565b60008484015250505050565b600061273d826126ec565b61274781856126f7565b9350612757818560208601612708565b61276081612393565b840191505092915050565b600060c082019050612780600083018961252b565b61278d6020830188612138565b61279a604083018761252b565b6127a76060830186612138565b6127b46080830185612138565b81810360a08301526127c68184612732565b9050979650505050505050565b6000815190506127e2816122f0565b92915050565b6000602082840312156127fe576127fd61216c565b5b600061280c848285016127d3565b91505092915050565b600060a08201905061282a600083018861252b565b6128376020830187612138565b612844604083018661252b565b6128516060830185612138565b61285e6080830184612138565b9695505050505050565b600082825260208201905092915050565b7f416363657373436f6e74726f6c3a2063616e206f6e6c792072656e6f756e636560008201527f20726f6c657320666f722073656c660000000000000000000000000000000000602082015250565b60006128d5602f83612868565b91506128e082612879565b604082019050919050565b60006020820190508181036000830152612904816128c8565b9050919050565b7f46756e6374696f6e206d7573742062652063616c6c6564207468726f7567682060008201527f64656c656761746563616c6c0000000000000000000000000000000000000000602082015250565b6000612967602c83612868565b91506129728261290b565b604082019050919050565b600060208201905081810360008301526129968161295a565b9050919050565b7f46756e6374696f6e206d7573742062652063616c6c6564207468726f7567682060008201527f6163746976652070726f78790000000000000000000000000000000000000000602082015250565b60006129f9602c83612868565b9150612a048261299d565b604082019050919050565b60006020820190508181036000830152612a28816129ec565b9050919050565b7f555550535570677261646561626c653a206d757374206e6f742062652063616c60008201527f6c6564207468726f7567682064656c656761746563616c6c0000000000000000602082015250565b6000612a8b603883612868565b9150612a9682612a2f565b604082019050919050565b60006020820190508181036000830152612aba81612a7e565b9050919050565b7f496e697469616c697a61626c653a20636f6e747261637420697320616c72656160008201527f647920696e697469616c697a6564000000000000000000000000000000000000602082015250565b6000612b1d602e83612868565b9150612b2882612ac1565b604082019050919050565b60006020820190508181036000830152612b4c81612b10565b9050919050565b6000819050919050565b600060ff82169050919050565b6000819050919050565b6000612b8f612b8a612b8584612b53565b612b6a565b612b5d565b9050919050565b612b9f81612b74565b82525050565b6000602082019050612bba6000830184612b96565b92915050565b7f5061757361626c653a2070617573656400000000000000000000000000000000600082015250565b6000612bf6601083612868565b9150612c0182612bc0565b602082019050919050565b60006020820190508181036000830152612c2581612be9565b9050919050565b7f5265656e7472616e637947756172643a207265656e7472616e742063616c6c00600082015250565b6000612c62601f83612868565b9150612c6d82612c2c565b602082019050919050565b60006020820190508181036000830152612c9181612c55565b9050919050565b6000604082019050612cad600083018561252b565b612cba6020830184612138565b9392505050565b600081519050612cd08161223b565b92915050565b600060208284031215612cec57612ceb61216c565b5b6000612cfa84828501612cc1565b91505092915050565b7f45524331393637557067726164653a206e657720696d706c656d656e7461746960008201527f6f6e206973206e6f742055555053000000000000000000000000000000000000602082015250565b6000612d5f602e83612868565b9150612d6a82612d03565b604082019050919050565b60006020820190508181036000830152612d8e81612d52565b9050919050565b7f45524331393637557067726164653a20756e737570706f727465642070726f7860008201527f6961626c65555549440000000000000000000000000000000000000000000000602082015250565b6000612df1602983612868565b9150612dfc82612d95565b604082019050919050565b60006020820190508181036000830152612e2081612de4565b9050919050565b7f496e697469616c697a61626c653a20636f6e7472616374206973206e6f74206960008201527f6e697469616c697a696e67000000000000000000000000000000000000000000602082015250565b6000612e83602b83612868565b9150612e8e82612e27565b604082019050919050565b60006020820190508181036000830152612eb281612e76565b9050919050565b600081905092915050565b7f416363657373436f6e74726f6c3a206163636f756e7420000000000000000000600082015250565b6000612efa601783612eb9565b9150612f0582612ec4565b601782019050919050565b600081519050919050565b6000612f2682612f10565b612f308185612eb9565b9350612f40818560208601612708565b80840191505092915050565b7f206973206d697373696e6720726f6c6520000000000000000000000000000000600082015250565b6000612f82601183612eb9565b9150612f8d82612f4c565b601182019050919050565b6000612fa382612eed565b9150612faf8285612f1b565b9150612fba82612f75565b9150612fc68284612f1b565b91508190509392505050565b6000612fdd82612f10565b612fe78185612868565b9350612ff7818560208601612708565b61300081612393565b840191505092915050565b600060208201905081810360008301526130258184612fd2565b905092915050565b7f455243313936373a206e657720696d706c656d656e746174696f6e206973206e60008201527f6f74206120636f6e747261637400000000000000000000000000000000000000602082015250565b6000613089602d83612868565b91506130948261302d565b604082019050919050565b600060208201905081810360008301526130b88161307c565b9050919050565b7f4e487b7100000000000000000000000000000000000000000000000000000000600052603260045260246000fd5b60006130f98261212e565b91506131048361212e565b92508282026131128161212e565b9150828204841483151761312957613128612689565b5b5092915050565b600061313b8261212e565b91506000820361314e5761314d612689565b5b600182039050919050565b7f537472696e67733a20686578206c656e67746820696e73756666696369656e74600082015250565b600061318f602083612868565b915061319a82613159565b602082019050919050565b600060208201905081810360008301526131be81613182565b9050919050565b60006131d08261212e565b91506131db8361212e565b92508282039050818111156131f3576131f2612689565b5b92915050565b7f4e487b7100000000000000000000000000000000000000000000000000000000600052603160045260246000fd5b600081905092915050565b600061323e826126ec565b6132488185613228565b9350613258818560208601612708565b80840191505092915050565b60006132708284613233565b915081905092915050565b7f416464726573733a2063616c6c20746f206e6f6e2d636f6e7472616374000000600082015250565b60006132b1601d83612868565b91506132bc8261327b565b602082019050919050565b600060208201905081810360008301526132e0816132a4565b905091905056fe416464726573733a206c6f772d6c6576656c2064656c65676174652063616c6c206661696c6564a26469706673582212208f833d3c2d9a3aed2f7a0f6890b00ca63f1dfa18a9d71e5f4cbd3fc45b90098364736f6c63430008140033",
  "linkReferences": {},
  "deployedLinkReferences": {}
}