{
  "_format": "hh-sol-artifact-1",
  "contractName": "CarERC721",
  "sourceName": "contracts/tokens/CarERC721.sol",
  "abi": [
    {
      "inputs": [],
      "stateMutability": "nonpayable",
      "type": "constructor"
    },
    {
      "anonymous": false,
      "inputs": [
        {
          "indexed": false,
          "internalType": "address",
          "name": "previousAdmin",
          "type": "address"
        },
        {
          "indexed": false,
          "internalType": "address",
          "name": "newAdmin",
          "type": "address"
        }
      ],
      "name": "AdminChanged",
      "type": "event"
    },
    {
      "anonymous": false,
      "inputs": [
        {
          "indexed": true,
          "internalType": "address",
          "name": "owner",
          "type": "address"
        },
        {
          "indexed": true,
          "internalType": "address",
          "name": "approved",
          "type": "address"
        },
        {
          "indexed": true,
          "internalType": "uint256",
          "name": "tokenId",
          "type": "uint256"
        }
      ],
      "name": "Approval",
      "type": "event"
    },
    {
      "anonymous": false,
      "inputs": [
        {
          "indexed": true,
          "internalType": "address",
          "name": "owner",
          "type": "address"
        },
        {
          "indexed": true,
          "internalType": "address",
          "name": "operator",
          "type": "address"
        },
        {
          "indexed": false,
          "internalType": "bool",
          "name": "approved",
          "type": "bool"
        }
      ],
      "name": "ApprovalForAll",
      "type": "event"
    },
    {
      "anonymous": false,
      "inputs": [
        {
          "indexed": true,
          "internalType": "address",
          "name": "beacon",
          "type": "address"
        }
      ],
      "name": "BeaconUpgraded",
      "type": "event"
    },
    {
      "anonymous": false,
      "inputs": [
        {
          "indexed": false,
          "internalType": "uint8",
          "name": "version",
          "type": "uint8"
        }
      ],
      "name": "Initialized",
      "type": "event"
    },
    {
      "anonymous": false,
      "inputs": [
        {
          "indexed": false,
          "internalType": "address",
          "name": "account",
          "type": "address"
        }
      ],
      "name": "Paused",
      "type": "event"
    },
    {
      "anonymous": false,
      "inputs": [
        {
          "indexed": true,
          "internalType": "bytes32",
          "name": "role",
          "type": "bytes32"
        },
        {
          "indexed": true,
          "internalType": "bytes32",
          "name": "previousAdminRole",
          "type": "bytes32"
        },
        {
          "indexed": true,
          "internalType": "bytes32",
          "name": "newAdminRole",
          "type": "bytes32"
        }
      ],
      "name": "RoleAdminChanged",
      "type": "event"
    },
    {
      "anonymous": false,
      "inputs": [
        {
          "indexed": true,
          "internalType": "bytes32",
          "name": "role",
          "type": "bytes32"
        },
        {
          "indexed": true,
          "internalType": "address",
          "name": "account",
          "type": "address"
        },
        {
          "indexed": true,
          "internalType": "address",
          "name": "sender",
          "type": "address"
        }
      ],
      "name": "RoleGranted",
      "type": "event"
    },
    {
      "anonymous": false,
      "inputs": [
        {
          "indexed": true,
          "internalType": "bytes32",
          "name": "role",
          "type": "bytes32"
        },
        {
          "indexed": true,
          "internalType": "address",
          "name": "account",
          "type": "address"
        },
        {
          "indexed": true,
          "internalType": "address",
          "name": "sender",
          "type": "address"
        }
      ],
      "name": "RoleRevoked",
      "type": "event"
    },
    {
      "anonymous": false,
      "inputs": [
        {
          "indexed": true,
          "internalType": "address",
          "name": "from",
          "type": "address"
        },
        {
          "indexed": true,
          "internalType": "address",
          "name": "to",
          "type": "address"
        },
        {
          "indexed": true,
          "internalType": "uint256",
          "name": "tokenId",
          "type": "uint256"
        }
      ],
      "name": "Transfer",
      "type": "event"
    },
    {
      "anonymous": false,
      "inputs": [
        {
          "indexed": false,
          "internalType": "address",
          "name": "account",
          "type": "address"
        }
      ],
      "name": "Unpaused",
      "type": "event"
    },
    {
      "anonymous": false,
      "inputs": [
        {
          "indexed": true,
          "internalType": "address",
          "name": "implementation",
          "type": "address"
        }
      ],
      "name": "Upgraded",
      "type": "event"
    },
    {
      "inputs": [],
      "name": "DEFAULT_ADMIN_ROLE",
      "outputs": [
        {
          "internalType": "bytes32",
          "name": "",
          "type": "bytes32"
        }
      ],
      "stateMutability": "view",
      "type": "function"
    },
    {
      "inputs": [],
      "name": "MINTER_ROLE",
      "outputs": [
        {
          "internalType": "bytes32",
          "name": "",
          "type": "bytes32"
        }
      ],
      "stateMutability": "view",
      "type": "function"
    },
    {
      "inputs": [],
      "name": "PAUSER_ROLE",
      "outputs": [
        {
          "internalType": "bytes32",
          "name": "",
          "type": "bytes32"
        }
      ],
      "stateMutability": "view",
      "type": "function"
    },
    {
      "inputs": [],
      "name": "UPGRADER_ROLE",
      "outputs": [
        {
          "internalType": "bytes32",
          "name": "",
          "type": "bytes32"
        }
      ],
      "stateMutability": "view",
      "type": "function"
    },
    {
      "inputs": [
        {
          "internalType": "address",
          "name": "to",
          "type": "address"
        },
        {
          "internalType": "uint256",
          "name": "tokenId",
          "type": "uint256"
        }
      ],
      "name": "approve",
      "outputs": [],
      "stateMutability": "nonpayable",
      "type": "function"
    },
    {
      "inputs": [
        {
          "internalType": "address",
          "name": "owner",
          "type": "address"
        }
      ],
      "name": "balanceOf",
      "outputs": [
        {
          "internalType": "uint256",
          "name": "",
          "type": "uint256"
        }
      ],
      "stateMutability": "view",
      "type": "function"
    },
    {
      "inputs": [],
      "name": "baseMaxTime",
      "outputs": [
        {
          "internalType": "uint256",
          "name": "",
          "type": "uint256"
        }
      ],
      "stateMutability": "view",
      "type": "function"
    },
    {
      "inputs": [],
      "name": "baseSpeed",
      "outputs": [
        {
          "internalType": "uint256",
          "name": "",
          "type": "uint256"
        }
      ],
      "stateMutability": "view",
      "type": "function"
    },
    {
      "inputs": [
        {
          "internalType": "uint256",
          "name": "tokenId",
          "type": "uint256"
        }
      ],
      "name": "getApproved",
      "outputs": [
        {
          "internalType": "address",
          "name": "",
          "type": "address"
        }
      ],
      "stateMutability": "view",
      "type": "function"
    },
    {
      "inputs": [
        {
          "internalType": "bytes32",
          "name": "role",
          "type": "bytes32"
        }
      ],
      "name": "getRoleAdmin",
      "outputs": [
        {
          "internalType": "bytes32",
          "name": "",
          "type": "bytes32"
        }
      ],
      "stateMutability": "view",
      "type": "function"
    },
    {
      "inputs": [
        {
          "internalType": "bytes32",
          "name": "role",
          "type": "bytes32"
        },
        {
          "internalType": "uint256",
          "name": "index",
          "type": "uint256"
        }
      ],
      "name": "getRoleMember",
      "outputs": [
        {
          "internalType": "address",
          "name": "",
          "type": "address"
        }
      ],
      "stateMutability": "view",
      "type": "function"
    },
    {
      "inputs": [
        {
          "internalType": "bytes32",
          "name": "role",
          "type": "bytes32"
        }
      ],
      "name": "getRoleMemberCount",
      "outputs": [
        {
          "internalType": "uint256",
          "name": "",
          "type": "uint256"
        }
      ],
      "stateMutability": "view",
      "type": "function"
    },
    {
      "inputs": [
        {
          "internalType": "bytes32",
          "name": "role",
          "type": "bytes32"
        },
        {
          "internalType": "address",
          "name": "account",
          "type": "address"
        }
      ],
      "name": "grantRole",
      "outputs": [],
      "stateMutability": "nonpayable",
      "type": "function"
    },
    {
      "inputs": [
        {
          "internalType": "bytes32",
          "name": "role",
          "type": "bytes32"
        },
        {
          "internalType": "address",
          "name": "account",
          "type": "address"
        }
      ],
      "name": "hasRole",
      "outputs": [
        {
          "internalType": "bool",
          "name": "",
          "type": "bool"
        }
      ],
      "stateMutability": "view",
      "type": "function"
    },
    {
      "inputs": [],
      "name": "initialize",
      "outputs": [],
      "stateMutability": "nonpayable",
      "type": "function"
    },
    {
      "inputs": [
        {
          "internalType": "address",
          "name": "owner",
          "type": "address"
        },
        {
          "internalType": "address",
          "name": "operator",
          "type": "address"
        }
      ],
      "name": "isApprovedForAll",
      "outputs": [
        {
          "internalType": "bool",
          "name": "",
          "type": "bool"
        }
      ],
      "stateMutability": "view",
      "type": "function"
    },
    {
      "inputs": [],
      "name": "name",
      "outputs": [
        {
          "internalType": "string",
          "name": "",
          "type": "string"
        }
      ],
      "stateMutability": "view",
      "type": "function"
    },
    {
      "inputs": [
        {
          "internalType": "uint256",
          "name": "tokenId",
          "type": "uint256"
        }
      ],
      "name": "ownerOf",
      "outputs": [
        {
          "internalType": "address",
          "name": "",
          "type": "address"
        }
      ],
      "stateMutability": "view",
      "type": "function"
    },
    {
      "inputs": [],
      "name": "pause",
      "outputs": [],
      "stateMutability": "nonpayable",
      "type": "function"
    },
    {
      "inputs": [],
      "name": "paused",
      "outputs": [
        {
          "internalType": "bool",
          "name": "",
          "type": "bool"
        }
      ],
      "stateMutability": "view",
      "type": "function"
    },
    {
      "inputs": [],
      "name": "proxiableUUID",
      "outputs": [
        {
          "internalType": "bytes32",
          "name": "",
          "type": "bytes32"
        }
      ],
      "stateMutability": "view",
      "type": "function"
    },
    {
      "inputs": [
        {
          "internalType": "bytes32",
          "name": "role",
          "type": "bytes32"
        },
        {
          "internalType": "address",
          "name": "account",
          "type": "address"
        }
      ],
      "name": "renounceRole",
      "outputs": [],
      "stateMutability": "nonpayable",
      "type": "function"
    },
    {
      "inputs": [
        {
          "internalType": "bytes32",
          "name": "role",
          "type": "bytes32"
        },
        {
          "internalType": "address",
          "name": "account",
          "type": "address"
        }
      ],
      "name": "revokeRole",
      "outputs": [],
      "stateMutability": "nonpayable",
      "type": "function"
    },
    {
      "inputs": [
        {
          "internalType": "address",
          "name": "to",
          "type": "address"
        },
        {
          "internalType": "uint256",
          "name": "tokenId",
          "type": "uint256"
        }
      ],
      "name": "safeMint",
      "outputs": [],
      "stateMutability": "nonpayable",
      "type": "function"
    },
    {
      "inputs": [
        {
          "internalType": "address",
          "name": "from",
          "type": "address"
        },
        {
          "internalType": "address",
          "name": "to",
          "type": "address"
        },
        {
          "internalType": "uint256",
          "name": "tokenId",
          "type": "uint256"
        }
      ],
      "name": "safeTransferFrom",
      "outputs": [],
      "stateMutability": "nonpayable",
      "type": "function"
    },
    {
      "inputs": [
        {
          "internalType": "address",
          "name": "from",
          "type": "address"
        },
        {
          "internalType": "address",
          "name": "to",
          "type": "address"
        },
        {
          "internalType": "uint256",
          "name": "tokenId",
          "type": "uint256"
        },
        {
          "internalType": "bytes",
          "name": "data",
          "type": "bytes"
        }
      ],
      "name": "safeTransferFrom",
      "outputs": [],
      "stateMutability": "nonpayable",
      "type": "function"
    },
    {
      "inputs": [
        {
          "internalType": "address",
          "name": "operator",
          "type": "address"
        },
        {
          "internalType": "bool",
          "name": "approved",
          "type": "bool"
        }
      ],
      "name": "setApprovalForAll",
      "outputs": [],
      "stateMutability": "nonpayable",
      "type": "function"
    },
    {
      "inputs": [
        {
          "internalType": "bytes4",
          "name": "interfaceId",
          "type": "bytes4"
        }
      ],
      "name": "supportsInterface",
      "outputs": [
        {
          "internalType": "bool",
          "name": "",
          "type": "bool"
        }
      ],
      "stateMutability": "view",
      "type": "function"
    },
    {
      "inputs": [],
      "name": "symbol",
      "outputs": [
        {
          "internalType": "string",
          "name": "",
          "type": "string"
        }
      ],
      "stateMutability": "view",
      "type": "function"
    },
    {
      "inputs": [
        {
          "internalType": "uint256",
          "name": "index",
          "type": "uint256"
        }
      ],
      "name": "tokenByIndex",
      "outputs": [
        {
          "internalType": "uint256",
          "name": "",
          "type": "uint256"
        }
      ],
      "stateMutability": "view",
      "type": "function"
    },
    {
      "inputs": [
        {
          "internalType": "address",
          "name": "owner",
          "type": "address"
        },
        {
          "internalType": "uint256",
          "name": "index",
          "type": "uint256"
        }
      ],
      "name": "tokenOfOwnerByIndex",
      "outputs": [
        {
          "internalType": "uint256",
          "name": "",
          "type": "uint256"
        }
      ],
      "stateMutability": "view",
      "type": "function"
    },
    {
      "inputs": [
        {
          "internalType": "uint256",
          "name": "tokenId",
          "type": "uint256"
        }
      ],
      "name": "tokenURI",
      "outputs": [
        {
          "internalType": "string",
          "name": "",
          "type": "string"
        }
      ],
      "stateMutability": "view",
      "type": "function"
    },
    {
      "inputs": [],
      "name": "totalSupply",
      "outputs": [
        {
          "internalType": "uint256",
          "name": "",
          "type": "uint256"
        }
      ],
      "stateMutability": "view",
      "type": "function"
    },
    {
      "inputs": [
        {
          "internalType": "address",
          "name": "from",
          "type": "address"
        },
        {
          "internalType": "address",
          "name": "to",
          "type": "address"
        },
        {
          "internalType": "uint256",
          "name": "tokenId",
          "type": "uint256"
        }
      ],
      "name": "transferFrom",
      "outputs": [],
      "stateMutability": "nonpayable",
      "type": "function"
    },
    {
      "inputs": [],
      "name": "unpause",
      "outputs": [],
      "stateMutability": "nonpayable",
      "type": "function"
    },
    {
      "inputs": [
        {
          "internalType": "address",
          "name": "newImplementation",
          "type": "address"
        }
      ],
      "name": "upgradeTo",
      "outputs": [],
      "stateMutability": "nonpayable",
      "type": "function"
    },
    {
      "inputs": [
        {
          "internalType": "address",
          "name": "newImplementation",
          "type": "address"
        },
        {
          "internalType": "bytes",
          "name": "data",
          "type": "bytes"
        }
      ],
      "name": "upgradeToAndCall",
      "outputs": [],
      "stateMutability": "payable",
      "type": "function"
    }
  ],
  "bytecode": "0x60a06040523073ffffffffffffffffffffffffffffffffffffffff1660809073ffffffffffffffffffffffffffffffffffffffff168152503480156200004457600080fd5b50620000556200005b60201b60201c565b62000205565b600060019054906101000a900460ff1615620000ae576040517f08c379a0000000000000000000000000000000000000000000000000000000008152600401620000a590620001a8565b60405180910390fd5b60ff801660008054906101000a900460ff1660ff16146200011f5760ff6000806101000a81548160ff021916908360ff1602179055507f7f26b83ff96e1f2b6a682f133852f6798a09c465da95921460cefb384740249860ff604051620001169190620001e8565b60405180910390a15b565b600082825260208201905092915050565b7f496e697469616c697a61626c653a20636f6e747261637420697320696e69746960008201527f616c697a696e6700000000000000000000000000000000000000000000000000602082015250565b60006200019060278362000121565b91506200019d8262000132565b604082019050919050565b60006020820190508181036000830152620001c38162000181565b9050919050565b600060ff82169050919050565b620001e281620001ca565b82525050565b6000602082019050620001ff6000830184620001d7565b92915050565b608051615ac76200023d60003960008181610caf01528181610d3d01528181610e8c01528181610f1a015261103b0152615ac76000f3fe60806040526004361061021a5760003560e01c80636352211e11610123578063a217fddf116100ab578063d53913931161006f578063d5391393146107e8578063d547741f14610813578063e63ab1e91461083c578063e985e9c514610867578063f72c0d8b146108a45761021a565b8063a217fddf146106f1578063a22cb4651461071c578063b88d4fde14610745578063c87b56dd1461076e578063ca15c873146107ab5761021a565b80639010d07c116100f25780639010d07c146105f857806391d148541461063557806395d89b41146106725780639dff87341461069d578063a1448194146106c85761021a565b80636352211e1461055057806370a082311461058d5780638129fc1c146105ca5780638456cb59146105e15761021a565b80632f745c59116101a657806342842e0e1161017557806342842e0e146104785780634f1ef286146104a15780634f6ccce7146104bd57806352d1902d146104fa5780635c975abb146105255761021a565b80632f745c59146103d257806336568abe1461040f5780633659cfe6146104385780633f4ba83a146104615761021a565b806309709112116101ed57806309709112146102ed57806318160ddd1461031857806323b872dd14610343578063248a9ca31461036c5780632f2ff15d146103a95761021a565b806301ffc9a71461021f57806306fdde031461025c578063081812fc14610287578063095ea7b3146102c4575b600080fd5b34801561022b57600080fd5b5061024660048036038101906102419190613dca565b6108cf565b6040516102539190613e12565b60405180910390f35b34801561026857600080fd5b506102716108e1565b60405161027e9190613ebd565b60405180910390f35b34801561029357600080fd5b506102ae60048036038101906102a99190613f15565b610973565b6040516102bb9190613f83565b60405180910390f35b3480156102d057600080fd5b506102eb60048036038101906102e69190613fca565b6109b9565b005b3480156102f957600080fd5b50610302610ad0565b60405161030f9190614019565b60405180910390f35b34801561032457600080fd5b5061032d610ad7565b60405161033a9190614019565b60405180910390f35b34801561034f57600080fd5b5061036a60048036038101906103659190614034565b610ae4565b005b34801561037857600080fd5b50610393600480360381019061038e91906140bd565b610b44565b6040516103a091906140f9565b60405180910390f35b3480156103b557600080fd5b506103d060048036038101906103cb9190614114565b610b64565b005b3480156103de57600080fd5b506103f960048036038101906103f49190613fca565b610b85565b6040516104069190614019565b60405180910390f35b34801561041b57600080fd5b5061043660048036038101906104319190614114565b610c2a565b005b34801561044457600080fd5b5061045f600480360381019061045a9190614154565b610cad565b005b34801561046d57600080fd5b50610476610e35565b005b34801561048457600080fd5b5061049f600480360381019061049a9190614034565b610e6a565b005b6104bb60048036038101906104b691906142b6565b610e8a565b005b3480156104c957600080fd5b506104e460048036038101906104df9190613f15565b610fc6565b6040516104f19190614019565b60405180910390f35b34801561050657600080fd5b5061050f611037565b60405161051c91906140f9565b60405180910390f35b34801561053157600080fd5b5061053a6110f0565b6040516105479190613e12565b60405180910390f35b34801561055c57600080fd5b5061057760048036038101906105729190613f15565b611107565b6040516105849190613f83565b60405180910390f35b34801561059957600080fd5b506105b460048036038101906105af9190614154565b61118d565b6040516105c19190614019565b60405180910390f35b3480156105d657600080fd5b506105df611244565b005b3480156105ed57600080fd5b506105f66114ad565b005b34801561060457600080fd5b5061061f600480360381019061061a9190614312565b6114e2565b60405161062c9190613f83565b60405180910390f35b34801561064157600080fd5b5061065c60048036038101906106579190614114565b611512565b6040516106699190613e12565b60405180910390f35b34801561067e57600080fd5b5061068761157d565b6040516106949190613ebd565b60405180910390f35b3480156106a957600080fd5b506106b261160f565b6040516106bf9190614019565b60405180910390f35b3480156106d457600080fd5b506106ef60048036038101906106ea9190613fca565b611616565b005b3480156106fd57600080fd5b50610706611657565b60405161071391906140f9565b60405180910390f35b34801561072857600080fd5b50610743600480360381019061073e919061437e565b61165e565b005b34801561075157600080fd5b5061076c600480360381019061076791906143be565b611674565b005b34801561077a57600080fd5b5061079560048036038101906107909190613f15565b6116d6565b6040516107a29190613ebd565b60405180910390f35b3480156107b757600080fd5b506107d260048036038101906107cd91906140bd565b61173e565b6040516107df9190614019565b60405180910390f35b3480156107f457600080fd5b506107fd611763565b60405161080a91906140f9565b60405180910390f35b34801561081f57600080fd5b5061083a60048036038101906108359190614114565b611787565b005b34801561084857600080fd5b506108516117a8565b60405161085e91906140f9565b60405180910390f35b34801561087357600080fd5b5061088e60048036038101906108899190614441565b6117cc565b60405161089b9190613e12565b60405180910390f35b3480156108b057600080fd5b506108b9611860565b6040516108c691906140f9565b60405180910390f35b60006108da82611884565b9050919050565b6060606580546108f0906144b0565b80601f016020809104026020016040519081016040528092919081815260200182805461091c906144b0565b80156109695780601f1061093e57610100808354040283529160200191610969565b820191906000526020600020905b81548152906001019060200180831161094c57829003601f168201915b5050505050905090565b600061097e826118fe565b6069600083815260200190815260200160002060009054906101000a900473ffffffffffffffffffffffffffffffffffffffff169050919050565b60006109c482611107565b90508073ffffffffffffffffffffffffffffffffffffffff168373ffffffffffffffffffffffffffffffffffffffff1603610a34576040517f08c379a0000000000000000000000000000000000000000000000000000000008152600401610a2b90614553565b60405180910390fd5b8073ffffffffffffffffffffffffffffffffffffffff16610a53611949565b73ffffffffffffffffffffffffffffffffffffffff161480610a825750610a8181610a7c611949565b6117cc565b5b610ac1576040517f08c379a0000000000000000000000000000000000000000000000000000000008152600401610ab8906145e5565b60405180910390fd5b610acb8383611951565b505050565b6101c45481565b6000609980549050905090565b610af5610aef611949565b82611a0a565b610b34576040517f08c379a0000000000000000000000000000000000000000000000000000000008152600401610b2b90614677565b60405180910390fd5b610b3f838383611a9f565b505050565b600060fb6000838152602001908152602001600020600101549050919050565b610b6d82610b44565b610b7681611d98565b610b808383611dac565b505050565b6000610b908361118d565b8210610bd1576040517f08c379a0000000000000000000000000000000000000000000000000000000008152600401610bc890614709565b60405180910390fd5b609760008473ffffffffffffffffffffffffffffffffffffffff1673ffffffffffffffffffffffffffffffffffffffff168152602001908152602001600020600083815260200190815260200160002054905092915050565b610c32611949565b73ffffffffffffffffffffffffffffffffffffffff168173ffffffffffffffffffffffffffffffffffffffff1614610c9f576040517f08c379a0000000000000000000000000000000000000000000000000000000008152600401610c969061479b565b60405180910390fd5b610ca98282611de1565b5050565b7f000000000000000000000000000000000000000000000000000000000000000073ffffffffffffffffffffffffffffffffffffffff163073ffffffffffffffffffffffffffffffffffffffff1603610d3b576040517f08c379a0000000000000000000000000000000000000000000000000000000008152600401610d329061482d565b60405180910390fd5b7f000000000000000000000000000000000000000000000000000000000000000073ffffffffffffffffffffffffffffffffffffffff16610d7a611e16565b73ffffffffffffffffffffffffffffffffffffffff1614610dd0576040517f08c379a0000000000000000000000000000000000000000000000000000000008152600401610dc7906148bf565b60405180910390fd5b610dd981611e6d565b610e3281600067ffffffffffffffff811115610df857610df761418b565b5b6040519080825280601f01601f191660200182016040528015610e2a5781602001600182028036833780820191505090505b506000611e9b565b50565b7f65d7a28e3265b37a6474929f336521b332c1681b933f6cb9f3376673440d862a610e5f81611d98565b610e67612009565b50565b610e8583838360405180602001604052806000815250611674565b505050565b7f000000000000000000000000000000000000000000000000000000000000000073ffffffffffffffffffffffffffffffffffffffff163073ffffffffffffffffffffffffffffffffffffffff1603610f18576040517f08c379a0000000000000000000000000000000000000000000000000000000008152600401610f0f9061482d565b60405180910390fd5b7f000000000000000000000000000000000000000000000000000000000000000073ffffffffffffffffffffffffffffffffffffffff16610f57611e16565b73ffffffffffffffffffffffffffffffffffffffff1614610fad576040517f08c379a0000000000000000000000000000000000000000000000000000000008152600401610fa4906148bf565b60405180910390fd5b610fb682611e6d565b610fc282826001611e9b565b5050565b6000610fd0610ad7565b8210611011576040517f08c379a000000000000000000000000000000000000000000000000000000000815260040161100890614951565b60405180910390fd5b6099828154811061102557611024614971565b5b90600052602060002001549050919050565b60007f000000000000000000000000000000000000000000000000000000000000000073ffffffffffffffffffffffffffffffffffffffff163073ffffffffffffffffffffffffffffffffffffffff16146110c7576040517f08c379a00000000000000000000000000000000000000000000000000000000081526004016110be90614a12565b60405180910390fd5b7f360894a13ba1a3210667c828492db98dca3e2076cc3735a920a3ca505d382bbc60001b905090565b600060c960009054906101000a900460ff16905090565b6000806111138361206c565b9050600073ffffffffffffffffffffffffffffffffffffffff168173ffffffffffffffffffffffffffffffffffffffff1603611184576040517f08c379a000000000000000000000000000000000000000000000000000000000815260040161117b90614a7e565b60405180910390fd5b80915050919050565b60008073ffffffffffffffffffffffffffffffffffffffff168273ffffffffffffffffffffffffffffffffffffffff16036111fd576040517f08c379a00000000000000000000000000000000000000000000000000000000081526004016111f490614b10565b60405180910390fd5b606860008373ffffffffffffffffffffffffffffffffffffffff1673ffffffffffffffffffffffffffffffffffffffff168152602001908152602001600020549050919050565b60008060019054906101000a900460ff161590508080156112755750600160008054906101000a900460ff1660ff16105b806112a25750611284306120a9565b1580156112a15750600160008054906101000a900460ff1660ff16145b5b6112e1576040517f08c379a00000000000000000000000000000000000000000000000000000000081526004016112d890614ba2565b60405180910390fd5b60016000806101000a81548160ff021916908360ff160217905550801561131e576001600060016101000a81548160ff0219169083151502179055505b6113926040518060400160405280600a81526020017f4c6f744c6f6f74436172000000000000000000000000000000000000000000008152506040518060400160405280600381526020017f4c4c4300000000000000000000000000000000000000000000000000000000008152506120cc565b61139a612129565b6113a261217a565b6113aa6121d3565b6113b2612224565b6113bf6000801b33611dac565b6113e97f65d7a28e3265b37a6474929f336521b332c1681b933f6cb9f3376673440d862a33611dac565b6114137f9f2df0fed2c77648de5860a4cc508cd0818c85b8b8a1ab4ceeef8d981c8956a633611dac565b61143d7f189ab7a9244df0848122154315af71fe140f3db0fe014031783b0946b8c9d2e333611dac565b60646101c381905550620151806101c48190555080156114aa5760008060016101000a81548160ff0219169083151502179055507f7f26b83ff96e1f2b6a682f133852f6798a09c465da95921460cefb384740249860016040516114a19190614c14565b60405180910390a15b50565b7f65d7a28e3265b37a6474929f336521b332c1681b933f6cb9f3376673440d862a6114d781611d98565b6114df612275565b50565b600061150a8261012d60008681526020019081526020016000206122d890919063ffffffff16565b905092915050565b600060fb600084815260200190815260200160002060000160008373ffffffffffffffffffffffffffffffffffffffff1673ffffffffffffffffffffffffffffffffffffffff16815260200190815260200160002060009054906101000a900460ff16905092915050565b60606066805461158c906144b0565b80601f01602080910402602001604051908101604052809291908181526020018280546115b8906144b0565b80156116055780601f106115da57610100808354040283529160200191611605565b820191906000526020600020905b8154815290600101906020018083116115e857829003601f168201915b5050505050905090565b6101c35481565b7f9f2df0fed2c77648de5860a4cc508cd0818c85b8b8a1ab4ceeef8d981c8956a661164081611d98565b6116486122f2565b611652838361233c565b505050565b6000801b81565b611670611669611949565b838361235a565b5050565b61168561167f611949565b83611a0a565b6116c4576040517f08c379a00000000000000000000000000000000000000000000000000000000081526004016116bb90614677565b60405180910390fd5b6116d0848484846124c6565b50505050565b60606116e1826118fe565b60006116eb612522565b9050600081511161170b5760405180602001604052806000815250611736565b8061171584612542565b604051602001611726929190614c6b565b6040516020818303038152906040525b915050919050565b600061175c61012d6000848152602001908152602001600020612610565b9050919050565b7f9f2df0fed2c77648de5860a4cc508cd0818c85b8b8a1ab4ceeef8d981c8956a681565b61179082610b44565b61179981611d98565b6117a38383611de1565b505050565b7f65d7a28e3265b37a6474929f336521b332c1681b933f6cb9f3376673440d862a81565b6000606a60008473ffffffffffffffffffffffffffffffffffffffff1673ffffffffffffffffffffffffffffffffffffffff16815260200190815260200160002060008373ffffffffffffffffffffffffffffffffffffffff1673ffffffffffffffffffffffffffffffffffffffff16815260200190815260200160002060009054906101000a900460ff16905092915050565b7f189ab7a9244df0848122154315af71fe140f3db0fe014031783b0946b8c9d2e381565b60007f5a05180f000000000000000000000000000000000000000000000000000000007bffffffffffffffffffffffffffffffffffffffffffffffffffffffff1916827bffffffffffffffffffffffffffffffffffffffffffffffffffffffff191614806118f757506118f682612625565b5b9050919050565b6119078161269f565b611946576040517f08c379a000000000000000000000000000000000000000000000000000000000815260040161193d90614a7e565b60405180910390fd5b50565b600033905090565b816069600083815260200190815260200160002060006101000a81548173ffffffffffffffffffffffffffffffffffffffff021916908373ffffffffffffffffffffffffffffffffffffffff160217905550808273ffffffffffffffffffffffffffffffffffffffff166119c483611107565b73ffffffffffffffffffffffffffffffffffffffff167f8c5be1e5ebec7d5bd14f71427d1e84f3dd0314c0f7b2291e5b200ac8c7c3b92560405160405180910390a45050565b600080611a1683611107565b90508073ffffffffffffffffffffffffffffffffffffffff168473ffffffffffffffffffffffffffffffffffffffff161480611a585750611a5781856117cc565b5b80611a9657508373ffffffffffffffffffffffffffffffffffffffff16611a7e84610973565b73ffffffffffffffffffffffffffffffffffffffff16145b91505092915050565b8273ffffffffffffffffffffffffffffffffffffffff16611abf82611107565b73ffffffffffffffffffffffffffffffffffffffff1614611b15576040517f08c379a0000000000000000000000000000000000000000000000000000000008152600401611b0c90614d01565b60405180910390fd5b600073ffffffffffffffffffffffffffffffffffffffff168273ffffffffffffffffffffffffffffffffffffffff1603611b84576040517f08c379a0000000000000000000000000000000000000000000000000000000008152600401611b7b90614d93565b60405180910390fd5b611b9183838360016126e0565b8273ffffffffffffffffffffffffffffffffffffffff16611bb182611107565b73ffffffffffffffffffffffffffffffffffffffff1614611c07576040517f08c379a0000000000000000000000000000000000000000000000000000000008152600401611bfe90614d01565b60405180910390fd5b6069600082815260200190815260200160002060006101000a81549073ffffffffffffffffffffffffffffffffffffffff02191690556001606860008573ffffffffffffffffffffffffffffffffffffffff1673ffffffffffffffffffffffffffffffffffffffff168152602001908152602001600020600082825403925050819055506001606860008473ffffffffffffffffffffffffffffffffffffffff1673ffffffffffffffffffffffffffffffffffffffff16815260200190815260200160002060008282540192505081905550816067600083815260200190815260200160002060006101000a81548173ffffffffffffffffffffffffffffffffffffffff021916908373ffffffffffffffffffffffffffffffffffffffff160217905550808273ffffffffffffffffffffffffffffffffffffffff168473ffffffffffffffffffffffffffffffffffffffff167fddf252ad1be2c89b69c2b068fc378daa952ba7f163c4a11628f55a4df523b3ef60405160405180910390a4611d9383838360016126fa565b505050565b611da981611da4611949565b612700565b50565b611db68282612785565b611ddc8161012d600085815260200190815260200160002061286690919063ffffffff16565b505050565b611deb8282612896565b611e118161012d600085815260200190815260200160002061297890919063ffffffff16565b505050565b6000611e447f360894a13ba1a3210667c828492db98dca3e2076cc3735a920a3ca505d382bbc60001b6129a8565b60000160009054906101000a900473ffffffffffffffffffffffffffffffffffffffff16905090565b7f189ab7a9244df0848122154315af71fe140f3db0fe014031783b0946b8c9d2e3611e9781611d98565b5050565b611ec77f4910fdfa16fed3260ed0e7147f7cc6da11a60208b5b9406d12a635614ffd914360001b6129b2565b60000160009054906101000a900460ff1615611eeb57611ee6836129bc565b612004565b8273ffffffffffffffffffffffffffffffffffffffff166352d1902d6040518163ffffffff1660e01b8152600401602060405180830381865afa925050508015611f5357506040513d601f19601f82011682018060405250810190611f509190614dc8565b60015b611f92576040517f08c379a0000000000000000000000000000000000000000000000000000000008152600401611f8990614e67565b60405180910390fd5b7f360894a13ba1a3210667c828492db98dca3e2076cc3735a920a3ca505d382bbc60001b8114611ff7576040517f08c379a0000000000000000000000000000000000000000000000000000000008152600401611fee90614ef9565b60405180910390fd5b50612003838383612a75565b5b505050565b612011612aa1565b600060c960006101000a81548160ff0219169083151502179055507f5db9ee0a495bf2e6ff9c91a7834c1ba4fdd244a5e8aa4e537bd38aeae4b073aa612055611949565b6040516120629190613f83565b60405180910390a1565b60006067600083815260200190815260200160002060009054906101000a900473ffffffffffffffffffffffffffffffffffffffff169050919050565b6000808273ffffffffffffffffffffffffffffffffffffffff163b119050919050565b600060019054906101000a900460ff1661211b576040517f08c379a000000000000000000000000000000000000000000000000000000000815260040161211290614f8b565b60405180910390fd5b6121258282612aea565b5050565b600060019054906101000a900460ff16612178576040517f08c379a000000000000000000000000000000000000000000000000000000000815260040161216f90614f8b565b60405180910390fd5b565b600060019054906101000a900460ff166121c9576040517f08c379a00000000000000000000000000000000000000000000000000000000081526004016121c090614f8b565b60405180910390fd5b6121d1612b5d565b565b600060019054906101000a900460ff16612222576040517f08c379a000000000000000000000000000000000000000000000000000000000815260040161221990614f8b565b60405180910390fd5b565b600060019054906101000a900460ff16612273576040517f08c379a000000000000000000000000000000000000000000000000000000000815260040161226a90614f8b565b60405180910390fd5b565b61227d6122f2565b600160c960006101000a81548160ff0219169083151502179055507f62e78cea01bee320cd4e420270b5ea74000d11b0c9f74754ebdbfc544b05a2586122c1611949565b6040516122ce9190613f83565b60405180910390a1565b60006122e78360000183612bc9565b60001c905092915050565b6122fa6110f0565b1561233a576040517f08c379a000000000000000000000000000000000000000000000000000000000815260040161233190614ff7565b60405180910390fd5b565b612356828260405180602001604052806000815250612bf4565b5050565b8173ffffffffffffffffffffffffffffffffffffffff168373ffffffffffffffffffffffffffffffffffffffff16036123c8576040517f08c379a00000000000000000000000000000000000000000000000000000000081526004016123bf90615063565b60405180910390fd5b80606a60008573ffffffffffffffffffffffffffffffffffffffff1673ffffffffffffffffffffffffffffffffffffffff16815260200190815260200160002060008473ffffffffffffffffffffffffffffffffffffffff1673ffffffffffffffffffffffffffffffffffffffff16815260200190815260200160002060006101000a81548160ff0219169083151502179055508173ffffffffffffffffffffffffffffffffffffffff168373ffffffffffffffffffffffffffffffffffffffff167f17307eab39ab6107e8899845ad3d59bd9653f200f220920489ca2b5937696c31836040516124b99190613e12565b60405180910390a3505050565b6124d1848484611a9f565b6124dd84848484612c4f565b61251c576040517f08c379a0000000000000000000000000000000000000000000000000000000008152600401612513906150f5565b60405180910390fd5b50505050565b6060604051806060016040528060398152602001615a5960399139905090565b60606000600161255184612dd6565b01905060008167ffffffffffffffff8111156125705761256f61418b565b5b6040519080825280601f01601f1916602001820160405280156125a25781602001600182028036833780820191505090505b509050600082602001820190505b600115612605578080600190039150507f3031323334353637383961626364656600000000000000000000000000000000600a86061a8153600a85816125f9576125f8615115565b5b049450600085036125b0575b819350505050919050565b600061261e82600001612f29565b9050919050565b60007f7965db0b000000000000000000000000000000000000000000000000000000007bffffffffffffffffffffffffffffffffffffffffffffffffffffffff1916827bffffffffffffffffffffffffffffffffffffffffffffffffffffffff19161480612698575061269782612f3a565b5b9050919050565b60008073ffffffffffffffffffffffffffffffffffffffff166126c18361206c565b73ffffffffffffffffffffffffffffffffffffffff1614159050919050565b6126e86122f2565b6126f484848484612fb4565b50505050565b50505050565b61270a8282611512565b6127815761271781613112565b6127258360001c602061313f565b6040516020016127369291906151dc565b6040516020818303038152906040526040517f08c379a00000000000000000000000000000000000000000000000000000000081526004016127789190613ebd565b60405180910390fd5b5050565b61278f8282611512565b61286257600160fb600084815260200190815260200160002060000160008373ffffffffffffffffffffffffffffffffffffffff1673ffffffffffffffffffffffffffffffffffffffff16815260200190815260200160002060006101000a81548160ff021916908315150217905550612807611949565b73ffffffffffffffffffffffffffffffffffffffff168173ffffffffffffffffffffffffffffffffffffffff16837f2f8788117e7eff1d82e926ec794901d17c78024a50270940304540a733656f0d60405160405180910390a45b5050565b600061288e836000018373ffffffffffffffffffffffffffffffffffffffff1660001b61337b565b905092915050565b6128a08282611512565b1561297457600060fb600084815260200190815260200160002060000160008373ffffffffffffffffffffffffffffffffffffffff1673ffffffffffffffffffffffffffffffffffffffff16815260200190815260200160002060006101000a81548160ff021916908315150217905550612919611949565b73ffffffffffffffffffffffffffffffffffffffff168173ffffffffffffffffffffffffffffffffffffffff16837ff6391f5c32d9c69d2a47ea670b442974b53935d1edc7fd64eb21e047a839171b60405160405180910390a45b5050565b60006129a0836000018373ffffffffffffffffffffffffffffffffffffffff1660001b6133eb565b905092915050565b6000819050919050565b6000819050919050565b6129c5816120a9565b612a04576040517f08c379a00000000000000000000000000000000000000000000000000000000081526004016129fb90615288565b60405180910390fd5b80612a317f360894a13ba1a3210667c828492db98dca3e2076cc3735a920a3ca505d382bbc60001b6129a8565b60000160006101000a81548173ffffffffffffffffffffffffffffffffffffffff021916908373ffffffffffffffffffffffffffffffffffffffff16021790555050565b612a7e836134ff565b600082511180612a8b5750805b15612a9c57612a9a838361354e565b505b505050565b612aa96110f0565b612ae8576040517f08c379a0000000000000000000000000000000000000000000000000000000008152600401612adf906152f4565b60405180910390fd5b565b600060019054906101000a900460ff16612b39576040517f08c379a0000000000000000000000000000000000000000000000000000000008152600401612b3090614f8b565b60405180910390fd5b8160659081612b4891906154b6565b508060669081612b5891906154b6565b505050565b600060019054906101000a900460ff16612bac576040517f08c379a0000000000000000000000000000000000000000000000000000000008152600401612ba390614f8b565b60405180910390fd5b600060c960006101000a81548160ff021916908315150217905550565b6000826000018281548110612be157612be0614971565b5b9060005260206000200154905092915050565b612bfe838361357b565b612c0b6000848484612c4f565b612c4a576040517f08c379a0000000000000000000000000000000000000000000000000000000008152600401612c41906150f5565b60405180910390fd5b505050565b6000612c708473ffffffffffffffffffffffffffffffffffffffff166120a9565b15612dc9578373ffffffffffffffffffffffffffffffffffffffff1663150b7a02612c99611949565b8786866040518563ffffffff1660e01b8152600401612cbb94939291906155dd565b6020604051808303816000875af1925050508015612cf757506040513d601f19601f82011682018060405250810190612cf4919061563e565b60015b612d79573d8060008114612d27576040519150601f19603f3d011682016040523d82523d6000602084013e612d2c565b606091505b506000815103612d71576040517f08c379a0000000000000000000000000000000000000000000000000000000008152600401612d68906150f5565b60405180910390fd5b805181602001fd5b63150b7a0260e01b7bffffffffffffffffffffffffffffffffffffffffffffffffffffffff1916817bffffffffffffffffffffffffffffffffffffffffffffffffffffffff191614915050612dce565b600190505b949350505050565b600080600090507a184f03e93ff9f4daa797ed6e38ed64bf6a1f0100000000000000008310612e34577a184f03e93ff9f4daa797ed6e38ed64bf6a1f0100000000000000008381612e2a57612e29615115565b5b0492506040810190505b6d04ee2d6d415b85acef81000000008310612e71576d04ee2d6d415b85acef81000000008381612e6757612e66615115565b5b0492506020810190505b662386f26fc100008310612ea057662386f26fc100008381612e9657612e95615115565b5b0492506010810190505b6305f5e1008310612ec9576305f5e1008381612ebf57612ebe615115565b5b0492506008810190505b6127108310612eee576127108381612ee457612ee3615115565b5b0492506004810190505b60648310612f115760648381612f0757612f06615115565b5b0492506002810190505b600a8310612f20576001810190505b80915050919050565b600081600001805490509050919050565b60007f780e9d63000000000000000000000000000000000000000000000000000000007bffffffffffffffffffffffffffffffffffffffffffffffffffffffff1916827bffffffffffffffffffffffffffffffffffffffffffffffffffffffff19161480612fad5750612fac82613798565b5b9050919050565b612fc08484848461387a565b6001811115613004576040517f08c379a0000000000000000000000000000000000000000000000000000000008152600401612ffb906156dd565b60405180910390fd5b6000829050600073ffffffffffffffffffffffffffffffffffffffff168573ffffffffffffffffffffffffffffffffffffffff160361304b5761304681613880565b61308a565b8373ffffffffffffffffffffffffffffffffffffffff168573ffffffffffffffffffffffffffffffffffffffff16146130895761308885826138c9565b5b5b600073ffffffffffffffffffffffffffffffffffffffff168473ffffffffffffffffffffffffffffffffffffffff16036130cc576130c781613a36565b61310b565b8473ffffffffffffffffffffffffffffffffffffffff168473ffffffffffffffffffffffffffffffffffffffff161461310a576131098482613b07565b5b5b5050505050565b60606131388273ffffffffffffffffffffffffffffffffffffffff16601460ff1661313f565b9050919050565b606060006002836002613152919061572c565b61315c919061576e565b67ffffffffffffffff8111156131755761317461418b565b5b6040519080825280601f01601f1916602001820160405280156131a75781602001600182028036833780820191505090505b5090507f3000000000000000000000000000000000000000000000000000000000000000816000815181106131df576131de614971565b5b60200101907effffffffffffffffffffffffffffffffffffffffffffffffffffffffffffff1916908160001a9053507f78000000000000000000000000000000000000000000000000000000000000008160018151811061324357613242614971565b5b60200101907effffffffffffffffffffffffffffffffffffffffffffffffffffffffffffff1916908160001a90535060006001846002613283919061572c565b61328d919061576e565b90505b600181111561332d577f3031323334353637383961626364656600000000000000000000000000000000600f8616601081106132cf576132ce614971565b5b1a60f81b8282815181106132e6576132e5614971565b5b60200101907effffffffffffffffffffffffffffffffffffffffffffffffffffffffffffff1916908160001a905350600485901c945080613326906157a2565b9050613290565b5060008414613371576040517f08c379a000000000000000000000000000000000000000000000000000000000815260040161336890615817565b60405180910390fd5b8091505092915050565b60006133878383613b86565b6133e05782600001829080600181540180825580915050600190039060005260206000200160009091909190915055826000018054905083600101600084815260200190815260200160002081905550600190506133e5565b600090505b92915050565b600080836001016000848152602001908152602001600020549050600081146134f357600060018261341d9190615837565b90506000600186600001805490506134359190615837565b90508181146134a457600086600001828154811061345657613455614971565b5b906000526020600020015490508087600001848154811061347a57613479614971565b5b90600052602060002001819055508387600101600083815260200190815260200160002081905550505b856000018054806134b8576134b761586b565b5b6001900381819060005260206000200160009055905585600101600086815260200190815260200160002060009055600193505050506134f9565b60009150505b92915050565b613508816129bc565b8073ffffffffffffffffffffffffffffffffffffffff167fbc7cd75a20ee27fd9adebab32041f755214dbc6bffa90cc0225b39da2e5c2d3b60405160405180910390a250565b60606135738383604051806060016040528060278152602001615a3260279139613ba9565b905092915050565b600073ffffffffffffffffffffffffffffffffffffffff168273ffffffffffffffffffffffffffffffffffffffff16036135ea576040517f08c379a00000000000000000000000000000000000000000000000000000000081526004016135e1906158e6565b60405180910390fd5b6135f38161269f565b15613633576040517f08c379a000000000000000000000000000000000000000000000000000000000815260040161362a90615952565b60405180910390fd5b6136416000838360016126e0565b61364a8161269f565b1561368a576040517f08c379a000000000000000000000000000000000000000000000000000000000815260040161368190615952565b60405180910390fd5b6001606860008473ffffffffffffffffffffffffffffffffffffffff1673ffffffffffffffffffffffffffffffffffffffff16815260200190815260200160002060008282540192505081905550816067600083815260200190815260200160002060006101000a81548173ffffffffffffffffffffffffffffffffffffffff021916908373ffffffffffffffffffffffffffffffffffffffff160217905550808273ffffffffffffffffffffffffffffffffffffffff16600073ffffffffffffffffffffffffffffffffffffffff167fddf252ad1be2c89b69c2b068fc378daa952ba7f163c4a11628f55a4df523b3ef60405160405180910390a46137946000838360016126fa565b5050565b60007f80ac58cd000000000000000000000000000000000000000000000000000000007bffffffffffffffffffffffffffffffffffffffffffffffffffffffff1916827bffffffffffffffffffffffffffffffffffffffffffffffffffffffff1916148061386357507f5b5e139f000000000000000000000000000000000000000000000000000000007bffffffffffffffffffffffffffffffffffffffffffffffffffffffff1916827bffffffffffffffffffffffffffffffffffffffffffffffffffffffff1916145b80613873575061387282613c2f565b5b9050919050565b50505050565b609980549050609a600083815260200190815260200160002081905550609981908060018154018082558091505060019003906000526020600020016000909190919091505550565b600060016138d68461118d565b6138e09190615837565b90506000609860008481526020019081526020016000205490508181146139c5576000609760008673ffffffffffffffffffffffffffffffffffffffff1673ffffffffffffffffffffffffffffffffffffffff168152602001908152602001600020600084815260200190815260200160002054905080609760008773ffffffffffffffffffffffffffffffffffffffff1673ffffffffffffffffffffffffffffffffffffffff168152602001908152602001600020600084815260200190815260200160002081905550816098600083815260200190815260200160002081905550505b6098600084815260200190815260200160002060009055609760008573ffffffffffffffffffffffffffffffffffffffff1673ffffffffffffffffffffffffffffffffffffffff16815260200190815260200160002060008381526020019081526020016000206000905550505050565b60006001609980549050613a4a9190615837565b90506000609a6000848152602001908152602001600020549050600060998381548110613a7a57613a79614971565b5b906000526020600020015490508060998381548110613a9c57613a9b614971565b5b906000526020600020018190555081609a600083815260200190815260200160002081905550609a6000858152602001908152602001600020600090556099805480613aeb57613aea61586b565b5b6001900381819060005260206000200160009055905550505050565b6000613b128361118d565b905081609760008573ffffffffffffffffffffffffffffffffffffffff1673ffffffffffffffffffffffffffffffffffffffff168152602001908152602001600020600083815260200190815260200160002081905550806098600084815260200190815260200160002081905550505050565b600080836001016000848152602001908152602001600020541415905092915050565b60606000808573ffffffffffffffffffffffffffffffffffffffff1685604051613bd391906159ae565b600060405180830381855af49150503d8060008114613c0e576040519150601f19603f3d011682016040523d82523d6000602084013e613c13565b606091505b5091509150613c2486838387613c99565b925050509392505050565b60007f01ffc9a7000000000000000000000000000000000000000000000000000000007bffffffffffffffffffffffffffffffffffffffffffffffffffffffff1916827bffffffffffffffffffffffffffffffffffffffffffffffffffffffff1916149050919050565b60608315613cfb576000835103613cf357613cb3856120a9565b613cf2576040517f08c379a0000000000000000000000000000000000000000000000000000000008152600401613ce990615a11565b60405180910390fd5b5b829050613d06565b613d058383613d0e565b5b949350505050565b600082511115613d215781518083602001fd5b806040517f08c379a0000000000000000000000000000000000000000000000000000000008152600401613d559190613ebd565b60405180910390fd5b6000604051905090565b600080fd5b600080fd5b60007fffffffff0000000000000000000000000000000000000000000000000000000082169050919050565b613da781613d72565b8114613db257600080fd5b50565b600081359050613dc481613d9e565b92915050565b600060208284031215613de057613ddf613d68565b5b6000613dee84828501613db5565b91505092915050565b60008115159050919050565b613e0c81613df7565b82525050565b6000602082019050613e276000830184613e03565b92915050565b600081519050919050565b600082825260208201905092915050565b60005b83811015613e67578082015181840152602081019050613e4c565b60008484015250505050565b6000601f19601f8301169050919050565b6000613e8f82613e2d565b613e998185613e38565b9350613ea9818560208601613e49565b613eb281613e73565b840191505092915050565b60006020820190508181036000830152613ed78184613e84565b905092915050565b6000819050919050565b613ef281613edf565b8114613efd57600080fd5b50565b600081359050613f0f81613ee9565b92915050565b600060208284031215613f2b57613f2a613d68565b5b6000613f3984828501613f00565b91505092915050565b600073ffffffffffffffffffffffffffffffffffffffff82169050919050565b6000613f6d82613f42565b9050919050565b613f7d81613f62565b82525050565b6000602082019050613f986000830184613f74565b92915050565b613fa781613f62565b8114613fb257600080fd5b50565b600081359050613fc481613f9e565b92915050565b60008060408385031215613fe157613fe0613d68565b5b6000613fef85828601613fb5565b925050602061400085828601613f00565b9150509250929050565b61401381613edf565b82525050565b600060208201905061402e600083018461400a565b92915050565b60008060006060848603121561404d5761404c613d68565b5b600061405b86828701613fb5565b935050602061406c86828701613fb5565b925050604061407d86828701613f00565b9150509250925092565b6000819050919050565b61409a81614087565b81146140a557600080fd5b50565b6000813590506140b781614091565b92915050565b6000602082840312156140d3576140d2613d68565b5b60006140e1848285016140a8565b91505092915050565b6140f381614087565b82525050565b600060208201905061410e60008301846140ea565b92915050565b6000806040838503121561412b5761412a613d68565b5b6000614139858286016140a8565b925050602061414a85828601613fb5565b9150509250929050565b60006020828403121561416a57614169613d68565b5b600061417884828501613fb5565b91505092915050565b600080fd5b600080fd5b7f4e487b7100000000000000000000000000000000000000000000000000000000600052604160045260246000fd5b6141c382613e73565b810181811067ffffffffffffffff821117156141e2576141e161418b565b5b80604052505050565b60006141f5613d5e565b905061420182826141ba565b919050565b600067ffffffffffffffff8211156142215761422061418b565b5b61422a82613e73565b9050602081019050919050565b82818337600083830152505050565b600061425961425484614206565b6141eb565b90508281526020810184848401111561427557614274614186565b5b614280848285614237565b509392505050565b600082601f83011261429d5761429c614181565b5b81356142ad848260208601614246565b91505092915050565b600080604083850312156142cd576142cc613d68565b5b60006142db85828601613fb5565b925050602083013567ffffffffffffffff8111156142fc576142fb613d6d565b5b61430885828601614288565b9150509250929050565b6000806040838503121561432957614328613d68565b5b6000614337858286016140a8565b925050602061434885828601613f00565b9150509250929050565b61435b81613df7565b811461436657600080fd5b50565b60008135905061437881614352565b92915050565b6000806040838503121561439557614394613d68565b5b60006143a385828601613fb5565b92505060206143b485828601614369565b9150509250929050565b600080600080608085870312156143d8576143d7613d68565b5b60006143e687828801613fb5565b94505060206143f787828801613fb5565b935050604061440887828801613f00565b925050606085013567ffffffffffffffff81111561442957614428613d6d565b5b61443587828801614288565b91505092959194509250565b6000806040838503121561445857614457613d68565b5b600061446685828601613fb5565b925050602061447785828601613fb5565b9150509250929050565b7f4e487b7100000000000000000000000000000000000000000000000000000000600052602260045260246000fd5b600060028204905060018216806144c857607f821691505b6020821081036144db576144da614481565b5b50919050565b7f4552433732313a20617070726f76616c20746f2063757272656e74206f776e6560008201527f7200000000000000000000000000000000000000000000000000000000000000602082015250565b600061453d602183613e38565b9150614548826144e1565b604082019050919050565b6000602082019050818103600083015261456c81614530565b9050919050565b7f4552433732313a20617070726f76652063616c6c6572206973206e6f7420746f60008201527f6b656e206f776e6572206f7220617070726f76656420666f7220616c6c000000602082015250565b60006145cf603d83613e38565b91506145da82614573565b604082019050919050565b600060208201905081810360008301526145fe816145c2565b9050919050565b7f4552433732313a2063616c6c6572206973206e6f7420746f6b656e206f776e6560008201527f72206f7220617070726f76656400000000000000000000000000000000000000602082015250565b6000614661602d83613e38565b915061466c82614605565b604082019050919050565b6000602082019050818103600083015261469081614654565b9050919050565b7f455243373231456e756d657261626c653a206f776e657220696e646578206f7560008201527f74206f6620626f756e6473000000000000000000000000000000000000000000602082015250565b60006146f3602b83613e38565b91506146fe82614697565b604082019050919050565b60006020820190508181036000830152614722816146e6565b9050919050565b7f416363657373436f6e74726f6c3a2063616e206f6e6c792072656e6f756e636560008201527f20726f6c657320666f722073656c660000000000000000000000000000000000602082015250565b6000614785602f83613e38565b915061479082614729565b604082019050919050565b600060208201905081810360008301526147b481614778565b9050919050565b7f46756e6374696f6e206d7573742062652063616c6c6564207468726f7567682060008201527f64656c656761746563616c6c0000000000000000000000000000000000000000602082015250565b6000614817602c83613e38565b9150614822826147bb565b604082019050919050565b600060208201905081810360008301526148468161480a565b9050919050565b7f46756e6374696f6e206d7573742062652063616c6c6564207468726f7567682060008201527f6163746976652070726f78790000000000000000000000000000000000000000602082015250565b60006148a9602c83613e38565b91506148b48261484d565b604082019050919050565b600060208201905081810360008301526148d88161489c565b9050919050565b7f455243373231456e756d657261626c653a20676c6f62616c20696e646578206f60008201527f7574206f6620626f756e64730000000000000000000000000000000000000000602082015250565b600061493b602c83613e38565b9150614946826148df565b604082019050919050565b6000602082019050818103600083015261496a8161492e565b9050919050565b7f4e487b7100000000000000000000000000000000000000000000000000000000600052603260045260246000fd5b7f555550535570677261646561626c653a206d757374206e6f742062652063616c60008201527f6c6564207468726f7567682064656c656761746563616c6c0000000000000000602082015250565b60006149fc603883613e38565b9150614a07826149a0565b604082019050919050565b60006020820190508181036000830152614a2b816149ef565b9050919050565b7f4552433732313a20696e76616c696420746f6b656e2049440000000000000000600082015250565b6000614a68601883613e38565b9150614a7382614a32565b602082019050919050565b60006020820190508181036000830152614a9781614a5b565b9050919050565b7f4552433732313a2061646472657373207a65726f206973206e6f74206120766160008201527f6c6964206f776e65720000000000000000000000000000000000000000000000602082015250565b6000614afa602983613e38565b9150614b0582614a9e565b604082019050919050565b60006020820190508181036000830152614b2981614aed565b9050919050565b7f496e697469616c697a61626c653a20636f6e747261637420697320616c72656160008201527f647920696e697469616c697a6564000000000000000000000000000000000000602082015250565b6000614b8c602e83613e38565b9150614b9782614b30565b604082019050919050565b60006020820190508181036000830152614bbb81614b7f565b9050919050565b6000819050919050565b600060ff82169050919050565b6000819050919050565b6000614bfe614bf9614bf484614bc2565b614bd9565b614bcc565b9050919050565b614c0e81614be3565b82525050565b6000602082019050614c296000830184614c05565b92915050565b600081905092915050565b6000614c4582613e2d565b614c4f8185614c2f565b9350614c5f818560208601613e49565b80840191505092915050565b6000614c778285614c3a565b9150614c838284614c3a565b91508190509392505050565b7f4552433732313a207472616e736665722066726f6d20696e636f72726563742060008201527f6f776e6572000000000000000000000000000000000000000000000000000000602082015250565b6000614ceb602583613e38565b9150614cf682614c8f565b604082019050919050565b60006020820190508181036000830152614d1a81614cde565b9050919050565b7f4552433732313a207472616e7366657220746f20746865207a65726f2061646460008201527f7265737300000000000000000000000000000000000000000000000000000000602082015250565b6000614d7d602483613e38565b9150614d8882614d21565b604082019050919050565b60006020820190508181036000830152614dac81614d70565b9050919050565b600081519050614dc281614091565b92915050565b600060208284031215614dde57614ddd613d68565b5b6000614dec84828501614db3565b91505092915050565b7f45524331393637557067726164653a206e657720696d706c656d656e7461746960008201527f6f6e206973206e6f742055555053000000000000000000000000000000000000602082015250565b6000614e51602e83613e38565b9150614e5c82614df5565b604082019050919050565b60006020820190508181036000830152614e8081614e44565b9050919050565b7f45524331393637557067726164653a20756e737570706f727465642070726f7860008201527f6961626c65555549440000000000000000000000000000000000000000000000602082015250565b6000614ee3602983613e38565b9150614eee82614e87565b604082019050919050565b60006020820190508181036000830152614f1281614ed6565b9050919050565b7f496e697469616c697a61626c653a20636f6e7472616374206973206e6f74206960008201527f6e697469616c697a696e67000000000000000000000000000000000000000000602082015250565b6000614f75602b83613e38565b9150614f8082614f19565b604082019050919050565b60006020820190508181036000830152614fa481614f68565b9050919050565b7f5061757361626c653a2070617573656400000000000000000000000000000000600082015250565b6000614fe1601083613e38565b9150614fec82614fab565b602082019050919050565b6000602082019050818103600083015261501081614fd4565b9050919050565b7f4552433732313a20617070726f766520746f2063616c6c657200000000000000600082015250565b600061504d601983613e38565b915061505882615017565b602082019050919050565b6000602082019050818103600083015261507c81615040565b9050919050565b7f4552433732313a207472616e7366657220746f206e6f6e20455243373231526560008201527f63656976657220696d706c656d656e7465720000000000000000000000000000602082015250565b60006150df603283613e38565b91506150ea82615083565b604082019050919050565b6000602082019050818103600083015261510e816150d2565b9050919050565b7f4e487b7100000000000000000000000000000000000000000000000000000000600052601260045260246000fd5b7f416363657373436f6e74726f6c3a206163636f756e7420000000000000000000600082015250565b600061517a601783614c2f565b915061518582615144565b601782019050919050565b7f206973206d697373696e6720726f6c6520000000000000000000000000000000600082015250565b60006151c6601183614c2f565b91506151d182615190565b601182019050919050565b60006151e78261516d565b91506151f38285614c3a565b91506151fe826151b9565b915061520a8284614c3a565b91508190509392505050565b7f455243313936373a206e657720696d706c656d656e746174696f6e206973206e60008201527f6f74206120636f6e747261637400000000000000000000000000000000000000602082015250565b6000615272602d83613e38565b915061527d82615216565b604082019050919050565b600060208201905081810360008301526152a181615265565b9050919050565b7f5061757361626c653a206e6f7420706175736564000000000000000000000000600082015250565b60006152de601483613e38565b91506152e9826152a8565b602082019050919050565b6000602082019050818103600083015261530d816152d1565b9050919050565b60008190508160005260206000209050919050565b60006020601f8301049050919050565b600082821b905092915050565b6000600883026153767fffffffffffffffffffffffffffffffffffffffffffffffffffffffffffffffff82615339565b6153808683615339565b95508019841693508086168417925050509392505050565b60006153b36153ae6153a984613edf565b614bd9565b613edf565b9050919050565b6000819050919050565b6153cd83615398565b6153e16153d9826153ba565b848454615346565b825550505050565b600090565b6153f66153e9565b6154018184846153c4565b505050565b5b818110156154255761541a6000826153ee565b600181019050615407565b5050565b601f82111561546a5761543b81615314565b61544484615329565b81016020851015615453578190505b61546761545f85615329565b830182615406565b50505b505050565b600082821c905092915050565b600061548d6000198460080261546f565b1980831691505092915050565b60006154a6838361547c565b9150826002028217905092915050565b6154bf82613e2d565b67ffffffffffffffff8111156154d8576154d761418b565b5b6154e282546144b0565b6154ed828285615429565b600060209050601f831160018114615520576000841561550e578287015190505b615518858261549a565b865550615580565b601f19841661552e86615314565b60005b8281101561555657848901518255600182019150602085019450602081019050615531565b86831015615573578489015161556f601f89168261547c565b8355505b6001600288020188555050505b505050505050565b600081519050919050565b600082825260208201905092915050565b60006155af82615588565b6155b98185615593565b93506155c9818560208601613e49565b6155d281613e73565b840191505092915050565b60006080820190506155f26000830187613f74565b6155ff6020830186613f74565b61560c604083018561400a565b818103606083015261561e81846155a4565b905095945050505050565b60008151905061563881613d9e565b92915050565b60006020828403121561565457615653613d68565b5b600061566284828501615629565b91505092915050565b7f455243373231456e756d657261626c653a20636f6e736563757469766520747260008201527f616e7366657273206e6f7420737570706f727465640000000000000000000000602082015250565b60006156c7603583613e38565b91506156d28261566b565b604082019050919050565b600060208201905081810360008301526156f6816156ba565b9050919050565b7f4e487b7100000000000000000000000000000000000000000000000000000000600052601160045260246000fd5b600061573782613edf565b915061574283613edf565b925082820261575081613edf565b91508282048414831517615767576157666156fd565b5b5092915050565b600061577982613edf565b915061578483613edf565b925082820190508082111561579c5761579b6156fd565b5b92915050565b60006157ad82613edf565b9150600082036157c0576157bf6156fd565b5b600182039050919050565b7f537472696e67733a20686578206c656e67746820696e73756666696369656e74600082015250565b6000615801602083613e38565b915061580c826157cb565b602082019050919050565b60006020820190508181036000830152615830816157f4565b9050919050565b600061584282613edf565b915061584d83613edf565b9250828203905081811115615865576158646156fd565b5b92915050565b7f4e487b7100000000000000000000000000000000000000000000000000000000600052603160045260246000fd5b7f4552433732313a206d696e7420746f20746865207a65726f2061646472657373600082015250565b60006158d0602083613e38565b91506158db8261589a565b602082019050919050565b600060208201905081810360008301526158ff816158c3565b9050919050565b7f4552433732313a20746f6b656e20616c7265616479206d696e74656400000000600082015250565b600061593c601c83613e38565b915061594782615906565b602082019050919050565b6000602082019050818103600083015261596b8161592f565b9050919050565b600081905092915050565b600061598882615588565b6159928185615972565b93506159a2818560208601613e49565b80840191505092915050565b60006159ba828461597d565b915081905092915050565b7f416464726573733a2063616c6c20746f206e6f6e2d636f6e7472616374000000600082015250565b60006159fb601d83613e38565b9150615a06826159c5565b602082019050919050565b60006020820190508181036000830152615a2a816159ee565b905091905056fe416464726573733a206c6f772d6c6576656c2064656c65676174652063616c6c206661696c656468747470733a2f2f6c6f746c6f6f742e6f736169726f2e78797a2f6c6f746c6f6f745f6361725f6d6574612e6a736f6e3f746f6b656e69643da26469706673582212204dd270d764efd28057a24661b7ae19c6d9feb42f6824a1fbfdf8749681a7faac64736f6c63430008140033",
  "linkReferences": {},
  "deployedLinkReferences": {}
}