{
  "_format": "hh-sol-artifact-1",
  "contractName": "ComponentStore",
  "sourceName": "contracts/systems/core/CompoentStore.sol",
  "abi": [
    {
      "inputs": [],
      "stateMutability": "nonpayable",
      "type": "constructor"
    },
    {
      "inputs": [],
      "name": "CreateFail",
      "type": "error"
    },
    {
      "anonymous": false,
      "inputs": [
        {
          "indexed": true,
          "internalType": "address",
          "name": "to",
          "type": "address"
        },
        {
          "indexed": false,
          "internalType": "uint8",
          "name": "id",
          "type": "uint8"
        },
        {
          "indexed": false,
          "internalType": "uint8",
          "name": "grade",
          "type": "uint8"
        },
        {
          "indexed": true,
          "internalType": "uint256",
          "name": "tokenId",
          "type": "uint256"
        }
      ],
      "name": "Buy",
      "type": "event"
    },
    {
      "anonymous": false,
      "inputs": [
        {
          "indexed": false,
          "internalType": "uint8",
          "name": "version",
          "type": "uint8"
        }
      ],
      "name": "Initialized",
      "type": "event"
    },
    {
      "anonymous": false,
      "inputs": [
        {
          "indexed": false,
          "internalType": "address",
          "name": "account",
          "type": "address"
        }
      ],
      "name": "Paused",
      "type": "event"
    },
    {
      "anonymous": false,
      "inputs": [
        {
          "indexed": true,
          "internalType": "uint256",
          "name": "tokenId",
          "type": "uint256"
        },
        {
          "indexed": true,
          "internalType": "uint256",
          "name": "abrasion",
          "type": "uint256"
        }
      ],
      "name": "Repaire",
      "type": "event"
    },
    {
      "anonymous": false,
      "inputs": [
        {
          "indexed": true,
          "internalType": "bytes32",
          "name": "role",
          "type": "bytes32"
        },
        {
          "indexed": true,
          "internalType": "bytes32",
          "name": "previousAdminRole",
          "type": "bytes32"
        },
        {
          "indexed": true,
          "internalType": "bytes32",
          "name": "newAdminRole",
          "type": "bytes32"
        }
      ],
      "name": "RoleAdminChanged",
      "type": "event"
    },
    {
      "anonymous": false,
      "inputs": [
        {
          "indexed": true,
          "internalType": "bytes32",
          "name": "role",
          "type": "bytes32"
        },
        {
          "indexed": true,
          "internalType": "address",
          "name": "account",
          "type": "address"
        },
        {
          "indexed": true,
          "internalType": "address",
          "name": "sender",
          "type": "address"
        }
      ],
      "name": "RoleGranted",
      "type": "event"
    },
    {
      "anonymous": false,
      "inputs": [
        {
          "indexed": true,
          "internalType": "bytes32",
          "name": "role",
          "type": "bytes32"
        },
        {
          "indexed": true,
          "internalType": "address",
          "name": "account",
          "type": "address"
        },
        {
          "indexed": true,
          "internalType": "address",
          "name": "sender",
          "type": "address"
        }
      ],
      "name": "RoleRevoked",
      "type": "event"
    },
    {
      "anonymous": false,
      "inputs": [
        {
          "indexed": true,
          "internalType": "address",
          "name": "to",
          "type": "address"
        },
        {
          "indexed": true,
          "internalType": "uint256",
          "name": "tokenId",
          "type": "uint256"
        }
      ],
      "name": "Sell",
      "type": "event"
    },
    {
      "anonymous": false,
      "inputs": [
        {
          "indexed": false,
          "internalType": "address",
          "name": "account",
          "type": "address"
        }
      ],
      "name": "Unpaused",
      "type": "event"
    },
    {
      "anonymous": false,
      "inputs": [
        {
          "indexed": true,
          "internalType": "uint256",
          "name": "tokenId",
          "type": "uint256"
        },
        {
          "indexed": true,
          "internalType": "uint256",
          "name": "abrasion",
          "type": "uint256"
        }
      ],
      "name": "Wear",
      "type": "event"
    },
    {
      "inputs": [],
      "name": "DEFAULT_ADMIN_ROLE",
      "outputs": [
        {
          "internalType": "bytes32",
          "name": "",
          "type": "bytes32"
        }
      ],
      "stateMutability": "view",
      "type": "function"
    },
    {
      "inputs": [],
      "name": "GAMR_ROLE",
      "outputs": [
        {
          "internalType": "bytes32",
          "name": "",
          "type": "bytes32"
        }
      ],
      "stateMutability": "view",
      "type": "function"
    },
    {
      "inputs": [],
      "name": "UPGRADER_ROLE",
      "outputs": [
        {
          "internalType": "bytes32",
          "name": "",
          "type": "bytes32"
        }
      ],
      "stateMutability": "view",
      "type": "function"
    },
    {
      "inputs": [],
      "name": "agency",
      "outputs": [
        {
          "internalType": "contract ERC7527Agency",
          "name": "",
          "type": "address"
        }
      ],
      "stateMutability": "view",
      "type": "function"
    },
    {
      "inputs": [],
      "name": "agencyDeployAddress",
      "outputs": [
        {
          "internalType": "address",
          "name": "",
          "type": "address"
        }
      ],
      "stateMutability": "view",
      "type": "function"
    },
    {
      "inputs": [],
      "name": "app",
      "outputs": [
        {
          "internalType": "contract ERC7527App",
          "name": "",
          "type": "address"
        }
      ],
      "stateMutability": "view",
      "type": "function"
    },
    {
      "inputs": [],
      "name": "appDeployAddress",
      "outputs": [
        {
          "internalType": "address",
          "name": "",
          "type": "address"
        }
      ],
      "stateMutability": "view",
      "type": "function"
    },
    {
      "inputs": [
        {
          "internalType": "uint8",
          "name": "_id",
          "type": "uint8"
        },
        {
          "internalType": "uint8",
          "name": "_grade",
          "type": "uint8"
        }
      ],
      "name": "buy",
      "outputs": [],
      "stateMutability": "payable",
      "type": "function"
    },
    {
      "inputs": [],
      "name": "currentTokenId",
      "outputs": [
        {
          "internalType": "uint256",
          "name": "",
          "type": "uint256"
        }
      ],
      "stateMutability": "view",
      "type": "function"
    },
    {
      "inputs": [
        {
          "components": [
            {
              "internalType": "address payable",
              "name": "implementation",
              "type": "address"
            },
            {
              "components": [
                {
                  "internalType": "address",
                  "name": "currency",
                  "type": "address"
                },
                {
                  "internalType": "uint256",
                  "name": "premium",
                  "type": "uint256"
                },
                {
                  "internalType": "address",
                  "name": "feeRecipient",
                  "type": "address"
                },
                {
                  "internalType": "uint16",
                  "name": "mintFeePercent",
                  "type": "uint16"
                },
                {
                  "internalType": "uint16",
                  "name": "burnFeePercent",
                  "type": "uint16"
                }
              ],
              "internalType": "struct Asset",
              "name": "asset",
              "type": "tuple"
            },
            {
              "internalType": "bytes",
              "name": "immutableData",
              "type": "bytes"
            },
            {
              "internalType": "bytes",
              "name": "initData",
              "type": "bytes"
            }
          ],
          "internalType": "struct AgencySettings",
          "name": "agencySettings",
          "type": "tuple"
        },
        {
          "components": [
            {
              "internalType": "address",
              "name": "implementation",
              "type": "address"
            },
            {
              "internalType": "bytes",
              "name": "immutableData",
              "type": "bytes"
            },
            {
              "internalType": "bytes",
              "name": "initData",
              "type": "bytes"
            }
          ],
          "internalType": "struct AppSettings",
          "name": "appSettings",
          "type": "tuple"
        },
        {
          "internalType": "bytes",
          "name": "",
          "type": "bytes"
        }
      ],
      "name": "deployWrap",
      "outputs": [
        {
          "internalType": "address",
          "name": "",
          "type": "address"
        },
        {
          "internalType": "address",
          "name": "",
          "type": "address"
        }
      ],
      "stateMutability": "nonpayable",
      "type": "function"
    },
    {
      "inputs": [],
      "name": "factory",
      "outputs": [
        {
          "internalType": "contract ERC7527Factory",
          "name": "",
          "type": "address"
        }
      ],
      "stateMutability": "view",
      "type": "function"
    },
    {
      "inputs": [
        {
          "internalType": "uint256",
          "name": "_tokenId",
          "type": "uint256"
        }
      ],
      "name": "getAbrasion",
      "outputs": [
        {
          "internalType": "uint256",
          "name": "",
          "type": "uint256"
        }
      ],
      "stateMutability": "view",
      "type": "function"
    },
    {
      "inputs": [
        {
          "internalType": "uint256",
          "name": "_tokenId",
          "type": "uint256"
        }
      ],
      "name": "getComId",
      "outputs": [
        {
          "internalType": "uint256",
          "name": "",
          "type": "uint256"
        }
      ],
      "stateMutability": "view",
      "type": "function"
    },
    {
      "inputs": [
        {
          "internalType": "uint256",
          "name": "_tokenId",
          "type": "uint256"
        }
      ],
      "name": "getComIdByTokenId",
      "outputs": [
        {
          "internalType": "uint8",
          "name": "",
          "type": "uint8"
        }
      ],
      "stateMutability": "view",
      "type": "function"
    },
    {
      "inputs": [
        {
          "internalType": "uint256",
          "name": "_tokenId",
          "type": "uint256"
        }
      ],
      "name": "getMaxTimeUp",
      "outputs": [
        {
          "internalType": "uint256",
          "name": "",
          "type": "uint256"
        }
      ],
      "stateMutability": "view",
      "type": "function"
    },
    {
      "inputs": [
        {
          "internalType": "address",
          "name": "_address",
          "type": "address"
        }
      ],
      "name": "getProperty",
      "outputs": [
        {
          "internalType": "uint256",
          "name": "speedUp",
          "type": "uint256"
        },
        {
          "internalType": "uint256",
          "name": "maxTimeUp",
          "type": "uint256"
        },
        {
          "internalType": "uint256",
          "name": "punishRate",
          "type": "uint256"
        }
      ],
      "stateMutability": "view",
      "type": "function"
    },
    {
      "inputs": [
        {
          "internalType": "uint256",
          "name": "_tokenId",
          "type": "uint256"
        }
      ],
      "name": "getPunishRate",
      "outputs": [
        {
          "internalType": "uint256",
          "name": "",
          "type": "uint256"
        }
      ],
      "stateMutability": "view",
      "type": "function"
    },
    {
      "inputs": [
        {
          "internalType": "bytes32",
          "name": "role",
          "type": "bytes32"
        }
      ],
      "name": "getRoleAdmin",
      "outputs": [
        {
          "internalType": "bytes32",
          "name": "",
          "type": "bytes32"
        }
      ],
      "stateMutability": "view",
      "type": "function"
    },
    {
      "inputs": [
        {
          "internalType": "uint256",
          "name": "_tokenId",
          "type": "uint256"
        }
      ],
      "name": "getSpeedUp",
      "outputs": [
        {
          "internalType": "uint256",
          "name": "",
          "type": "uint256"
        }
      ],
      "stateMutability": "view",
      "type": "function"
    },
    {
      "inputs": [
        {
          "internalType": "bytes32",
          "name": "role",
          "type": "bytes32"
        },
        {
          "internalType": "address",
          "name": "account",
          "type": "address"
        }
      ],
      "name": "grantRole",
      "outputs": [],
      "stateMutability": "nonpayable",
      "type": "function"
    },
    {
      "inputs": [
        {
          "internalType": "bytes32",
          "name": "role",
          "type": "bytes32"
        },
        {
          "internalType": "address",
          "name": "account",
          "type": "address"
        }
      ],
      "name": "hasRole",
      "outputs": [
        {
          "internalType": "bool",
          "name": "",
          "type": "bool"
        }
      ],
      "stateMutability": "view",
      "type": "function"
    },
    {
      "inputs": [
        {
          "internalType": "address",
          "name": "_tokenAddress",
          "type": "address"
        },
        {
          "internalType": "uint256[][]",
          "name": "_properties",
          "type": "uint256[][]"
        }
      ],
      "name": "initialize",
      "outputs": [],
      "stateMutability": "nonpayable",
      "type": "function"
    },
    {
      "inputs": [],
      "name": "paused",
      "outputs": [
        {
          "internalType": "bool",
          "name": "",
          "type": "bool"
        }
      ],
      "stateMutability": "view",
      "type": "function"
    },
    {
      "inputs": [
        {
          "internalType": "bytes32",
          "name": "role",
          "type": "bytes32"
        },
        {
          "internalType": "address",
          "name": "account",
          "type": "address"
        }
      ],
      "name": "renounceRole",
      "outputs": [],
      "stateMutability": "nonpayable",
      "type": "function"
    },
    {
      "inputs": [
        {
          "internalType": "address",
          "name": "_carAddress",
          "type": "address"
        },
        {
          "internalType": "uint256",
          "name": "_abrasion",
          "type": "uint256"
        }
      ],
      "name": "repair",
      "outputs": [],
      "stateMutability": "nonpayable",
      "type": "function"
    },
    {
      "inputs": [
        {
          "internalType": "bytes32",
          "name": "role",
          "type": "bytes32"
        },
        {
          "internalType": "address",
          "name": "account",
          "type": "address"
        }
      ],
      "name": "revokeRole",
      "outputs": [],
      "stateMutability": "nonpayable",
      "type": "function"
    },
    {
      "inputs": [
        {
          "internalType": "uint256",
          "name": "_tokenId",
          "type": "uint256"
        }
      ],
      "name": "sell",
      "outputs": [],
      "stateMutability": "nonpayable",
      "type": "function"
    },
    {
      "inputs": [
        {
          "internalType": "bytes4",
          "name": "interfaceId",
          "type": "bytes4"
        }
      ],
      "name": "supportsInterface",
      "outputs": [
        {
          "internalType": "bool",
          "name": "",
          "type": "bool"
        }
      ],
      "stateMutability": "view",
      "type": "function"
    },
    {
      "inputs": [
        {
          "internalType": "address",
          "name": "_carAddress",
          "type": "address"
        },
        {
          "internalType": "uint256",
          "name": "_abrasion",
          "type": "uint256"
        }
      ],
      "name": "wear",
      "outputs": [],
      "stateMutability": "nonpayable",
      "type": "function"
    }
  ],
  "bytecode": "0x60806040523480156200001157600080fd5b50620000226200002860201b60201c565b620001d2565b600060019054906101000a900460ff16156200007b576040517f08c379a0000000000000000000000000000000000000000000000000000000008152600401620000729062000175565b60405180910390fd5b60ff801660008054906101000a900460ff1660ff1614620000ec5760ff6000806101000a81548160ff021916908360ff1602179055507f7f26b83ff96e1f2b6a682f133852f6798a09c465da95921460cefb384740249860ff604051620000e39190620001b5565b60405180910390a15b565b600082825260208201905092915050565b7f496e697469616c697a61626c653a20636f6e747261637420697320696e69746960008201527f616c697a696e6700000000000000000000000000000000000000000000000000602082015250565b60006200015d602783620000ee565b91506200016a82620000ff565b604082019050919050565b6000602082019050818103600083015262000190816200014e565b9050919050565b600060ff82169050919050565b620001af8162000197565b82525050565b6000602082019050620001cc6000830184620001a4565b92915050565b61a0aa80620001e26000396000f3fe608060405260043610620001ed5760003560e01c8063784608dc116200010f578063b80acde811620000a3578063e4849b32116200006d578063e4849b321462000753578063f72c0d8b1462000781578063f8046eea14620007b1578063f953bf0714620007f557620001ed565b8063b80acde81462000683578063c45a015514620006b1578063c8c981f914620006e1578063d547741f146200072557620001ed565b806391d1485411620000e557806391d148541462000599578063952ba6d414620005dd578063a217fddf1462000623578063b76564bd146200065357620001ed565b8063784608dc14620004f757806381b72e5b1462000527578063856ce423146200056b57620001ed565b806336568abe1162000187578063413c0c18116200015d578063413c0c1814620004335780634ac8971414620004775780635c975abb146200049757806367bc87fa14620004c757620001ed565b806336568abe14620003a55780633acb92c214620003d35780633b91ee26146200040357620001ed565b80631e482f9d11620001c95780631e482f9d14620002ab578063248a9ca314620002ef5780632e4924bd14620003335780632f2ff15d146200037757620001ed565b80629a9b7b14620001f257806301ffc9a714620002225780630f4789911462000266575b600080fd5b348015620001ff57600080fd5b506200020a62000823565b60405162000219919062002bfa565b60405180910390f35b3480156200022f57600080fd5b506200024e600480360381019062000248919062002c88565b62000845565b6040516200025d919062002cd7565b60405180910390f35b3480156200027357600080fd5b506200029260048036038101906200028c919062002dac565b620008c2565b604051620002a292919062002eaf565b60405180910390f35b348015620002b857600080fd5b50620002d76004803603810190620002d1919062002f0d565b62000c25565b604051620002e6919062002f5d565b60405180910390f35b348015620002fc57600080fd5b506200031b600480360381019062000315919062002fb5565b62000c52565b6040516200032a919062002ff8565b60405180910390f35b3480156200034057600080fd5b506200035f600480360381019062000359919062002f0d565b62000c72565b6040516200036e919062002bfa565b60405180910390f35b3480156200038457600080fd5b50620003a360048036038101906200039d919062003046565b62000ca2565b005b348015620003b257600080fd5b50620003d16004803603810190620003cb919062003046565b62000cc9565b005b348015620003e057600080fd5b50620003eb62000d53565b604051620003fa919062002ff8565b60405180910390f35b3480156200041057600080fd5b506200041b62000d77565b6040516200042a9190620030f8565b60405180910390f35b3480156200044057600080fd5b506200045f600480360381019062000459919062002f0d565b62000d9d565b6040516200046e919062002bfa565b60405180910390f35b6200049560048036038101906200048f919062003146565b62000dbd565b005b348015620004a457600080fd5b50620004af62001243565b604051620004be919062002cd7565b60405180910390f35b348015620004d457600080fd5b50620004df6200125a565b604051620004ee91906200318d565b60405180910390f35b3480156200050457600080fd5b506200050f62001280565b6040516200051e91906200318d565b60405180910390f35b3480156200053457600080fd5b506200055360048036038101906200054d919062002f0d565b620012a6565b60405162000562919062002bfa565b60405180910390f35b3480156200057857600080fd5b50620005976004803603810190620005919190620031aa565b620012c6565b005b348015620005a657600080fd5b50620005c56004803603810190620005bf919062003046565b620014a2565b604051620005d4919062002cd7565b60405180910390f35b348015620005ea57600080fd5b50620006096004803603810190620006039190620031f1565b6200150d565b6040516200061a9392919062003223565b60405180910390f35b3480156200063057600080fd5b506200063b620016fb565b6040516200064a919062002ff8565b60405180910390f35b3480156200066057600080fd5b506200066b62001702565b6040516200067a919062003299565b60405180910390f35b3480156200069057600080fd5b50620006af6004803603810190620006a9919062003518565b62001728565b005b348015620006be57600080fd5b50620006c962001ca6565b604051620006d89190620035a3565b60405180910390f35b348015620006ee57600080fd5b506200070d600480360381019062000707919062002f0d565b62001ccc565b6040516200071c919062002bfa565b60405180910390f35b3480156200073257600080fd5b506200075160048036038101906200074b919062003046565b62001cec565b005b3480156200076057600080fd5b506200077f600480360381019062000779919062002f0d565b62001d13565b005b3480156200078e57600080fd5b506200079962001ffb565b604051620007a8919062002ff8565b60405180910390f35b348015620007be57600080fd5b50620007dd6004803603810190620007d7919062002f0d565b6200201f565b604051620007ec919062002bfa565b60405180910390f35b3480156200080257600080fd5b506200082160048036038101906200081b9190620031aa565b6200203c565b005b600060d2546200083460d162002218565b620008409190620035ef565b905090565b60007f7965db0b000000000000000000000000000000000000000000000000000000007bffffffffffffffffffffffffffffffffffffffffffffffffffffffff1916827bffffffffffffffffffffffffffffffffffffffffffffffffffffffff19161480620008bb5750620008ba8262002226565b5b9050919050565b60008060006200095a868060200190620008dd919062003639565b8080601f016020809104026020016040519081016040528093929190818152602001838380828437600081840152601f19601f82011690508083019250505050505050876000016020810190620009359190620031f1565b73ffffffffffffffffffffffffffffffffffffffff166200229090919063ffffffff16565b9050600062000a3f828960200160000160208101906200097b9190620031f1565b8a602001602001358b60200160400160208101906200099b9190620031f1565b8c6020016060016020810190620009b39190620036e4565b8d6020016080016020810190620009cb9190620036e4565b8e8060c00190620009dd919062003639565b604051602001620009f69897969594939291906200380a565b60405160208183030381529060405289600001602081019062000a1a9190620038dc565b73ffffffffffffffffffffffffffffffffffffffff166200229090919063ffffffff16565b90508173ffffffffffffffffffffffffffffffffffffffff166339b3d243826040518263ffffffff1660e01b815260040162000a7c91906200391f565b600060405180830381600087803b15801562000a9757600080fd5b505af115801562000aac573d6000803e3d6000fd5b505050506000888060e0019062000ac4919062003639565b90501462000b62576000808273ffffffffffffffffffffffffffffffffffffffff168a8060e0019062000af8919062003639565b60405162000b089291906200393c565b6000604051808303816000865af19150503d806000811462000b47576040519150601f19603f3d011682016040523d82523d6000602084013e62000b4c565b606091505b50915091508162000b5f57805160208201fd5b50505b600087806040019062000b76919062003639565b90501462000c14576000808373ffffffffffffffffffffffffffffffffffffffff1689806040019062000baa919062003639565b60405162000bba9291906200393c565b6000604051808303816000865af19150503d806000811462000bf9576040519150601f19603f3d011682016040523d82523d6000602084013e62000bfe565b606091505b50915091508162000c1157805160208201fd5b50505b818193509350505094509492505050565b600060c9600083815260200190815260200160002060000160009054906101000a900460ff169050919050565b600060656000838152602001908152602001600020600101549050919050565b600060c9600083815260200190815260200160002060000160009054906101000a900460ff1660ff169050919050565b62000cad8262000c52565b62000cb8816200246d565b62000cc4838362002485565b505050565b62000cd36200256b565b73ffffffffffffffffffffffffffffffffffffffff168173ffffffffffffffffffffffffffffffffffffffff161462000d43576040517f08c379a000000000000000000000000000000000000000000000000000000000815260040162000d3a90620039de565b60405180910390fd5b62000d4f828262002573565b5050565b7f6a64baf327d646d1bca72653e2a075d15fd6ac6d8cbd7f6ee03fc55875e0fa8881565b60ce60009054906101000a900473ffffffffffffffffffffffffffffffffffffffff1681565b600060c96000838152602001908152602001600020600101549050919050565b600062000dc962000823565b905062000dd760d16200265a565b60cb805490508360ff161115801562000df3575060008360ff16115b62000e35576040517f08c379a000000000000000000000000000000000000000000000000000000000815260040162000e2c9062003a50565b60405180910390fd5b60cb60008154811062000e4d5762000e4c62003a72565b5b90600052602060002001805490508260ff161115801562000e71575060008260ff16115b62000eb3576040517f08c379a000000000000000000000000000000000000000000000000000000000815260040162000eaa9062003af1565b60405180910390fd5b600080600060018660ff160362000f2f5760cb60018762000ed5919062003b13565b60ff168154811062000eec5762000eeb62003a72565b5b9060005260206000200160018662000f05919062003b13565b60ff168154811062000f1c5762000f1b62003a72565b5b906000526020600020015492506200101a565b60028660ff160362000fa65760cb60018762000f4c919062003b13565b60ff168154811062000f635762000f6262003a72565b5b9060005260206000200160018662000f7c919062003b13565b60ff168154811062000f935762000f9262003a72565b5b9060005260206000200154915062001019565b60038660ff1603620010185760cb60018762000fc3919062003b13565b60ff168154811062000fda5762000fd962003a72565b5b9060005260206000200160018662000ff3919062003b13565b60ff16815481106200100a576200100962003a72565b5b906000526020600020015490505b5b5b600060cd60009054906101000a900473ffffffffffffffffffffffffffffffffffffffff1673ffffffffffffffffffffffffffffffffffffffff16638ba6cd033387896040516020016200107092919062003b4f565b6040516020818303038152906040526040518363ffffffff1660e01b81526004016200109e92919062003c05565b6020604051808303816000875af1158015620010be573d6000803e3d6000fd5b505050506040513d601f19601f82011682018060405250810190620010e4919062003c50565b90506040518060a001604052808860ff1681526020018760ff1681526020018581526020018481526020018381525060c9600087815260200190815260200160002060008201518160000160006101000a81548160ff021916908360ff16021790555060208201518160000160016101000a81548160ff021916908360ff160217905550604082015181600101556060820151816002015560808201518160030155905050606460ca600087815260200190815260200160002081905550848114620011e7576040517f08c379a0000000000000000000000000000000000000000000000000000000008152600401620011de9062003cd2565b60405180910390fd5b843373ffffffffffffffffffffffffffffffffffffffff167f532513a2a2b9c518cb89d11c0131078cffdc5d454ac7c3fcc85a72dbfc6c5c1589896040516200123292919062003cf4565b60405180910390a350505050505050565b6000609760009054906101000a900460ff16905090565b60cd60009054906101000a900473ffffffffffffffffffffffffffffffffffffffff1681565b60cc60009054906101000a900473ffffffffffffffffffffffffffffffffffffffff1681565b600060c96000838152602001908152602001600020600201549050919050565b7f6a64baf327d646d1bca72653e2a075d15fd6ac6d8cbd7f6ee03fc55875e0fa88620012f2816200246d565b600060cc60009054906101000a900473ffffffffffffffffffffffffffffffffffffffff1673ffffffffffffffffffffffffffffffffffffffff166370a08231856040518263ffffffff1660e01b81526004016200135191906200318d565b602060405180830381865afa1580156200136f573d6000803e3d6000fd5b505050506040513d601f19601f8201168201806040525081019062001395919062003c50565b905060005b818110156200149b57600060cc60009054906101000a900473ffffffffffffffffffffffffffffffffffffffff1673ffffffffffffffffffffffffffffffffffffffff16632f745c5987846040518363ffffffff1660e01b81526004016200140492919062003d21565b602060405180830381865afa15801562001422573d6000803e3d6000fd5b505050506040513d601f19601f8201168201806040525081019062001448919062003c50565b905062001456818662002670565b84817f9d56fbed542905e7381399f5356599264790c2003d477fe1260e727b96fa3a6e60405160405180910390a3508080620014929062003d4e565b9150506200139a565b5050505050565b60006065600084815260200190815260200160002060000160008373ffffffffffffffffffffffffffffffffffffffff1673ffffffffffffffffffffffffffffffffffffffff16815260200190815260200160002060009054906101000a900460ff16905092915050565b60008060008060cc60009054906101000a900473ffffffffffffffffffffffffffffffffffffffff1673ffffffffffffffffffffffffffffffffffffffff166370a08231866040518263ffffffff1660e01b81526004016200157091906200318d565b602060405180830381865afa1580156200158e573d6000803e3d6000fd5b505050506040513d601f19601f82011682018060405250810190620015b4919062003c50565b905060005b81811015620016f257600060cc60009054906101000a900473ffffffffffffffffffffffffffffffffffffffff1673ffffffffffffffffffffffffffffffffffffffff16632f745c5988846040518363ffffffff1660e01b81526004016200162392919062003d21565b602060405180830381865afa15801562001641573d6000803e3d6000fd5b505050506040513d601f19601f8201168201806040525081019062001667919062003c50565b905060c9600082815260200190815260200160002060010154866200168d9190620035ef565b955060c960008281526020019081526020016000206002015485620016b39190620035ef565b945060c960008281526020019081526020016000206003015484620016d99190620035ef565b9350508080620016e99062003d4e565b915050620015b9565b50509193909250565b6000801b81565b60cf60009054906101000a900473ffffffffffffffffffffffffffffffffffffffff1681565b60008060019054906101000a900460ff161590508080156200175a5750600160008054906101000a900460ff1660ff16105b806200178b57506200176c30620026dc565b1580156200178a5750600160008054906101000a900460ff1660ff16145b5b620017cd576040517f08c379a0000000000000000000000000000000000000000000000000000000008152600401620017c49062003e11565b60405180910390fd5b60016000806101000a81548160ff021916908360ff16021790555080156200180b576001600060016101000a81548160ff0219169083151502179055505b604051620018199062002a92565b604051809103906000f08015801562001836573d6000803e3d6000fd5b5060ce60006101000a81548173ffffffffffffffffffffffffffffffffffffffff021916908373ffffffffffffffffffffffffffffffffffffffff160217905550604051620018859062002aa0565b604051809103906000f080158015620018a2573d6000803e3d6000fd5b5060cf60006101000a81548173ffffffffffffffffffffffffffffffffffffffff021916908373ffffffffffffffffffffffffffffffffffffffff160217905550604051620018f19062002aae565b604051809103906000f0801580156200190e573d6000803e3d6000fd5b5060d060006101000a81548173ffffffffffffffffffffffffffffffffffffffff021916908373ffffffffffffffffffffffffffffffffffffffff16021790555060006040518060a001604052808573ffffffffffffffffffffffffffffffffffffffff16815260200167016345785d8a000081526020013373ffffffffffffffffffffffffffffffffffffffff168152602001600a61ffff168152602001600a61ffff1681525090506000604051806080016040528060ce60009054906101000a900473ffffffffffffffffffffffffffffffffffffffff1673ffffffffffffffffffffffffffffffffffffffff1681526020018381526020016040518060200160405280600081525081526020016040518060200160405280600081525081525090506000604051806060016040528060cf60009054906101000a900473ffffffffffffffffffffffffffffffffffffffff1673ffffffffffffffffffffffffffffffffffffffff16815260200160405180602001604052806000815250815260200160405180602001604052806000815250815250905060d060009054906101000a900473ffffffffffffffffffffffffffffffffffffffff1673ffffffffffffffffffffffffffffffffffffffff16630f4789918383604051806020016040528060008152506040518463ffffffff1660e01b815260040162001b18939291906200400b565b60408051808303816000875af115801562001b37573d6000803e3d6000fd5b505050506040513d601f19601f8201168201806040525081019062001b5d919062004074565b60cc600060cd60008491906101000a81548173ffffffffffffffffffffffffffffffffffffffff021916908373ffffffffffffffffffffffffffffffffffffffff1602179055508391906101000a81548173ffffffffffffffffffffffffffffffffffffffff021916908373ffffffffffffffffffffffffffffffffffffffff160217905550505062001bf46000801b3362002485565b62001c207f189ab7a9244df0848122154315af71fe140f3db0fe014031783b0946b8c9d2e33362002485565b8460cb908051906020019062001c3892919062002abc565b506103e860d281905550505050801562001ca15760008060016101000a81548160ff0219169083151502179055507f7f26b83ff96e1f2b6a682f133852f6798a09c465da95921460cefb3847402498600160405162001c989190620040fe565b60405180910390a15b505050565b60d060009054906101000a900473ffffffffffffffffffffffffffffffffffffffff1681565b600060c96000838152602001908152602001600020600301549050919050565b62001cf78262000c52565b62001d02816200246d565b62001d0e838362002573565b505050565b3373ffffffffffffffffffffffffffffffffffffffff1660cc60009054906101000a900473ffffffffffffffffffffffffffffffffffffffff1673ffffffffffffffffffffffffffffffffffffffff16636352211e836040518263ffffffff1660e01b815260040162001d87919062002bfa565b602060405180830381865afa15801562001da5573d6000803e3d6000fd5b505050506040513d601f19601f8201168201806040525081019062001dcb91906200411b565b73ffffffffffffffffffffffffffffffffffffffff161462001e24576040517f08c379a000000000000000000000000000000000000000000000000000000000815260040162001e1b90620041c3565b60405180910390fd5b600060ca60008381526020019081526020016000205460405160200162001e4c919062002bfa565b604051602081830303815290604052905060cd60009054906101000a900473ffffffffffffffffffffffffffffffffffffffff1673ffffffffffffffffffffffffffffffffffffffff16633c6e2f223384846040518463ffffffff1660e01b815260040162001ebe939291906200420a565b600060405180830381600087803b15801562001ed957600080fd5b505af115801562001eee573d6000803e3d6000fd5b505050506040518060a00160405280600060ff168152602001600060ff1681526020016000815260200160008152602001600081525060c9600084815260200190815260200160002060008201518160000160006101000a81548160ff021916908360ff16021790555060208201518160000160016101000a81548160ff021916908360ff160217905550604082015181600101556060820151816002015560808201518160030155905050600060ca600084815260200190815260200160002081905550813373ffffffffffffffffffffffffffffffffffffffff167f5e5e995ce3133561afceaa51a9a154d5db228cd7525d34df5185582c18d3df0960405160405180910390a35050565b7f189ab7a9244df0848122154315af71fe140f3db0fe014031783b0946b8c9d2e381565b600060ca6000838152602001908152602001600020549050919050565b7f6a64baf327d646d1bca72653e2a075d15fd6ac6d8cbd7f6ee03fc55875e0fa8862002068816200246d565b600060cc60009054906101000a900473ffffffffffffffffffffffffffffffffffffffff1673ffffffffffffffffffffffffffffffffffffffff166370a08231856040518263ffffffff1660e01b8152600401620020c791906200318d565b602060405180830381865afa158015620020e5573d6000803e3d6000fd5b505050506040513d601f19601f820116820180604052508101906200210b919062003c50565b905060005b818110156200221157600060cc60009054906101000a900473ffffffffffffffffffffffffffffffffffffffff1673ffffffffffffffffffffffffffffffffffffffff16632f745c5987846040518363ffffffff1660e01b81526004016200217a92919062003d21565b602060405180830381865afa15801562002198573d6000803e3d6000fd5b505050506040513d601f19601f82011682018060405250810190620021be919062003c50565b9050620021cc8186620026ff565b84817fce2cb8b9b35a396250f020799bbe1c6be8b0bfcbc7e6fed05f4226118078791d60405160405180910390a3508080620022089062003d4e565b91505062002110565b5050505050565b600081600001549050919050565b60007f01ffc9a7000000000000000000000000000000000000000000000000000000007bffffffffffffffffffffffffffffffffffffffffffffffffffffffff1916827bffffffffffffffffffffffffffffffffffffffffffffffffffffffff1916149050919050565b6000806002835101905060008160410190506000600a8203905060008060405190507f610000000000000000000000000000000000000000000000000000000000000081528260f01b60018201527f3d81600a3d39f33d3d3d3d363d3d37610000000000000000000000000000000060038201528460f01b60138201527f603736393661000000000000000000000000000000000000000000000000000060158201528460f01b601b8201527f013d730000000000000000000000000000000000000000000000000000000000601d8201528760601b60208201527f5af43d3d93803e603557fd5bf3000000000000000000000000000000000000006034820152600285039450600085905060006041830190506020890193505b60208210620023d05783518152602081019050602084019350602082039150620023ab565b60006001836020036101000a0319905080855116825282820191508760f01b825286846000f09850600073ffffffffffffffffffffffffffffffffffffffff168973ffffffffffffffffffffffffffffffffffffffff16036200245f576040517febfef18800000000000000000000000000000000000000000000000000000000815260040160405180910390fd5b505050505050505092915050565b62002482816200247c6200256b565b62002778565b50565b620024918282620014a2565b620025675760016065600084815260200190815260200160002060000160008373ffffffffffffffffffffffffffffffffffffffff1673ffffffffffffffffffffffffffffffffffffffff16815260200190815260200160002060006101000a81548160ff0219169083151502179055506200250c6200256b565b73ffffffffffffffffffffffffffffffffffffffff168173ffffffffffffffffffffffffffffffffffffffff16837f2f8788117e7eff1d82e926ec794901d17c78024a50270940304540a733656f0d60405160405180910390a45b5050565b600033905090565b6200257f8282620014a2565b15620026565760006065600084815260200190815260200160002060000160008373ffffffffffffffffffffffffffffffffffffffff1673ffffffffffffffffffffffffffffffffffffffff16815260200190815260200160002060006101000a81548160ff021916908315150217905550620025fb6200256b565b73ffffffffffffffffffffffffffffffffffffffff168173ffffffffffffffffffffffffffffffffffffffff16837ff6391f5c32d9c69d2a47ea670b442974b53935d1edc7fd64eb21e047a839171b60405160405180910390a45b5050565b6001816000016000828254019250508190555050565b8060ca6000848152602001908152602001600020541115620026be578060ca60008481526020019081526020016000206000828254620026b191906200424e565b92505081905550620026d8565b600060ca6000848152602001908152602001600020819055505b5050565b6000808273ffffffffffffffffffffffffffffffffffffffff163b119050919050565b60648160ca600085815260200190815260200160002054620027229190620035ef565b11156200274657606460ca6000848152602001908152602001600020505062002774565b606460ca600084815260200190815260200160002060008282546200276c9190620035ef565b925050819055505b5050565b620027848282620014a2565b6200280457620027948162002808565b620027a48360001c602062002837565b604051602001620027b792919062004376565b6040516020818303038152906040526040517f08c379a0000000000000000000000000000000000000000000000000000000008152600401620027fb9190620043f9565b60405180910390fd5b5050565b6060620028308273ffffffffffffffffffffffffffffffffffffffff16601460ff1662002837565b9050919050565b6060600060028360026200284c91906200441d565b620028589190620035ef565b67ffffffffffffffff811115620028745762002873620032c7565b5b6040519080825280601f01601f191660200182016040528015620028a75781602001600182028036833780820191505090505b5090507f300000000000000000000000000000000000000000000000000000000000000081600081518110620028e257620028e162003a72565b5b60200101907effffffffffffffffffffffffffffffffffffffffffffffffffffffffffffff1916908160001a9053507f78000000000000000000000000000000000000000000000000000000000000008160018151811062002949576200294862003a72565b5b60200101907effffffffffffffffffffffffffffffffffffffffffffffffffffffffffffff1916908160001a905350600060018460026200298b91906200441d565b620029979190620035ef565b90505b600181111562002a41577f3031323334353637383961626364656600000000000000000000000000000000600f861660108110620029dd57620029dc62003a72565b5b1a60f81b828281518110620029f757620029f662003a72565b5b60200101907effffffffffffffffffffffffffffffffffffffffffffffffffffffffffffff1916908160001a905350600485901c94508062002a399062004468565b90506200299a565b506000841462002a88576040517f08c379a000000000000000000000000000000000000000000000000000000000815260040162002a7f90620044e6565b60405180910390fd5b8091505092915050565b61157b806200450983390190565b613b1b8062005a8483390190565b610ad6806200959f83390190565b82805482825590600052602060002090810192821562002b10579160200282015b8281111562002b0f57825182908051906020019062002afe92919062002b23565b509160200191906001019062002add565b5b50905062002b1f919062002b75565b5090565b82805482825590600052602060002090810192821562002b62579160200282015b8281111562002b6157825182559160200191906001019062002b44565b5b50905062002b71919062002b9d565b5090565b5b8082111562002b99576000818162002b8f919062002bbc565b5060010162002b76565b5090565b5b8082111562002bb857600081600090555060010162002b9e565b5090565b508054600082559060005260206000209081019062002bdc919062002b9d565b50565b6000819050919050565b62002bf48162002bdf565b82525050565b600060208201905062002c11600083018462002be9565b92915050565b6000604051905090565b600080fd5b600080fd5b60007fffffffff0000000000000000000000000000000000000000000000000000000082169050919050565b62002c628162002c2b565b811462002c6e57600080fd5b50565b60008135905062002c828162002c57565b92915050565b60006020828403121562002ca15762002ca062002c21565b5b600062002cb18482850162002c71565b91505092915050565b60008115159050919050565b62002cd18162002cba565b82525050565b600060208201905062002cee600083018462002cc6565b92915050565b600080fd5b6000610100828403121562002d135762002d1262002cf4565b5b81905092915050565b60006060828403121562002d355762002d3462002cf4565b5b81905092915050565b600080fd5b600080fd5b600080fd5b60008083601f84011262002d665762002d6562002d3e565b5b8235905067ffffffffffffffff81111562002d865762002d8562002d43565b5b60208301915083600182028301111562002da55762002da462002d48565b5b9250929050565b6000806000806060858703121562002dc95762002dc862002c21565b5b600085013567ffffffffffffffff81111562002dea5762002de962002c26565b5b62002df88782880162002cf9565b945050602085013567ffffffffffffffff81111562002e1c5762002e1b62002c26565b5b62002e2a8782880162002d1c565b935050604085013567ffffffffffffffff81111562002e4e5762002e4d62002c26565b5b62002e5c8782880162002d4d565b925092505092959194509250565b600073ffffffffffffffffffffffffffffffffffffffff82169050919050565b600062002e978262002e6a565b9050919050565b62002ea98162002e8a565b82525050565b600060408201905062002ec6600083018562002e9e565b62002ed5602083018462002e9e565b9392505050565b62002ee78162002bdf565b811462002ef357600080fd5b50565b60008135905062002f078162002edc565b92915050565b60006020828403121562002f265762002f2562002c21565b5b600062002f368482850162002ef6565b91505092915050565b600060ff82169050919050565b62002f578162002f3f565b82525050565b600060208201905062002f74600083018462002f4c565b92915050565b6000819050919050565b62002f8f8162002f7a565b811462002f9b57600080fd5b50565b60008135905062002faf8162002f84565b92915050565b60006020828403121562002fce5762002fcd62002c21565b5b600062002fde8482850162002f9e565b91505092915050565b62002ff28162002f7a565b82525050565b60006020820190506200300f600083018462002fe7565b92915050565b620030208162002e8a565b81146200302c57600080fd5b50565b600081359050620030408162003015565b92915050565b6000806040838503121562003060576200305f62002c21565b5b6000620030708582860162002f9e565b925050602062003083858286016200302f565b9150509250929050565b6000819050919050565b6000620030b8620030b2620030ac8462002e6a565b6200308d565b62002e6a565b9050919050565b6000620030cc8262003097565b9050919050565b6000620030e082620030bf565b9050919050565b620030f281620030d3565b82525050565b60006020820190506200310f6000830184620030e7565b92915050565b620031208162002f3f565b81146200312c57600080fd5b50565b600081359050620031408162003115565b92915050565b6000806040838503121562003160576200315f62002c21565b5b600062003170858286016200312f565b925050602062003183858286016200312f565b9150509250929050565b6000602082019050620031a4600083018462002e9e565b92915050565b60008060408385031215620031c457620031c362002c21565b5b6000620031d4858286016200302f565b9250506020620031e78582860162002ef6565b9150509250929050565b6000602082840312156200320a576200320962002c21565b5b60006200321a848285016200302f565b91505092915050565b60006060820190506200323a600083018662002be9565b62003249602083018562002be9565b62003258604083018462002be9565b949350505050565b60006200326d8262003097565b9050919050565b6000620032818262003260565b9050919050565b620032938162003274565b82525050565b6000602082019050620032b0600083018462003288565b92915050565b6000601f19601f8301169050919050565b7f4e487b7100000000000000000000000000000000000000000000000000000000600052604160045260246000fd5b6200330182620032b6565b810181811067ffffffffffffffff82111715620033235762003322620032c7565b5b80604052505050565b60006200333862002c17565b9050620033468282620032f6565b919050565b600067ffffffffffffffff821115620033695762003368620032c7565b5b602082029050602081019050919050565b600067ffffffffffffffff821115620033985762003397620032c7565b5b602082029050602081019050919050565b6000620033c0620033ba846200337a565b6200332c565b90508083825260208201905060208402830185811115620033e657620033e562002d48565b5b835b81811015620034135780620033fe888262002ef6565b845260208401935050602081019050620033e8565b5050509392505050565b600082601f83011262003435576200343462002d3e565b5b813562003447848260208601620033a9565b91505092915050565b60006200346762003461846200334b565b6200332c565b905080838252602082019050602084028301858111156200348d576200348c62002d48565b5b835b81811015620034db57803567ffffffffffffffff811115620034b657620034b562002d3e565b5b808601620034c589826200341d565b855260208501945050506020810190506200348f565b5050509392505050565b600082601f830112620034fd57620034fc62002d3e565b5b81356200350f84826020860162003450565b91505092915050565b6000806040838503121562003532576200353162002c21565b5b600062003542858286016200302f565b925050602083013567ffffffffffffffff81111562003566576200356562002c26565b5b6200357485828601620034e5565b9150509250929050565b60006200358b8262003260565b9050919050565b6200359d816200357e565b82525050565b6000602082019050620035ba600083018462003592565b92915050565b7f4e487b7100000000000000000000000000000000000000000000000000000000600052601160045260246000fd5b6000620035fc8262002bdf565b9150620036098362002bdf565b9250828201905080821115620036245762003623620035c0565b5b92915050565b600080fd5b600080fd5b600080fd5b600080833560016020038436030381126200365957620036586200362a565b5b80840192508235915067ffffffffffffffff8211156200367e576200367d6200362f565b5b6020830192506001820236038313156200369d576200369c62003634565b5b509250929050565b600061ffff82169050919050565b620036be81620036a5565b8114620036ca57600080fd5b50565b600081359050620036de81620036b3565b92915050565b600060208284031215620036fd57620036fc62002c21565b5b60006200370d84828501620036cd565b91505092915050565b60008160601b9050919050565b6000620037308262003716565b9050919050565b6000620037448262003723565b9050919050565b620037606200375a8262002e8a565b62003737565b82525050565b6000819050919050565b620037856200377f8262002bdf565b62003766565b82525050565b60008160f01b9050919050565b6000620037a5826200378b565b9050919050565b620037c1620037bb82620036a5565b62003798565b82525050565b600081905092915050565b82818337600083830152505050565b6000620037ef8385620037c7565b9350620037fe838584620037d2565b82840190509392505050565b600062003818828b6200374b565b6014820191506200382a828a6200374b565b6014820191506200383c828962003770565b6020820191506200384e82886200374b565b601482019150620038608287620037ac565b600282019150620038728286620037ac565b60028201915062003885828486620037e1565b91508190509998505050505050505050565b6000620038a48262002e6a565b9050919050565b620038b68162003897565b8114620038c257600080fd5b50565b600081359050620038d681620038ab565b92915050565b600060208284031215620038f557620038f462002c21565b5b60006200390584828501620038c5565b91505092915050565b620039198162003897565b82525050565b60006020820190506200393660008301846200390e565b92915050565b60006200394b828486620037e1565b91508190509392505050565b600082825260208201905092915050565b7f416363657373436f6e74726f6c3a2063616e206f6e6c792072656e6f756e636560008201527f20726f6c657320666f722073656c660000000000000000000000000000000000602082015250565b6000620039c6602f8362003957565b9150620039d38262003968565b604082019050919050565b60006020820190508181036000830152620039f981620039b7565b9050919050565b7f68617665206e6f74207468697320636f6d706f6e656e74000000000000000000600082015250565b600062003a3860178362003957565b915062003a458262003a00565b602082019050919050565b6000602082019050818103600083015262003a6b8162003a29565b9050919050565b7f4e487b7100000000000000000000000000000000000000000000000000000000600052603260045260246000fd5b7f68617665206e6f74207468697320677261646500000000000000000000000000600082015250565b600062003ad960138362003957565b915062003ae68262003aa1565b602082019050919050565b6000602082019050818103600083015262003b0c8162003aca565b9050919050565b600062003b208262002f3f565b915062003b2d8362002f3f565b9250828203905060ff81111562003b495762003b48620035c0565b5b92915050565b600060408201905062003b66600083018562002be9565b62003b75602083018462002f4c565b9392505050565b600081519050919050565b600082825260208201905092915050565b60005b8381101562003bb857808201518184015260208101905062003b9b565b60008484015250505050565b600062003bd18262003b7c565b62003bdd818562003b87565b935062003bef81856020860162003b98565b62003bfa81620032b6565b840191505092915050565b600060408201905062003c1c600083018562002e9e565b818103602083015262003c30818462003bc4565b90509392505050565b60008151905062003c4a8162002edc565b92915050565b60006020828403121562003c695762003c6862002c21565b5b600062003c798482850162003c39565b91505092915050565b7f77726f6e6720746f6b656e204964000000000000000000000000000000000000600082015250565b600062003cba600e8362003957565b915062003cc78262003c82565b602082019050919050565b6000602082019050818103600083015262003ced8162003cab565b9050919050565b600060408201905062003d0b600083018562002f4c565b62003d1a602083018462002f4c565b9392505050565b600060408201905062003d38600083018562002e9e565b62003d47602083018462002be9565b9392505050565b600062003d5b8262002bdf565b91507fffffffffffffffffffffffffffffffffffffffffffffffffffffffffffffffff820362003d905762003d8f620035c0565b5b600182019050919050565b7f496e697469616c697a61626c653a20636f6e747261637420697320616c72656160008201527f647920696e697469616c697a6564000000000000000000000000000000000000602082015250565b600062003df9602e8362003957565b915062003e068262003d9b565b604082019050919050565b6000602082019050818103600083015262003e2c8162003dea565b9050919050565b62003e3e8162003897565b82525050565b62003e4f8162002e8a565b82525050565b62003e608162002bdf565b82525050565b62003e7181620036a5565b82525050565b60a08201600082015162003e8f600085018262003e44565b50602082015162003ea4602085018262003e55565b50604082015162003eb9604085018262003e44565b50606082015162003ece606085018262003e66565b50608082015162003ee3608085018262003e66565b50505050565b600082825260208201905092915050565b600062003f078262003b7c565b62003f13818562003ee9565b935062003f2581856020860162003b98565b62003f3081620032b6565b840191505092915050565b60006101008301600083015162003f56600086018262003e33565b50602083015162003f6b602086018262003e77565b50604083015184820360c086015262003f85828262003efa565b915050606083015184820360e086015262003fa1828262003efa565b9150508091505092915050565b600060608301600083015162003fc8600086018262003e44565b506020830151848203602086015262003fe2828262003efa565b9150506040830151848203604086015262003ffe828262003efa565b9150508091505092915050565b6000606082019050818103600083015262004027818662003f3b565b905081810360208301526200403d818562003fae565b9050818103604083015262004053818462003bc4565b9050949350505050565b6000815190506200406e8162003015565b92915050565b600080604083850312156200408e576200408d62002c21565b5b60006200409e858286016200405d565b9250506020620040b1858286016200405d565b9150509250929050565b6000819050919050565b6000620040e6620040e0620040da84620040bb565b6200308d565b62002f3f565b9050919050565b620040f881620040c5565b82525050565b6000602082019050620041156000830184620040ed565b92915050565b60006020828403121562004134576200413362002c21565b5b600062004144848285016200405d565b91505092915050565b7f4974206973206e6f7420796f757220636f6d706f6e656e74206f7220796f752060008201527f6861766120746f20756e6c6f6164206974000000000000000000000000000000602082015250565b6000620041ab60318362003957565b9150620041b8826200414d565b604082019050919050565b60006020820190508181036000830152620041de816200419c565b9050919050565b6000620041f28262003260565b9050919050565b6200420481620041e5565b82525050565b6000606082019050620042216000830186620041f9565b62004230602083018562002be9565b818103604083015262004244818462003bc4565b9050949350505050565b60006200425b8262002bdf565b9150620042688362002bdf565b9250828203905081811115620042835762004282620035c0565b5b92915050565b600081905092915050565b7f416363657373436f6e74726f6c3a206163636f756e7420000000000000000000600082015250565b6000620042cc60178362004289565b9150620042d98262004294565b601782019050919050565b600081519050919050565b6000620042fc82620042e4565b62004308818562004289565b93506200431a81856020860162003b98565b80840191505092915050565b7f206973206d697373696e6720726f6c6520000000000000000000000000000000600082015250565b60006200435e60118362004289565b91506200436b8262004326565b601182019050919050565b60006200438382620042bd565b9150620043918285620042ef565b91506200439e826200434f565b9150620043ac8284620042ef565b91508190509392505050565b6000620043c582620042e4565b620043d1818562003957565b9350620043e381856020860162003b98565b620043ee81620032b6565b840191505092915050565b60006020820190508181036000830152620044158184620043b8565b905092915050565b60006200442a8262002bdf565b9150620044378362002bdf565b9250828202620044478162002bdf565b91508282048414831517620044615762004460620035c0565b5b5092915050565b6000620044758262002bdf565b9150600082036200448b576200448a620035c0565b5b600182039050919050565b7f537472696e67733a20686578206c656e67746820696e73756666696369656e74600082015250565b6000620044ce60208362003957565b9150620044db8262004496565b602082019050919050565b600060208201905081810360008301526200450181620044bf565b905091905056fe608060405234801561001057600080fd5b5061155b806100206000396000f3fe60806040526004361061004e5760003560e01c806307da06031461005a5780633c6e2f221461008757806346992736146100a35780638ba6cd03146100e15780638e1f14471461011157610055565b3661005557005b600080fd5b34801561006657600080fd5b5061006f61014f565b60405161007e93929190610cad565b60405180910390f35b6100a1600480360381019061009c9190610dbc565b610221565b005b3480156100af57600080fd5b506100ca60048036038101906100c59190610f60565b6104a1565b6040516100d8929190610fb8565b60405180910390f35b6100fb60048036038101906100f69190610fe1565b610521565b6040516101089190611041565b60405180910390f35b34801561011d57600080fd5b5061013860048036038101906101339190610f60565b610849565b604051610146929190610fb8565b60405180910390f35b6000610159610acc565b606060006101656108c9565b905060008060008060008086013560601c9850601486013560601c945060288601359350604886013560601c9250605c86013560f01c9150605e86013560f01c90506040518060a001604052808673ffffffffffffffffffffffffffffffffffffffff1681526020018581526020018473ffffffffffffffffffffffffffffffffffffffff1681526020018361ffff1681526020018261ffff168152509750604051806020016040528060008152509650505050505050909192565b60008061022c61014f565b509150915061023c8232876108dc565b61027b576040517f08c379a0000000000000000000000000000000000000000000000000000000008152600401610272906110b9565b60405180910390fd5b6000848481019061028c91906110d9565b90508273ffffffffffffffffffffffffffffffffffffffff1663fe9d93038787876040518463ffffffff1660e01b81526004016102cb93929190611133565b600060405180830381600087803b1580156102e557600080fd5b505af11580156102f9573d6000803e3d6000fd5b5050505060008373ffffffffffffffffffffffffffffffffffffffff166318160ddd6040518163ffffffff1660e01b8152600401602060405180830381865afa15801561034a573d6000803e3d6000fd5b505050506040513d601f19601f8201168201806040525081019061036e919061117a565b905060008061039b836040516020016103879190611041565b604051602081830303815290604052610849565b91509150846000015173ffffffffffffffffffffffffffffffffffffffff1663a9059cbb8b83606488876103cf91906111d6565b6103d99190611247565b6103e39190611278565b6040518363ffffffff1660e01b81526004016104009291906112ac565b6020604051808303816000875af115801561041f573d6000803e3d6000fd5b505050506040513d601f19601f82011682018060405250810190610443919061130d565b50888a73ffffffffffffffffffffffffffffffffffffffff167f6f3909b7a53c87de0fbb65758a177c9d1137e29b1555684084e2e4161b064b2b848460405161048d929190610fb8565b60405180910390a350505050505050505050565b6000806000838060200190518101906104ba919061117a565b905060006104c661014f565b5091505060648160200151836104dc91906111d6565b6104e69190611247565b81602001516104f5919061133a565b9350612710816060015161ffff168561050e91906111d6565b6105189190611247565b92505050915091565b600080600061052e61014f565b509150915060008273ffffffffffffffffffffffffffffffffffffffff166318160ddd6040518163ffffffff1660e01b8152600401602060405180830381865afa158015610580573d6000803e3d6000fd5b505050506040513d601f19601f820116820180604052508101906105a4919061117a565b90506000806105d1836040516020016105bd9190611041565b6040516020818303038152906040526104a1565b9150915060008089898101906105e791906113a7565b91509150856000015173ffffffffffffffffffffffffffffffffffffffff166323b872dd8c308460ff16878961061d919061133a565b61062791906111d6565b6040518463ffffffff1660e01b8152600401610645939291906113e7565b6020604051808303816000875af1158015610664573d6000803e3d6000fd5b505050506040513d601f19601f82011682018060405250810190610688919061130d565b5060008773ffffffffffffffffffffffffffffffffffffffff1663b510391f8d856040516020016106b99190611041565b6040516020818303038152906040526040518363ffffffff1660e01b81526004016106e592919061141e565b6020604051808303816000875af1158015610704573d6000803e3d6000fd5b505050506040513d601f19601f82011682018060405250810190610728919061117a565b90508773ffffffffffffffffffffffffffffffffffffffff166318160ddd6040518163ffffffff1660e01b8152600401602060405180830381865afa158015610775573d6000803e3d6000fd5b505050506040513d601f19601f82011682018060405250810190610799919061117a565b6001876107a6919061133a565b146107e6576040517f08c379a00000000000000000000000000000000000000000000000000000000081526004016107dd9061149a565b60405180910390fd5b808c73ffffffffffffffffffffffffffffffffffffffff167f53c6313aa0cdb420b390a846db25405b96983737e602bba548f9ade0e4feaec9878760405161082f929190610fb8565b60405180910390a380985050505050505050509392505050565b600080600083806020019051810190610862919061117a565b9050600061086e61014f565b50915050606481602001518361088491906111d6565b61088e9190611247565b816020015161089d919061133a565b9350612710816080015161ffff16856108b691906111d6565b6108c09190611247565b92505050915091565b600060028036033560f01c013603905090565b60008084905060008173ffffffffffffffffffffffffffffffffffffffff16636352211e856040518263ffffffff1660e01b815260040161091d9190611041565b602060405180830381865afa15801561093a573d6000803e3d6000fd5b505050506040513d601f19601f8201168201806040525081019061095e91906114cf565b90508073ffffffffffffffffffffffffffffffffffffffff168573ffffffffffffffffffffffffffffffffffffffff161480610a1257508173ffffffffffffffffffffffffffffffffffffffff1663e985e9c582876040518363ffffffff1660e01b81526004016109d09291906114fc565b602060405180830381865afa1580156109ed573d6000803e3d6000fd5b505050506040513d601f19601f82011682018060405250810190610a11919061130d565b5b80610ac157508473ffffffffffffffffffffffffffffffffffffffff168273ffffffffffffffffffffffffffffffffffffffff1663081812fc866040518263ffffffff1660e01b8152600401610a689190611041565b602060405180830381865afa158015610a85573d6000803e3d6000fd5b505050506040513d601f19601f82011682018060405250810190610aa991906114cf565b73ffffffffffffffffffffffffffffffffffffffff16145b925050509392505050565b6040518060a00160405280600073ffffffffffffffffffffffffffffffffffffffff16815260200160008152602001600073ffffffffffffffffffffffffffffffffffffffff168152602001600061ffff168152602001600061ffff1681525090565b600073ffffffffffffffffffffffffffffffffffffffff82169050919050565b6000610b5a82610b2f565b9050919050565b610b6a81610b4f565b82525050565b610b7981610b4f565b82525050565b6000819050919050565b610b9281610b7f565b82525050565b600061ffff82169050919050565b610baf81610b98565b82525050565b60a082016000820151610bcb6000850182610b70565b506020820151610bde6020850182610b89565b506040820151610bf16040850182610b70565b506060820151610c046060850182610ba6565b506080820151610c176080850182610ba6565b50505050565b600081519050919050565b600082825260208201905092915050565b60005b83811015610c57578082015181840152602081019050610c3c565b60008484015250505050565b6000601f19601f8301169050919050565b6000610c7f82610c1d565b610c898185610c28565b9350610c99818560208601610c39565b610ca281610c63565b840191505092915050565b600060e082019050610cc26000830186610b61565b610ccf6020830185610bb5565b81810360c0830152610ce18184610c74565b9050949350505050565b6000604051905090565b600080fd5b600080fd5b610d0881610b4f565b8114610d1357600080fd5b50565b600081359050610d2581610cff565b92915050565b610d3481610b7f565b8114610d3f57600080fd5b50565b600081359050610d5181610d2b565b92915050565b600080fd5b600080fd5b600080fd5b60008083601f840112610d7c57610d7b610d57565b5b8235905067ffffffffffffffff811115610d9957610d98610d5c565b5b602083019150836001820283011115610db557610db4610d61565b5b9250929050565b60008060008060608587031215610dd657610dd5610cf5565b5b6000610de487828801610d16565b9450506020610df587828801610d42565b935050604085013567ffffffffffffffff811115610e1657610e15610cfa565b5b610e2287828801610d66565b925092505092959194509250565b600080fd5b7f4e487b7100000000000000000000000000000000000000000000000000000000600052604160045260246000fd5b610e6d82610c63565b810181811067ffffffffffffffff82111715610e8c57610e8b610e35565b5b80604052505050565b6000610e9f610ceb565b9050610eab8282610e64565b919050565b600067ffffffffffffffff821115610ecb57610eca610e35565b5b610ed482610c63565b9050602081019050919050565b82818337600083830152505050565b6000610f03610efe84610eb0565b610e95565b905082815260208101848484011115610f1f57610f1e610e30565b5b610f2a848285610ee1565b509392505050565b600082601f830112610f4757610f46610d57565b5b8135610f57848260208601610ef0565b91505092915050565b600060208284031215610f7657610f75610cf5565b5b600082013567ffffffffffffffff811115610f9457610f93610cfa565b5b610fa084828501610f32565b91505092915050565b610fb281610b7f565b82525050565b6000604082019050610fcd6000830185610fa9565b610fda6020830184610fa9565b9392505050565b600080600060408486031215610ffa57610ff9610cf5565b5b600061100886828701610d16565b935050602084013567ffffffffffffffff81111561102957611028610cfa565b5b61103586828701610d66565b92509250509250925092565b60006020820190506110566000830184610fa9565b92915050565b600082825260208201905092915050565b7f4c6e4d6f64756c653a206e6f74206f776e657200000000000000000000000000600082015250565b60006110a360138361105c565b91506110ae8261106d565b602082019050919050565b600060208201905081810360008301526110d281611096565b9050919050565b6000602082840312156110ef576110ee610cf5565b5b60006110fd84828501610d42565b91505092915050565b60006111128385610c28565b935061111f838584610ee1565b61112883610c63565b840190509392505050565b60006040820190506111486000830186610fa9565b818103602083015261115b818486611106565b9050949350505050565b60008151905061117481610d2b565b92915050565b6000602082840312156111905761118f610cf5565b5b600061119e84828501611165565b91505092915050565b7f4e487b7100000000000000000000000000000000000000000000000000000000600052601160045260246000fd5b60006111e182610b7f565b91506111ec83610b7f565b92508282026111fa81610b7f565b91508282048414831517611211576112106111a7565b5b5092915050565b7f4e487b7100000000000000000000000000000000000000000000000000000000600052601260045260246000fd5b600061125282610b7f565b915061125d83610b7f565b92508261126d5761126c611218565b5b828204905092915050565b600061128382610b7f565b915061128e83610b7f565b92508282039050818111156112a6576112a56111a7565b5b92915050565b60006040820190506112c16000830185610b61565b6112ce6020830184610fa9565b9392505050565b60008115159050919050565b6112ea816112d5565b81146112f557600080fd5b50565b600081519050611307816112e1565b92915050565b60006020828403121561132357611322610cf5565b5b6000611331848285016112f8565b91505092915050565b600061134582610b7f565b915061135083610b7f565b9250828201905080821115611368576113676111a7565b5b92915050565b600060ff82169050919050565b6113848161136e565b811461138f57600080fd5b50565b6000813590506113a18161137b565b92915050565b600080604083850312156113be576113bd610cf5565b5b60006113cc85828601610d42565b92505060206113dd85828601611392565b9150509250929050565b60006060820190506113fc6000830186610b61565b6114096020830185610b61565b6114166040830184610fa9565b949350505050565b60006040820190506114336000830185610b61565b81810360208301526114458184610c74565b90509392505050565b7f455243373532374167656e63793a205265656e7472616e637900000000000000600082015250565b600061148460198361105c565b915061148f8261144e565b602082019050919050565b600060208201905081810360008301526114b381611477565b9050919050565b6000815190506114c981610cff565b92915050565b6000602082840312156114e5576114e4610cf5565b5b60006114f3848285016114ba565b91505092915050565b60006040820190506115116000830185610b61565b61151e6020830184610b61565b939250505056fea2646970667358221220bd48fbe275161f165d9087a4967cc19433389960fd8fd3be8ac58bec656c075864736f6c6343000814003360806040523480156200001157600080fd5b506040518060400160405280600c81526020017f636172436f6d706f6e656e7400000000000000000000000000000000000000008152506040518060400160405280600381526020017f434354000000000000000000000000000000000000000000000000000000000081525081600090816200008f919062000324565b508060019081620000a1919062000324565b5050506200040b565b600081519050919050565b7f4e487b7100000000000000000000000000000000000000000000000000000000600052604160045260246000fd5b7f4e487b7100000000000000000000000000000000000000000000000000000000600052602260045260246000fd5b600060028204905060018216806200012c57607f821691505b602082108103620001425762000141620000e4565b5b50919050565b60008190508160005260206000209050919050565b60006020601f8301049050919050565b600082821b905092915050565b600060088302620001ac7fffffffffffffffffffffffffffffffffffffffffffffffffffffffffffffffff826200016d565b620001b886836200016d565b95508019841693508086168417925050509392505050565b6000819050919050565b6000819050919050565b600062000205620001ff620001f984620001d0565b620001da565b620001d0565b9050919050565b6000819050919050565b6200022183620001e4565b6200023962000230826200020c565b8484546200017a565b825550505050565b600090565b6200025062000241565b6200025d81848462000216565b505050565b5b8181101562000285576200027960008262000246565b60018101905062000263565b5050565b601f821115620002d4576200029e8162000148565b620002a9846200015d565b81016020851015620002b9578190505b620002d1620002c8856200015d565b83018262000262565b50505b505050565b600082821c905092915050565b6000620002f960001984600802620002d9565b1980831691505092915050565b6000620003148383620002e6565b9150826002028217905092915050565b6200032f82620000aa565b67ffffffffffffffff8111156200034b576200034a620000b5565b5b62000357825462000113565b6200036482828562000289565b600060209050601f8311600181146200039c576000841562000387578287015190505b62000393858262000306565b86555062000403565b601f198416620003ac8662000148565b60005b82811015620003d657848901518255600182019150602085019450602081019050620003af565b86831015620003f65784890151620003f2601f891682620002e6565b8355505b6001600288020188555050505b505050505050565b613700806200041b6000396000f3fe608060405234801561001057600080fd5b506004361061014d5760003560e01c80636352211e116100c3578063b510391f1161007c578063b510391f146103c4578063b88d4fde146103f4578063c87b56dd14610410578063dbd2e2e214610440578063e985e9c51461045c578063fe9d93031461048c5761014d565b80636352211e146102dc5780636b8ff5741461030c57806370a082311461033c57806395d89b411461036c578063a22cb4651461038a578063b4f35b9a146103a65761014d565b806323b872dd1161011557806323b872dd1461020a5780632f745c591461022657806339b3d2431461025657806342842e0e146102725780634c0f38c21461028e5780634f6ccce7146102ac5761014d565b806301ffc9a71461015257806306fdde0314610182578063081812fc146101a0578063095ea7b3146101d057806318160ddd146101ec575b600080fd5b61016c600480360381019061016791906123fa565b6104a8565b6040516101799190612442565b60405180910390f35b61018a610522565b60405161019791906124ed565b60405180910390f35b6101ba60048036038101906101b59190612545565b6105b4565b6040516101c791906125b3565b60405180910390f35b6101ea60048036038101906101e591906125fa565b6105fa565b005b6101f4610711565b6040516102019190612649565b60405180910390f35b610224600480360381019061021f9190612664565b61071e565b005b610240600480360381019061023b91906125fa565b61077e565b60405161024d9190612649565b60405180910390f35b610270600480360381019061026b91906126f5565b610823565b005b61028c60048036038101906102879190612664565b6108dd565b005b6102966108fd565b6040516102a39190612649565b60405180910390f35b6102c660048036038101906102c19190612545565b610906565b6040516102d39190612649565b60405180910390f35b6102f660048036038101906102f19190612545565b610977565b60405161030391906125b3565b60405180910390f35b61032660048036038101906103219190612545565b6109fd565b60405161033391906124ed565b60405180910390f35b61035660048036038101906103519190612722565b610a3c565b6040516103639190612649565b60405180910390f35b610374610af3565b60405161038191906124ed565b60405180910390f35b6103a4600480360381019061039f919061277b565b610b85565b005b6103ae610b9b565b6040516103bb91906127ca565b60405180910390f35b6103de60048036038101906103d9919061284a565b610baa565b6040516103eb9190612649565b60405180910390f35b61040e600480360381019061040991906129da565b610cc5565b005b61042a60048036038101906104259190612545565b610d27565b60405161043791906124ed565b60405180910390f35b61045a60048036038101906104559190612722565b610d8f565b005b61047660048036038101906104719190612a5d565b610e64565b6040516104839190612442565b60405180910390f35b6104a660048036038101906104a19190612a9d565b610ef8565b005b60007f780e9d63000000000000000000000000000000000000000000000000000000007bffffffffffffffffffffffffffffffffffffffffffffffffffffffff1916827bffffffffffffffffffffffffffffffffffffffffffffffffffffffff1916148061051b575061051a82610f7b565b5b9050919050565b60606000805461053190612b2c565b80601f016020809104026020016040519081016040528092919081815260200182805461055d90612b2c565b80156105aa5780601f1061057f576101008083540402835291602001916105aa565b820191906000526020600020905b81548152906001019060200180831161058d57829003601f168201915b5050505050905090565b60006105bf8261105d565b6004600083815260200190815260200160002060009054906101000a900473ffffffffffffffffffffffffffffffffffffffff169050919050565b600061060582610977565b90508073ffffffffffffffffffffffffffffffffffffffff168373ffffffffffffffffffffffffffffffffffffffff1603610675576040517f08c379a000000000000000000000000000000000000000000000000000000000815260040161066c90612bcf565b60405180910390fd5b8073ffffffffffffffffffffffffffffffffffffffff166106946110a8565b73ffffffffffffffffffffffffffffffffffffffff1614806106c357506106c2816106bd6110a8565b610e64565b5b610702576040517f08c379a00000000000000000000000000000000000000000000000000000000081526004016106f990612c61565b60405180910390fd5b61070c83836110b0565b505050565b6000600880549050905090565b61072f6107296110a8565b82611169565b61076e576040517f08c379a000000000000000000000000000000000000000000000000000000000815260040161076590612cf3565b60405180910390fd5b6107798383836111fe565b505050565b600061078983610a3c565b82106107ca576040517f08c379a00000000000000000000000000000000000000000000000000000000081526004016107c190612d85565b60405180910390fd5b600660008473ffffffffffffffffffffffffffffffffffffffff1673ffffffffffffffffffffffffffffffffffffffff168152602001908152602001600020600083815260200190815260200160002054905092915050565b600073ffffffffffffffffffffffffffffffffffffffff166108436114f7565b73ffffffffffffffffffffffffffffffffffffffff1614610899576040517f08c379a000000000000000000000000000000000000000000000000000000000815260040161089090612df1565b60405180910390fd5b80600b60006101000a81548173ffffffffffffffffffffffffffffffffffffffff021916908373ffffffffffffffffffffffffffffffffffffffff16021790555050565b6108f883838360405180602001604052806000815250610cc5565b505050565b60006064905090565b6000610910610711565b8210610951576040517f08c379a000000000000000000000000000000000000000000000000000000000815260040161094890612e83565b60405180910390fd5b6008828154811061096557610964612ea3565b5b90600052602060002001549050919050565b60008061098383611521565b9050600073ffffffffffffffffffffffffffffffffffffffff168173ffffffffffffffffffffffffffffffffffffffff16036109f4576040517f08c379a00000000000000000000000000000000000000000000000000000000081526004016109eb90612f1e565b60405180910390fd5b80915050919050565b60606040518060400160405280600381526020017f41707000000000000000000000000000000000000000000000000000000000008152509050919050565b60008073ffffffffffffffffffffffffffffffffffffffff168273ffffffffffffffffffffffffffffffffffffffff1603610aac576040517f08c379a0000000000000000000000000000000000000000000000000000000008152600401610aa390612fb0565b60405180910390fd5b600360008373ffffffffffffffffffffffffffffffffffffffff1673ffffffffffffffffffffffffffffffffffffffff168152602001908152602001600020549050919050565b606060018054610b0290612b2c565b80601f0160208091040260200160405190810160405280929190818152602001828054610b2e90612b2c565b8015610b7b5780601f10610b5057610100808354040283529160200191610b7b565b820191906000526020600020905b815481529060010190602001808311610b5e57829003601f168201915b5050505050905090565b610b97610b906110a8565b838361155e565b5050565b6000610ba56114f7565b905090565b6000610bb46114f7565b73ffffffffffffffffffffffffffffffffffffffff163373ffffffffffffffffffffffffffffffffffffffff1614610c21576040517f08c379a0000000000000000000000000000000000000000000000000000000008152600401610c189061301c565b60405180910390fd5b610c296108fd565b610c31610711565b10610c71576040517f08c379a0000000000000000000000000000000000000000000000000000000008152600401610c6890613088565b60405180910390fd5b60008383810190610c829190612545565b9050610c8e85826116ca565b610cba600a60009054906101000a900473ffffffffffffffffffffffffffffffffffffffff16826110b0565b809150509392505050565b610cd6610cd06110a8565b83611169565b610d15576040517f08c379a0000000000000000000000000000000000000000000000000000000008152600401610d0c90612cf3565b60405180910390fd5b610d21848484846118e7565b50505050565b6060610d328261105d565b6000610d3c611943565b90506000815111610d5c5760405180602001604052806000815250610d87565b80610d668461195a565b604051602001610d779291906130e4565b6040516020818303038152906040525b915050919050565b600073ffffffffffffffffffffffffffffffffffffffff16600a60009054906101000a900473ffffffffffffffffffffffffffffffffffffffff1673ffffffffffffffffffffffffffffffffffffffff1614610e20576040517f08c379a0000000000000000000000000000000000000000000000000000000008152600401610e179061317a565b60405180910390fd5b80600a60006101000a81548173ffffffffffffffffffffffffffffffffffffffff021916908373ffffffffffffffffffffffffffffffffffffffff16021790555050565b6000600560008473ffffffffffffffffffffffffffffffffffffffff1673ffffffffffffffffffffffffffffffffffffffff16815260200190815260200160002060008373ffffffffffffffffffffffffffffffffffffffff1673ffffffffffffffffffffffffffffffffffffffff16815260200190815260200160002060009054906101000a900460ff16905092915050565b610f006114f7565b73ffffffffffffffffffffffffffffffffffffffff163373ffffffffffffffffffffffffffffffffffffffff1614610f6d576040517f08c379a0000000000000000000000000000000000000000000000000000000008152600401610f649061301c565b60405180910390fd5b610f7683611a28565b505050565b60007f80ac58cd000000000000000000000000000000000000000000000000000000007bffffffffffffffffffffffffffffffffffffffffffffffffffffffff1916827bffffffffffffffffffffffffffffffffffffffffffffffffffffffff1916148061104657507f5b5e139f000000000000000000000000000000000000000000000000000000007bffffffffffffffffffffffffffffffffffffffffffffffffffffffff1916827bffffffffffffffffffffffffffffffffffffffffffffffffffffffff1916145b80611056575061105582611b76565b5b9050919050565b61106681611be0565b6110a5576040517f08c379a000000000000000000000000000000000000000000000000000000000815260040161109c90612f1e565b60405180910390fd5b50565b600033905090565b816004600083815260200190815260200160002060006101000a81548173ffffffffffffffffffffffffffffffffffffffff021916908373ffffffffffffffffffffffffffffffffffffffff160217905550808273ffffffffffffffffffffffffffffffffffffffff1661112383610977565b73ffffffffffffffffffffffffffffffffffffffff167f8c5be1e5ebec7d5bd14f71427d1e84f3dd0314c0f7b2291e5b200ac8c7c3b92560405160405180910390a45050565b60008061117583610977565b90508073ffffffffffffffffffffffffffffffffffffffff168473ffffffffffffffffffffffffffffffffffffffff1614806111b757506111b68185610e64565b5b806111f557508373ffffffffffffffffffffffffffffffffffffffff166111dd846105b4565b73ffffffffffffffffffffffffffffffffffffffff16145b91505092915050565b8273ffffffffffffffffffffffffffffffffffffffff1661121e82610977565b73ffffffffffffffffffffffffffffffffffffffff1614611274576040517f08c379a000000000000000000000000000000000000000000000000000000000815260040161126b9061320c565b60405180910390fd5b600073ffffffffffffffffffffffffffffffffffffffff168273ffffffffffffffffffffffffffffffffffffffff16036112e3576040517f08c379a00000000000000000000000000000000000000000000000000000000081526004016112da9061329e565b60405180910390fd5b6112f08383836001611c21565b8273ffffffffffffffffffffffffffffffffffffffff1661131082610977565b73ffffffffffffffffffffffffffffffffffffffff1614611366576040517f08c379a000000000000000000000000000000000000000000000000000000000815260040161135d9061320c565b60405180910390fd5b6004600082815260200190815260200160002060006101000a81549073ffffffffffffffffffffffffffffffffffffffff02191690556001600360008573ffffffffffffffffffffffffffffffffffffffff1673ffffffffffffffffffffffffffffffffffffffff168152602001908152602001600020600082825403925050819055506001600360008473ffffffffffffffffffffffffffffffffffffffff1673ffffffffffffffffffffffffffffffffffffffff16815260200190815260200160002060008282540192505081905550816002600083815260200190815260200160002060006101000a81548173ffffffffffffffffffffffffffffffffffffffff021916908373ffffffffffffffffffffffffffffffffffffffff160217905550808273ffffffffffffffffffffffffffffffffffffffff168473ffffffffffffffffffffffffffffffffffffffff167fddf252ad1be2c89b69c2b068fc378daa952ba7f163c4a11628f55a4df523b3ef60405160405180910390a46114f28383836001611d7f565b505050565b6000600b60009054906101000a900473ffffffffffffffffffffffffffffffffffffffff16905090565b60006002600083815260200190815260200160002060009054906101000a900473ffffffffffffffffffffffffffffffffffffffff169050919050565b8173ffffffffffffffffffffffffffffffffffffffff168373ffffffffffffffffffffffffffffffffffffffff16036115cc576040517f08c379a00000000000000000000000000000000000000000000000000000000081526004016115c39061330a565b60405180910390fd5b80600560008573ffffffffffffffffffffffffffffffffffffffff1673ffffffffffffffffffffffffffffffffffffffff16815260200190815260200160002060008473ffffffffffffffffffffffffffffffffffffffff1673ffffffffffffffffffffffffffffffffffffffff16815260200190815260200160002060006101000a81548160ff0219169083151502179055508173ffffffffffffffffffffffffffffffffffffffff168373ffffffffffffffffffffffffffffffffffffffff167f17307eab39ab6107e8899845ad3d59bd9653f200f220920489ca2b5937696c31836040516116bd9190612442565b60405180910390a3505050565b600073ffffffffffffffffffffffffffffffffffffffff168273ffffffffffffffffffffffffffffffffffffffff1603611739576040517f08c379a000000000000000000000000000000000000000000000000000000000815260040161173090613376565b60405180910390fd5b61174281611be0565b15611782576040517f08c379a0000000000000000000000000000000000000000000000000000000008152600401611779906133e2565b60405180910390fd5b611790600083836001611c21565b61179981611be0565b156117d9576040517f08c379a00000000000000000000000000000000000000000000000000000000081526004016117d0906133e2565b60405180910390fd5b6001600360008473ffffffffffffffffffffffffffffffffffffffff1673ffffffffffffffffffffffffffffffffffffffff16815260200190815260200160002060008282540192505081905550816002600083815260200190815260200160002060006101000a81548173ffffffffffffffffffffffffffffffffffffffff021916908373ffffffffffffffffffffffffffffffffffffffff160217905550808273ffffffffffffffffffffffffffffffffffffffff16600073ffffffffffffffffffffffffffffffffffffffff167fddf252ad1be2c89b69c2b068fc378daa952ba7f163c4a11628f55a4df523b3ef60405160405180910390a46118e3600083836001611d7f565b5050565b6118f28484846111fe565b6118fe84848484611d85565b61193d576040517f08c379a000000000000000000000000000000000000000000000000000000000815260040161193490613474565b60405180910390fd5b50505050565b606060405180602001604052806000815250905090565b60606000600161196984611f0c565b01905060008167ffffffffffffffff811115611988576119876128af565b5b6040519080825280601f01601f1916602001820160405280156119ba5781602001600182028036833780820191505090505b509050600082602001820190505b600115611a1d578080600190039150507f3031323334353637383961626364656600000000000000000000000000000000600a86061a8153600a8581611a1157611a10613494565b5b049450600085036119c8575b819350505050919050565b6000611a3382610977565b9050611a43816000846001611c21565b611a4c82610977565b90506004600083815260200190815260200160002060006101000a81549073ffffffffffffffffffffffffffffffffffffffff02191690556001600360008373ffffffffffffffffffffffffffffffffffffffff1673ffffffffffffffffffffffffffffffffffffffff168152602001908152602001600020600082825403925050819055506002600083815260200190815260200160002060006101000a81549073ffffffffffffffffffffffffffffffffffffffff021916905581600073ffffffffffffffffffffffffffffffffffffffff168273ffffffffffffffffffffffffffffffffffffffff167fddf252ad1be2c89b69c2b068fc378daa952ba7f163c4a11628f55a4df523b3ef60405160405180910390a4611b72816000846001611d7f565b5050565b60007f01ffc9a7000000000000000000000000000000000000000000000000000000007bffffffffffffffffffffffffffffffffffffffffffffffffffffffff1916827bffffffffffffffffffffffffffffffffffffffffffffffffffffffff1916149050919050565b60008073ffffffffffffffffffffffffffffffffffffffff16611c0283611521565b73ffffffffffffffffffffffffffffffffffffffff1614159050919050565b611c2d8484848461205f565b6001811115611c71576040517f08c379a0000000000000000000000000000000000000000000000000000000008152600401611c6890613535565b60405180910390fd5b6000829050600073ffffffffffffffffffffffffffffffffffffffff168573ffffffffffffffffffffffffffffffffffffffff1603611cb857611cb381612065565b611cf7565b8373ffffffffffffffffffffffffffffffffffffffff168573ffffffffffffffffffffffffffffffffffffffff1614611cf657611cf585826120ae565b5b5b600073ffffffffffffffffffffffffffffffffffffffff168473ffffffffffffffffffffffffffffffffffffffff1603611d3957611d348161221b565b611d78565b8473ffffffffffffffffffffffffffffffffffffffff168473ffffffffffffffffffffffffffffffffffffffff1614611d7757611d7684826122ec565b5b5b5050505050565b50505050565b6000611da68473ffffffffffffffffffffffffffffffffffffffff1661236b565b15611eff578373ffffffffffffffffffffffffffffffffffffffff1663150b7a02611dcf6110a8565b8786866040518563ffffffff1660e01b8152600401611df194939291906135aa565b6020604051808303816000875af1925050508015611e2d57506040513d601f19601f82011682018060405250810190611e2a919061360b565b60015b611eaf573d8060008114611e5d576040519150601f19603f3d011682016040523d82523d6000602084013e611e62565b606091505b506000815103611ea7576040517f08c379a0000000000000000000000000000000000000000000000000000000008152600401611e9e90613474565b60405180910390fd5b805181602001fd5b63150b7a0260e01b7bffffffffffffffffffffffffffffffffffffffffffffffffffffffff1916817bffffffffffffffffffffffffffffffffffffffffffffffffffffffff191614915050611f04565b600190505b949350505050565b600080600090507a184f03e93ff9f4daa797ed6e38ed64bf6a1f0100000000000000008310611f6a577a184f03e93ff9f4daa797ed6e38ed64bf6a1f0100000000000000008381611f6057611f5f613494565b5b0492506040810190505b6d04ee2d6d415b85acef81000000008310611fa7576d04ee2d6d415b85acef81000000008381611f9d57611f9c613494565b5b0492506020810190505b662386f26fc100008310611fd657662386f26fc100008381611fcc57611fcb613494565b5b0492506010810190505b6305f5e1008310611fff576305f5e1008381611ff557611ff4613494565b5b0492506008810190505b612710831061202457612710838161201a57612019613494565b5b0492506004810190505b60648310612047576064838161203d5761203c613494565b5b0492506002810190505b600a8310612056576001810190505b80915050919050565b50505050565b6008805490506009600083815260200190815260200160002081905550600881908060018154018082558091505060019003906000526020600020016000909190919091505550565b600060016120bb84610a3c565b6120c59190613667565b90506000600760008481526020019081526020016000205490508181146121aa576000600660008673ffffffffffffffffffffffffffffffffffffffff1673ffffffffffffffffffffffffffffffffffffffff168152602001908152602001600020600084815260200190815260200160002054905080600660008773ffffffffffffffffffffffffffffffffffffffff1673ffffffffffffffffffffffffffffffffffffffff168152602001908152602001600020600084815260200190815260200160002081905550816007600083815260200190815260200160002081905550505b6007600084815260200190815260200160002060009055600660008573ffffffffffffffffffffffffffffffffffffffff1673ffffffffffffffffffffffffffffffffffffffff16815260200190815260200160002060008381526020019081526020016000206000905550505050565b6000600160088054905061222f9190613667565b905060006009600084815260200190815260200160002054905060006008838154811061225f5761225e612ea3565b5b90600052602060002001549050806008838154811061228157612280612ea3565b5b9060005260206000200181905550816009600083815260200190815260200160002081905550600960008581526020019081526020016000206000905560088054806122d0576122cf61369b565b5b6001900381819060005260206000200160009055905550505050565b60006122f783610a3c565b905081600660008573ffffffffffffffffffffffffffffffffffffffff1673ffffffffffffffffffffffffffffffffffffffff168152602001908152602001600020600083815260200190815260200160002081905550806007600084815260200190815260200160002081905550505050565b6000808273ffffffffffffffffffffffffffffffffffffffff163b119050919050565b6000604051905090565b600080fd5b600080fd5b60007fffffffff0000000000000000000000000000000000000000000000000000000082169050919050565b6123d7816123a2565b81146123e257600080fd5b50565b6000813590506123f4816123ce565b92915050565b6000602082840312156124105761240f612398565b5b600061241e848285016123e5565b91505092915050565b60008115159050919050565b61243c81612427565b82525050565b60006020820190506124576000830184612433565b92915050565b600081519050919050565b600082825260208201905092915050565b60005b8381101561249757808201518184015260208101905061247c565b60008484015250505050565b6000601f19601f8301169050919050565b60006124bf8261245d565b6124c98185612468565b93506124d9818560208601612479565b6124e2816124a3565b840191505092915050565b6000602082019050818103600083015261250781846124b4565b905092915050565b6000819050919050565b6125228161250f565b811461252d57600080fd5b50565b60008135905061253f81612519565b92915050565b60006020828403121561255b5761255a612398565b5b600061256984828501612530565b91505092915050565b600073ffffffffffffffffffffffffffffffffffffffff82169050919050565b600061259d82612572565b9050919050565b6125ad81612592565b82525050565b60006020820190506125c860008301846125a4565b92915050565b6125d781612592565b81146125e257600080fd5b50565b6000813590506125f4816125ce565b92915050565b6000806040838503121561261157612610612398565b5b600061261f858286016125e5565b925050602061263085828601612530565b9150509250929050565b6126438161250f565b82525050565b600060208201905061265e600083018461263a565b92915050565b60008060006060848603121561267d5761267c612398565b5b600061268b868287016125e5565b935050602061269c868287016125e5565b92505060406126ad86828701612530565b9150509250925092565b60006126c282612572565b9050919050565b6126d2816126b7565b81146126dd57600080fd5b50565b6000813590506126ef816126c9565b92915050565b60006020828403121561270b5761270a612398565b5b6000612719848285016126e0565b91505092915050565b60006020828403121561273857612737612398565b5b6000612746848285016125e5565b91505092915050565b61275881612427565b811461276357600080fd5b50565b6000813590506127758161274f565b92915050565b6000806040838503121561279257612791612398565b5b60006127a0858286016125e5565b92505060206127b185828601612766565b9150509250929050565b6127c4816126b7565b82525050565b60006020820190506127df60008301846127bb565b92915050565b600080fd5b600080fd5b600080fd5b60008083601f84011261280a576128096127e5565b5b8235905067ffffffffffffffff811115612827576128266127ea565b5b602083019150836001820283011115612843576128426127ef565b5b9250929050565b60008060006040848603121561286357612862612398565b5b6000612871868287016125e5565b935050602084013567ffffffffffffffff8111156128925761289161239d565b5b61289e868287016127f4565b92509250509250925092565b600080fd5b7f4e487b7100000000000000000000000000000000000000000000000000000000600052604160045260246000fd5b6128e7826124a3565b810181811067ffffffffffffffff82111715612906576129056128af565b5b80604052505050565b600061291961238e565b905061292582826128de565b919050565b600067ffffffffffffffff821115612945576129446128af565b5b61294e826124a3565b9050602081019050919050565b82818337600083830152505050565b600061297d6129788461292a565b61290f565b905082815260208101848484011115612999576129986128aa565b5b6129a484828561295b565b509392505050565b600082601f8301126129c1576129c06127e5565b5b81356129d184826020860161296a565b91505092915050565b600080600080608085870312156129f4576129f3612398565b5b6000612a02878288016125e5565b9450506020612a13878288016125e5565b9350506040612a2487828801612530565b925050606085013567ffffffffffffffff811115612a4557612a4461239d565b5b612a51878288016129ac565b91505092959194509250565b60008060408385031215612a7457612a73612398565b5b6000612a82858286016125e5565b9250506020612a93858286016125e5565b9150509250929050565b600080600060408486031215612ab657612ab5612398565b5b6000612ac486828701612530565b935050602084013567ffffffffffffffff811115612ae557612ae461239d565b5b612af1868287016127f4565b92509250509250925092565b7f4e487b7100000000000000000000000000000000000000000000000000000000600052602260045260246000fd5b60006002820490506001821680612b4457607f821691505b602082108103612b5757612b56612afd565b5b50919050565b7f4552433732313a20617070726f76616c20746f2063757272656e74206f776e6560008201527f7200000000000000000000000000000000000000000000000000000000000000602082015250565b6000612bb9602183612468565b9150612bc482612b5d565b604082019050919050565b60006020820190508181036000830152612be881612bac565b9050919050565b7f4552433732313a20617070726f76652063616c6c6572206973206e6f7420746f60008201527f6b656e206f776e6572206f7220617070726f76656420666f7220616c6c000000602082015250565b6000612c4b603d83612468565b9150612c5682612bef565b604082019050919050565b60006020820190508181036000830152612c7a81612c3e565b9050919050565b7f4552433732313a2063616c6c6572206973206e6f7420746f6b656e206f776e6560008201527f72206f7220617070726f76656400000000000000000000000000000000000000602082015250565b6000612cdd602d83612468565b9150612ce882612c81565b604082019050919050565b60006020820190508181036000830152612d0c81612cd0565b9050919050565b7f455243373231456e756d657261626c653a206f776e657220696e646578206f7560008201527f74206f6620626f756e6473000000000000000000000000000000000000000000602082015250565b6000612d6f602b83612468565b9150612d7a82612d13565b604082019050919050565b60006020820190508181036000830152612d9e81612d62565b9050919050565b7f616c726561647920736574000000000000000000000000000000000000000000600082015250565b6000612ddb600b83612468565b9150612de682612da5565b602082019050919050565b60006020820190508181036000830152612e0a81612dce565b9050919050565b7f455243373231456e756d657261626c653a20676c6f62616c20696e646578206f60008201527f7574206f6620626f756e64730000000000000000000000000000000000000000602082015250565b6000612e6d602c83612468565b9150612e7882612e11565b604082019050919050565b60006020820190508181036000830152612e9c81612e60565b9050919050565b7f4e487b7100000000000000000000000000000000000000000000000000000000600052603260045260246000fd5b7f4552433732313a20696e76616c696420746f6b656e2049440000000000000000600082015250565b6000612f08601883612468565b9150612f1382612ed2565b602082019050919050565b60006020820190508181036000830152612f3781612efb565b9050919050565b7f4552433732313a2061646472657373207a65726f206973206e6f74206120766160008201527f6c6964206f776e65720000000000000000000000000000000000000000000000602082015250565b6000612f9a602983612468565b9150612fa582612f3e565b604082019050919050565b60006020820190508181036000830152612fc981612f8d565b9050919050565b7f6f6e6c79206167656e6379000000000000000000000000000000000000000000600082015250565b6000613006600b83612468565b915061301182612fd0565b602082019050919050565b6000602082019050818103600083015261303581612ff9565b9050919050565b7f6d617820737570706c7920726561636865640000000000000000000000000000600082015250565b6000613072601283612468565b915061307d8261303c565b602082019050919050565b600060208201905081810360008301526130a181613065565b9050919050565b600081905092915050565b60006130be8261245d565b6130c881856130a8565b93506130d8818560208601612479565b80840191505092915050565b60006130f082856130b3565b91506130fc82846130b3565b91508190509392505050565b7f6c6f746c6f6f74206164647265737320686173206265696e672073657474696e60008201527f6700000000000000000000000000000000000000000000000000000000000000602082015250565b6000613164602183612468565b915061316f82613108565b604082019050919050565b6000602082019050818103600083015261319381613157565b9050919050565b7f4552433732313a207472616e736665722066726f6d20696e636f72726563742060008201527f6f776e6572000000000000000000000000000000000000000000000000000000602082015250565b60006131f6602583612468565b91506132018261319a565b604082019050919050565b60006020820190508181036000830152613225816131e9565b9050919050565b7f4552433732313a207472616e7366657220746f20746865207a65726f2061646460008201527f7265737300000000000000000000000000000000000000000000000000000000602082015250565b6000613288602483612468565b91506132938261322c565b604082019050919050565b600060208201905081810360008301526132b78161327b565b9050919050565b7f4552433732313a20617070726f766520746f2063616c6c657200000000000000600082015250565b60006132f4601983612468565b91506132ff826132be565b602082019050919050565b60006020820190508181036000830152613323816132e7565b9050919050565b7f4552433732313a206d696e7420746f20746865207a65726f2061646472657373600082015250565b6000613360602083612468565b915061336b8261332a565b602082019050919050565b6000602082019050818103600083015261338f81613353565b9050919050565b7f4552433732313a20746f6b656e20616c7265616479206d696e74656400000000600082015250565b60006133cc601c83612468565b91506133d782613396565b602082019050919050565b600060208201905081810360008301526133fb816133bf565b9050919050565b7f4552433732313a207472616e7366657220746f206e6f6e20455243373231526560008201527f63656976657220696d706c656d656e7465720000000000000000000000000000602082015250565b600061345e603283612468565b915061346982613402565b604082019050919050565b6000602082019050818103600083015261348d81613451565b9050919050565b7f4e487b7100000000000000000000000000000000000000000000000000000000600052601260045260246000fd5b7f455243373231456e756d657261626c653a20636f6e736563757469766520747260008201527f616e7366657273206e6f7420737570706f727465640000000000000000000000602082015250565b600061351f603583612468565b915061352a826134c3565b604082019050919050565b6000602082019050818103600083015261354e81613512565b9050919050565b600081519050919050565b600082825260208201905092915050565b600061357c82613555565b6135868185613560565b9350613596818560208601612479565b61359f816124a3565b840191505092915050565b60006080820190506135bf60008301876125a4565b6135cc60208301866125a4565b6135d9604083018561263a565b81810360608301526135eb8184613571565b905095945050505050565b600081519050613605816123ce565b92915050565b60006020828403121561362157613620612398565b5b600061362f848285016135f6565b91505092915050565b7f4e487b7100000000000000000000000000000000000000000000000000000000600052601160045260246000fd5b60006136728261250f565b915061367d8361250f565b925082820390508181111561369557613694613638565b5b92915050565b7f4e487b7100000000000000000000000000000000000000000000000000000000600052603160045260246000fdfea2646970667358221220ff476aad78f0b758aa082406d3f86b1f7dec7b1d56e514500a2509d79643c32a64736f6c63430008140033608060405234801561001057600080fd5b50610ab6806100206000396000f3fe608060405234801561001057600080fd5b506004361061002b5760003560e01c80630f47899114610030575b600080fd5b61004a60048036038101906100459190610623565b610061565b604051610058929190610710565b60405180910390f35b60008060006100f38680602001906100799190610748565b8080601f016020809104026020016040519081016040528093929190818152602001838380828437600081840152601f19601f820116905080830192505050505050508760000160208101906100cf91906107d7565b73ffffffffffffffffffffffffffffffffffffffff1661039690919063ffffffff16565b905060006101c88289602001600001602081019061011191906107d7565b8a602001602001358b602001604001602081019061012f91906107d7565b8c6020016060016020810190610145919061083e565b8d602001608001602081019061015b919061083e565b8e8060c0019061016b9190610748565b604051602001610182989796959493929190610953565b6040516020818303038152906040528960000160208101906101a49190610a10565b73ffffffffffffffffffffffffffffffffffffffff1661039690919063ffffffff16565b90508173ffffffffffffffffffffffffffffffffffffffff166339b3d243826040518263ffffffff1660e01b81526004016102039190610a4c565b600060405180830381600087803b15801561021d57600080fd5b505af1158015610231573d6000803e3d6000fd5b505050506000888060e001906102479190610748565b9050146102dd576000808273ffffffffffffffffffffffffffffffffffffffff168a8060e001906102789190610748565b604051610286929190610a67565b6000604051808303816000865af19150503d80600081146102c3576040519150601f19603f3d011682016040523d82523d6000602084013e6102c8565b606091505b5091509150816102da57805160208201fd5b50505b60008780604001906102ef9190610748565b905014610385576000808373ffffffffffffffffffffffffffffffffffffffff168980604001906103209190610748565b60405161032e929190610a67565b6000604051808303816000865af19150503d806000811461036b576040519150601f19603f3d011682016040523d82523d6000602084013e610370565b606091505b50915091508161038257805160208201fd5b50505b818193509350505094509492505050565b6000806002835101905060008160410190506000600a8203905060008060405190507f610000000000000000000000000000000000000000000000000000000000000081528260f01b60018201527f3d81600a3d39f33d3d3d3d363d3d37610000000000000000000000000000000060038201528460f01b60138201527f603736393661000000000000000000000000000000000000000000000000000060158201528460f01b601b8201527f013d730000000000000000000000000000000000000000000000000000000000601d8201528760601b60208201527f5af43d3d93803e603557fd5bf3000000000000000000000000000000000000006034820152600285039450600085905060006041830190506020890193505b602082106104d457835181526020810190506020840193506020820391506104b1565b60006001836020036101000a0319905080855116825282820191508760f01b825286846000f09850600073ffffffffffffffffffffffffffffffffffffffff168973ffffffffffffffffffffffffffffffffffffffff1603610562576040517febfef18800000000000000000000000000000000000000000000000000000000815260040160405180910390fd5b505050505050505092915050565b600080fd5b600080fd5b600080fd5b600061010082840312156105965761059561057a565b5b81905092915050565b6000606082840312156105b5576105b461057a565b5b81905092915050565b600080fd5b600080fd5b600080fd5b60008083601f8401126105e3576105e26105be565b5b8235905067ffffffffffffffff811115610600576105ff6105c3565b5b60208301915083600182028301111561061c5761061b6105c8565b5b9250929050565b6000806000806060858703121561063d5761063c610570565b5b600085013567ffffffffffffffff81111561065b5761065a610575565b5b6106678782880161057f565b945050602085013567ffffffffffffffff81111561068857610687610575565b5b6106948782880161059f565b935050604085013567ffffffffffffffff8111156106b5576106b4610575565b5b6106c1878288016105cd565b925092505092959194509250565b600073ffffffffffffffffffffffffffffffffffffffff82169050919050565b60006106fa826106cf565b9050919050565b61070a816106ef565b82525050565b60006040820190506107256000830185610701565b6107326020830184610701565b9392505050565b600080fd5b600080fd5b600080fd5b6000808335600160200384360303811261076557610764610739565b5b80840192508235915067ffffffffffffffff8211156107875761078661073e565b5b6020830192506001820236038313156107a3576107a2610743565b5b509250929050565b6107b4816106ef565b81146107bf57600080fd5b50565b6000813590506107d1816107ab565b92915050565b6000602082840312156107ed576107ec610570565b5b60006107fb848285016107c2565b91505092915050565b600061ffff82169050919050565b61081b81610804565b811461082657600080fd5b50565b60008135905061083881610812565b92915050565b60006020828403121561085457610853610570565b5b600061086284828501610829565b91505092915050565b60008160601b9050919050565b60006108838261086b565b9050919050565b600061089582610878565b9050919050565b6108ad6108a8826106ef565b61088a565b82525050565b6000819050919050565b6000819050919050565b6108d86108d3826108b3565b6108bd565b82525050565b60008160f01b9050919050565b60006108f6826108de565b9050919050565b61090e61090982610804565b6108eb565b82525050565b600081905092915050565b82818337600083830152505050565b600061093a8385610914565b935061094783858461091f565b82840190509392505050565b600061095f828b61089c565b60148201915061096f828a61089c565b60148201915061097f82896108c7565b60208201915061098f828861089c565b60148201915061099f82876108fd565b6002820191506109af82866108fd565b6002820191506109c082848661092e565b91508190509998505050505050505050565b60006109dd826106cf565b9050919050565b6109ed816109d2565b81146109f857600080fd5b50565b600081359050610a0a816109e4565b92915050565b600060208284031215610a2657610a25610570565b5b6000610a34848285016109fb565b91505092915050565b610a46816109d2565b82525050565b6000602082019050610a616000830184610a3d565b92915050565b6000610a7482848661092e565b9150819050939250505056fea2646970667358221220c71c48c06534b83a0a9420eb01a5ec0d6da5848be31d480420d427eb3e38e51564736f6c63430008140033a264697066735822122093aa9aeb8b2b657330dd9a33ebe5cdfbe45e844f4286178ffd122c56422d66be64736f6c63430008140033",
  "linkReferences": {},
  "deployedLinkReferences": {}
}