{
  "_format": "hh-sol-artifact-1",
  "contractName": "LotLoot",
  "sourceName": "contracts/systems/core/LotLoot.sol",
  "abi": [
    {
      "inputs": [],
      "stateMutability": "nonpayable",
      "type": "constructor"
    },
    {
      "anonymous": false,
      "inputs": [
        {
          "indexed": false,
          "internalType": "address",
          "name": "previousAdmin",
          "type": "address"
        },
        {
          "indexed": false,
          "internalType": "address",
          "name": "newAdmin",
          "type": "address"
        }
      ],
      "name": "AdminChanged",
      "type": "event"
    },
    {
      "anonymous": false,
      "inputs": [
        {
          "indexed": true,
          "internalType": "address",
          "name": "beacon",
          "type": "address"
        }
      ],
      "name": "BeaconUpgraded",
      "type": "event"
    },
    {
      "anonymous": false,
      "inputs": [
        {
          "indexed": true,
          "internalType": "address",
          "name": "who",
          "type": "address"
        },
        {
          "indexed": true,
          "internalType": "uint256",
          "name": "carTokenId",
          "type": "uint256"
        },
        {
          "indexed": true,
          "internalType": "uint256",
          "name": "parkingTokenId",
          "type": "uint256"
        }
      ],
      "name": "FineCar",
      "type": "event"
    },
    {
      "anonymous": false,
      "inputs": [
        {
          "indexed": false,
          "internalType": "uint8",
          "name": "version",
          "type": "uint8"
        }
      ],
      "name": "Initialized",
      "type": "event"
    },
    {
      "anonymous": false,
      "inputs": [
        {
          "indexed": true,
          "internalType": "address",
          "name": "who",
          "type": "address"
        },
        {
          "indexed": true,
          "internalType": "uint256",
          "name": "carTokenId",
          "type": "uint256"
        },
        {
          "indexed": true,
          "internalType": "uint256",
          "name": "componentTokenId",
          "type": "uint256"
        }
      ],
      "name": "Load",
      "type": "event"
    },
    {
      "anonymous": false,
      "inputs": [
        {
          "indexed": true,
          "internalType": "address",
          "name": "who",
          "type": "address"
        },
        {
          "indexed": true,
          "internalType": "uint256",
          "name": "carTokenId",
          "type": "uint256"
        },
        {
          "indexed": true,
          "internalType": "uint256",
          "name": "parkingTokenId",
          "type": "uint256"
        }
      ],
      "name": "ParkCar",
      "type": "event"
    },
    {
      "anonymous": false,
      "inputs": [
        {
          "indexed": false,
          "internalType": "address",
          "name": "account",
          "type": "address"
        }
      ],
      "name": "Paused",
      "type": "event"
    },
    {
      "anonymous": false,
      "inputs": [
        {
          "indexed": true,
          "internalType": "bytes32",
          "name": "role",
          "type": "bytes32"
        },
        {
          "indexed": true,
          "internalType": "bytes32",
          "name": "previousAdminRole",
          "type": "bytes32"
        },
        {
          "indexed": true,
          "internalType": "bytes32",
          "name": "newAdminRole",
          "type": "bytes32"
        }
      ],
      "name": "RoleAdminChanged",
      "type": "event"
    },
    {
      "anonymous": false,
      "inputs": [
        {
          "indexed": true,
          "internalType": "bytes32",
          "name": "role",
          "type": "bytes32"
        },
        {
          "indexed": true,
          "internalType": "address",
          "name": "account",
          "type": "address"
        },
        {
          "indexed": true,
          "internalType": "address",
          "name": "sender",
          "type": "address"
        }
      ],
      "name": "RoleGranted",
      "type": "event"
    },
    {
      "anonymous": false,
      "inputs": [
        {
          "indexed": true,
          "internalType": "bytes32",
          "name": "role",
          "type": "bytes32"
        },
        {
          "indexed": true,
          "internalType": "address",
          "name": "account",
          "type": "address"
        },
        {
          "indexed": true,
          "internalType": "address",
          "name": "sender",
          "type": "address"
        }
      ],
      "name": "RoleRevoked",
      "type": "event"
    },
    {
      "anonymous": false,
      "inputs": [
        {
          "indexed": true,
          "internalType": "address",
          "name": "who",
          "type": "address"
        },
        {
          "indexed": true,
          "internalType": "uint256",
          "name": "carTokenId",
          "type": "uint256"
        },
        {
          "indexed": true,
          "internalType": "uint256",
          "name": "parkingTokenId",
          "type": "uint256"
        }
      ],
      "name": "UnParkCar",
      "type": "event"
    },
    {
      "anonymous": false,
      "inputs": [
        {
          "indexed": true,
          "internalType": "address",
          "name": "who",
          "type": "address"
        },
        {
          "indexed": true,
          "internalType": "uint256",
          "name": "carTokenId",
          "type": "uint256"
        },
        {
          "indexed": true,
          "internalType": "uint256",
          "name": "componentTokenId",
          "type": "uint256"
        }
      ],
      "name": "Unload",
      "type": "event"
    },
    {
      "anonymous": false,
      "inputs": [
        {
          "indexed": false,
          "internalType": "address",
          "name": "account",
          "type": "address"
        }
      ],
      "name": "Unpaused",
      "type": "event"
    },
    {
      "anonymous": false,
      "inputs": [
        {
          "indexed": true,
          "internalType": "address",
          "name": "implementation",
          "type": "address"
        }
      ],
      "name": "Upgraded",
      "type": "event"
    },
    {
      "inputs": [],
      "name": "DEFAULT_ADMIN_ROLE",
      "outputs": [
        {
          "internalType": "bytes32",
          "name": "",
          "type": "bytes32"
        }
      ],
      "stateMutability": "view",
      "type": "function"
    },
    {
      "inputs": [],
      "name": "UPGRADER_ROLE",
      "outputs": [
        {
          "internalType": "bytes32",
          "name": "",
          "type": "bytes32"
        }
      ],
      "stateMutability": "view",
      "type": "function"
    },
    {
      "inputs": [
        {
          "internalType": "uint256",
          "name": "_carTokenId",
          "type": "uint256"
        }
      ],
      "name": "_account",
      "outputs": [
        {
          "internalType": "address",
          "name": "",
          "type": "address"
        }
      ],
      "stateMutability": "view",
      "type": "function"
    },
    {
      "inputs": [
        {
          "internalType": "uint256",
          "name": "_parkTokenId",
          "type": "uint256"
        }
      ],
      "name": "fineCar",
      "outputs": [],
      "stateMutability": "nonpayable",
      "type": "function"
    },
    {
      "inputs": [],
      "name": "get",
      "outputs": [
        {
          "internalType": "address",
          "name": "",
          "type": "address"
        },
        {
          "internalType": "address",
          "name": "",
          "type": "address"
        },
        {
          "internalType": "address",
          "name": "",
          "type": "address"
        }
      ],
      "stateMutability": "view",
      "type": "function"
    },
    {
      "inputs": [
        {
          "internalType": "uint256",
          "name": "_carTokenId",
          "type": "uint256"
        }
      ],
      "name": "getCurrentAbrasion",
      "outputs": [
        {
          "internalType": "uint256",
          "name": "abrasion",
          "type": "uint256"
        }
      ],
      "stateMutability": "view",
      "type": "function"
    },
    {
      "inputs": [
        {
          "internalType": "uint256",
          "name": "_parkTokenId",
          "type": "uint256"
        }
      ],
      "name": "getCurrentParkingElectric",
      "outputs": [
        {
          "internalType": "uint256",
          "name": "",
          "type": "uint256"
        }
      ],
      "stateMutability": "view",
      "type": "function"
    },
    {
      "inputs": [
        {
          "internalType": "uint256",
          "name": "_carTokenId",
          "type": "uint256"
        }
      ],
      "name": "getProperty",
      "outputs": [
        {
          "internalType": "uint256",
          "name": "speed",
          "type": "uint256"
        },
        {
          "internalType": "uint256",
          "name": "maxTime",
          "type": "uint256"
        },
        {
          "internalType": "uint256",
          "name": "punishRate",
          "type": "uint256"
        }
      ],
      "stateMutability": "view",
      "type": "function"
    },
    {
      "inputs": [
        {
          "internalType": "bytes32",
          "name": "role",
          "type": "bytes32"
        }
      ],
      "name": "getRoleAdmin",
      "outputs": [
        {
          "internalType": "bytes32",
          "name": "",
          "type": "bytes32"
        }
      ],
      "stateMutability": "view",
      "type": "function"
    },
    {
      "inputs": [
        {
          "internalType": "bytes32",
          "name": "role",
          "type": "bytes32"
        },
        {
          "internalType": "uint256",
          "name": "index",
          "type": "uint256"
        }
      ],
      "name": "getRoleMember",
      "outputs": [
        {
          "internalType": "address",
          "name": "",
          "type": "address"
        }
      ],
      "stateMutability": "view",
      "type": "function"
    },
    {
      "inputs": [
        {
          "internalType": "bytes32",
          "name": "role",
          "type": "bytes32"
        }
      ],
      "name": "getRoleMemberCount",
      "outputs": [
        {
          "internalType": "uint256",
          "name": "",
          "type": "uint256"
        }
      ],
      "stateMutability": "view",
      "type": "function"
    },
    {
      "inputs": [
        {
          "internalType": "bytes32",
          "name": "role",
          "type": "bytes32"
        },
        {
          "internalType": "address",
          "name": "account",
          "type": "address"
        }
      ],
      "name": "grantRole",
      "outputs": [],
      "stateMutability": "nonpayable",
      "type": "function"
    },
    {
      "inputs": [
        {
          "internalType": "bytes32",
          "name": "role",
          "type": "bytes32"
        },
        {
          "internalType": "address",
          "name": "account",
          "type": "address"
        }
      ],
      "name": "hasRole",
      "outputs": [
        {
          "internalType": "bool",
          "name": "",
          "type": "bool"
        }
      ],
      "stateMutability": "view",
      "type": "function"
    },
    {
      "inputs": [
        {
          "internalType": "address",
          "name": "_lltToken",
          "type": "address"
        },
        {
          "internalType": "address",
          "name": "_carNFT",
          "type": "address"
        },
        {
          "internalType": "address",
          "name": "_parkingNFT",
          "type": "address"
        },
        {
          "internalType": "address",
          "name": "_registry",
          "type": "address"
        },
        {
          "internalType": "address payable",
          "name": "_account",
          "type": "address"
        },
        {
          "internalType": "address",
          "name": "_component",
          "type": "address"
        },
        {
          "internalType": "address",
          "name": "_componentStore",
          "type": "address"
        },
        {
          "internalType": "address",
          "name": "_parkingStore",
          "type": "address"
        },
        {
          "internalType": "uint256",
          "name": "_baseSpeed",
          "type": "uint256"
        },
        {
          "internalType": "uint256",
          "name": "_baseMaxTime",
          "type": "uint256"
        }
      ],
      "name": "initialize",
      "outputs": [],
      "stateMutability": "nonpayable",
      "type": "function"
    },
    {
      "inputs": [
        {
          "internalType": "uint256",
          "name": "_carTokenId",
          "type": "uint256"
        },
        {
          "internalType": "uint256",
          "name": "_componentTokenId",
          "type": "uint256"
        }
      ],
      "name": "load",
      "outputs": [],
      "stateMutability": "nonpayable",
      "type": "function"
    },
    {
      "inputs": [
        {
          "internalType": "uint256",
          "name": "_carTokenId",
          "type": "uint256"
        },
        {
          "internalType": "uint256",
          "name": "_parkTokenId",
          "type": "uint256"
        }
      ],
      "name": "parkCar",
      "outputs": [],
      "stateMutability": "nonpayable",
      "type": "function"
    },
    {
      "inputs": [],
      "name": "paused",
      "outputs": [
        {
          "internalType": "bool",
          "name": "",
          "type": "bool"
        }
      ],
      "stateMutability": "view",
      "type": "function"
    },
    {
      "inputs": [],
      "name": "proxiableUUID",
      "outputs": [
        {
          "internalType": "bytes32",
          "name": "",
          "type": "bytes32"
        }
      ],
      "stateMutability": "view",
      "type": "function"
    },
    {
      "inputs": [
        {
          "internalType": "bytes32",
          "name": "role",
          "type": "bytes32"
        },
        {
          "internalType": "address",
          "name": "account",
          "type": "address"
        }
      ],
      "name": "renounceRole",
      "outputs": [],
      "stateMutability": "nonpayable",
      "type": "function"
    },
    {
      "inputs": [
        {
          "internalType": "bytes32",
          "name": "role",
          "type": "bytes32"
        },
        {
          "internalType": "address",
          "name": "account",
          "type": "address"
        }
      ],
      "name": "revokeRole",
      "outputs": [],
      "stateMutability": "nonpayable",
      "type": "function"
    },
    {
      "inputs": [
        {
          "internalType": "bytes4",
          "name": "interfaceId",
          "type": "bytes4"
        }
      ],
      "name": "supportsInterface",
      "outputs": [
        {
          "internalType": "bool",
          "name": "",
          "type": "bool"
        }
      ],
      "stateMutability": "view",
      "type": "function"
    },
    {
      "inputs": [
        {
          "internalType": "uint256",
          "name": "_carTokenId",
          "type": "uint256"
        }
      ],
      "name": "test",
      "outputs": [
        {
          "internalType": "bytes",
          "name": "result",
          "type": "bytes"
        }
      ],
      "stateMutability": "nonpayable",
      "type": "function"
    },
    {
      "inputs": [
        {
          "internalType": "uint256",
          "name": "_carTokenId",
          "type": "uint256"
        }
      ],
      "name": "unParkCar",
      "outputs": [],
      "stateMutability": "nonpayable",
      "type": "function"
    },
    {
      "inputs": [
        {
          "internalType": "uint256",
          "name": "_carTokenId",
          "type": "uint256"
        },
        {
          "internalType": "uint256",
          "name": "_componentTokenId",
          "type": "uint256"
        }
      ],
      "name": "unload",
      "outputs": [],
      "stateMutability": "nonpayable",
      "type": "function"
    },
    {
      "inputs": [
        {
          "internalType": "address",
          "name": "newImplementation",
          "type": "address"
        }
      ],
      "name": "upgradeTo",
      "outputs": [],
      "stateMutability": "nonpayable",
      "type": "function"
    },
    {
      "inputs": [
        {
          "internalType": "address",
          "name": "newImplementation",
          "type": "address"
        },
        {
          "internalType": "bytes",
          "name": "data",
          "type": "bytes"
        }
      ],
      "name": "upgradeToAndCall",
      "outputs": [],
      "stateMutability": "payable",
      "type": "function"
    },
    {
      "inputs": [
        {
          "internalType": "uint256",
          "name": "_carTokenId",
          "type": "uint256"
        }
      ],
      "name": "viewCarOnPark",
      "outputs": [
        {
          "internalType": "uint256",
          "name": "",
          "type": "uint256"
        }
      ],
      "stateMutability": "view",
      "type": "function"
    },
    {
      "inputs": [
        {
          "internalType": "uint256",
          "name": "_parkTokenId",
          "type": "uint256"
        }
      ],
      "name": "viewParkOnCar",
      "outputs": [
        {
          "internalType": "uint256",
          "name": "",
          "type": "uint256"
        }
      ],
      "stateMutability": "view",
      "type": "function"
    }
  ],
  "bytecode": "0x60a06040523073ffffffffffffffffffffffffffffffffffffffff1660809073ffffffffffffffffffffffffffffffffffffffff168152503480156200004457600080fd5b50620000556200005b60201b60201c565b62000205565b600060019054906101000a900460ff1615620000ae576040517f08c379a0000000000000000000000000000000000000000000000000000000008152600401620000a590620001a8565b60405180910390fd5b60ff801660008054906101000a900460ff1660ff16146200011f5760ff6000806101000a81548160ff021916908360ff1602179055507f7f26b83ff96e1f2b6a682f133852f6798a09c465da95921460cefb384740249860ff604051620001169190620001e8565b60405180910390a15b565b600082825260208201905092915050565b7f496e697469616c697a61626c653a20636f6e747261637420697320696e69746960008201527f616c697a696e6700000000000000000000000000000000000000000000000000602082015250565b60006200019060278362000121565b91506200019d8262000132565b604082019050919050565b60006020820190508181036000830152620001c38162000181565b9050919050565b600060ff82169050919050565b620001e281620001ca565b82525050565b6000602082019050620001ff6000830184620001d7565b92915050565b6080516164ff6200023d60003960008181611648015281816116d601528181611c0501528181611c93015261204201526164ff6000f3fe6080604052600436106101b75760003560e01c8063516cabcc116100ec57806391d148541161008a578063ca15c87311610064578063ca15c8731461065b578063d547741f14610698578063e6bb1e86146106c1578063f72c0d8b146106fe576101b7565b806391d14854146105ca578063a217fddf14610607578063ca01e6f414610632576101b7565b80635c975abb116100c65780635c975abb1461050c5780636d4ce63c1461053757806373cb7d3a146105645780639010d07c1461058d576101b7565b8063516cabcc1461047b57806352d1902d146104b857806358a642fc146104e3576101b7565b80632f2ff15d116101595780633659cfe6116101335780633659cfe6146103d05780634b947b0b146103f95780634f1ef28614610422578063511ff9ea1461043e576101b7565b80632f2ff15d1461033f57806332665ffb1461036857806336568abe146103a7576101b7565b806317e6564c1161019557806317e6564c1461024b578063248a9ca31461028857806329e99f07146102c55780632e387cea14610302576101b7565b806301ffc9a7146101bc578063022a464d146101f957806315a8435f14610222575b600080fd5b3480156101c857600080fd5b506101e360048036038101906101de9190614a33565b610729565b6040516101f09190614a7b565b60405180910390f35b34801561020557600080fd5b50610220600480360381019061021b9190614acc565b6107a3565b005b34801561022e57600080fd5b5061024960048036038101906102449190614ba8565b610a5a565b005b34801561025757600080fd5b50610272600480360381019061026d9190614c87565b610df1565b60405161027f9190614cc3565b60405180910390f35b34801561029457600080fd5b506102af60048036038101906102aa9190614d14565b610e12565b6040516102bc9190614d50565b60405180910390f35b3480156102d157600080fd5b506102ec60048036038101906102e79190614c87565b610e32565b6040516102f99190614dfb565b60405180910390f35b34801561030e57600080fd5b5061032960048036038101906103249190614c87565b610fbc565b6040516103369190614cc3565b60405180910390f35b34801561034b57600080fd5b5061036660048036038101906103619190614e1d565b6113dc565b005b34801561037457600080fd5b5061038f600480360381019061038a9190614c87565b6113fd565b60405161039e93929190614e5d565b60405180910390f35b3480156103b357600080fd5b506103ce60048036038101906103c99190614e1d565b6115c3565b005b3480156103dc57600080fd5b506103f760048036038101906103f29190614e94565b611646565b005b34801561040557600080fd5b50610420600480360381019061041b9190614c87565b6117ce565b005b61043c60048036038101906104379190614ff6565b611c03565b005b34801561044a57600080fd5b5061046560048036038101906104609190614c87565b611d3f565b6040516104729190614cc3565b60405180910390f35b34801561048757600080fd5b506104a2600480360381019061049d9190614c87565b611f4a565b6040516104af9190615061565b60405180910390f35b3480156104c457600080fd5b506104cd61203e565b6040516104da9190614d50565b60405180910390f35b3480156104ef57600080fd5b5061050a60048036038101906105059190614acc565b6120f7565b005b34801561051857600080fd5b5061052161236c565b60405161052e9190614a7b565b60405180910390f35b34801561054357600080fd5b5061054c612383565b60405161055b9392919061507c565b60405180910390f35b34801561057057600080fd5b5061058b60048036038101906105869190614acc565b6123ff565b005b34801561059957600080fd5b506105b460048036038101906105af91906150b3565b612686565b6040516105c19190615061565b60405180910390f35b3480156105d657600080fd5b506105f160048036038101906105ec9190614e1d565b6126b5565b6040516105fe9190614a7b565b60405180910390f35b34801561061357600080fd5b5061061c612720565b6040516106299190614d50565b60405180910390f35b34801561063e57600080fd5b5061065960048036038101906106549190614c87565b612727565b005b34801561066757600080fd5b50610682600480360381019061067d9190614d14565b612b36565b60405161068f9190614cc3565b60405180910390f35b3480156106a457600080fd5b506106bf60048036038101906106ba9190614e1d565b612b5a565b005b3480156106cd57600080fd5b506106e860048036038101906106e39190614c87565b612b7b565b6040516106f59190614cc3565b60405180910390f35b34801561070a57600080fd5b50610713612b9c565b6040516107209190614d50565b60405180910390f35b60007f5a05180f000000000000000000000000000000000000000000000000000000007bffffffffffffffffffffffffffffffffffffffffffffffffffffffff1916827bffffffffffffffffffffffffffffffffffffffffffffffffffffffff1916148061079c575061079b82612bc0565b5b9050919050565b600061016260009054906101000a900473ffffffffffffffffffffffffffffffffffffffff1673ffffffffffffffffffffffffffffffffffffffff16635e9bc53661016360009054906101000a900473ffffffffffffffffffffffffffffffffffffffff164661016060009054906101000a900473ffffffffffffffffffffffffffffffffffffffff1687886040518663ffffffff1660e01b815260040161084f9594939291906150f3565b602060405180830381865afa15801561086c573d6000803e3d6000fd5b505050506040513d601f19601f82011682018060405250810190610890919061515b565b9050600061016560009054906101000a900473ffffffffffffffffffffffffffffffffffffffff1673ffffffffffffffffffffffffffffffffffffffff16631e482f9d846040518263ffffffff1660e01b81526004016108f09190614cc3565b602060405180830381865afa15801561090d573d6000803e3d6000fd5b505050506040513d601f19601f8201168201806040525081019061093191906151c1565b905061093e848483612c3a565b61097d576040517f08c379a00000000000000000000000000000000000000000000000000000000081526004016109749061524b565b60405180910390fd5b61016460009054906101000a900473ffffffffffffffffffffffffffffffffffffffff1673ffffffffffffffffffffffffffffffffffffffff166323b872dd3384866040518463ffffffff1660e01b81526004016109dd9392919061526b565b600060405180830381600087803b1580156109f757600080fd5b505af1158015610a0b573d6000803e3d6000fd5b5050505082843373ffffffffffffffffffffffffffffffffffffffff167f0bd6c769c25d1d783498b246d49d48a474fde50c651b8dab326f32a2c9e79b7e60405160405180910390a450505050565b60008060019054906101000a900460ff16159050808015610a8b5750600160008054906101000a900460ff1660ff16105b80610ab85750610a9a306130be565b158015610ab75750600160008054906101000a900460ff1660ff16145b5b610af7576040517f08c379a0000000000000000000000000000000000000000000000000000000008152600401610aee90615314565b60405180910390fd5b60016000806101000a81548160ff021916908360ff1602179055508015610b34576001600060016101000a81548160ff0219169083151502179055505b8a61015f60006101000a81548173ffffffffffffffffffffffffffffffffffffffff021916908373ffffffffffffffffffffffffffffffffffffffff1602179055508961016060006101000a81548173ffffffffffffffffffffffffffffffffffffffff021916908373ffffffffffffffffffffffffffffffffffffffff1602179055508861016160006101000a81548173ffffffffffffffffffffffffffffffffffffffff021916908373ffffffffffffffffffffffffffffffffffffffff1602179055508761016260006101000a81548173ffffffffffffffffffffffffffffffffffffffff021916908373ffffffffffffffffffffffffffffffffffffffff1602179055508661016360006101000a81548173ffffffffffffffffffffffffffffffffffffffff021916908373ffffffffffffffffffffffffffffffffffffffff1602179055508561016460006101000a81548173ffffffffffffffffffffffffffffffffffffffff021916908373ffffffffffffffffffffffffffffffffffffffff1602179055508461016560006101000a81548173ffffffffffffffffffffffffffffffffffffffff021916908373ffffffffffffffffffffffffffffffffffffffff1602179055508361016660006101000a81548173ffffffffffffffffffffffffffffffffffffffff021916908373ffffffffffffffffffffffffffffffffffffffff16021790555082610167819055508161016881905550610d616000801b336130e1565b610d8b7f189ab7a9244df0848122154315af71fe140f3db0fe014031783b0946b8c9d2e3336130e1565b8015610de45760008060016101000a81548160ff0219169083151502179055507f7f26b83ff96e1f2b6a682f133852f6798a09c465da95921460cefb38474024986001604051610ddb9190615379565b60405180910390a15b5050505050505050505050565b600061016a6000838152602001908152602001600020600101549050919050565b600060976000838152602001908152602001600020600101549050919050565b6060600061016260009054906101000a900473ffffffffffffffffffffffffffffffffffffffff1673ffffffffffffffffffffffffffffffffffffffff16635e9bc53661016360009054906101000a900473ffffffffffffffffffffffffffffffffffffffff164661016060009054906101000a900473ffffffffffffffffffffffffffffffffffffffff1687886040518663ffffffff1660e01b8152600401610ee09594939291906150f3565b602060405180830381865afa158015610efd573d6000803e3d6000fd5b505050506040513d601f19601f82011682018060405250810190610f21919061515b565b9050600033604051602401610f369190615061565b6040516020818303038152906040527f70a08231000000000000000000000000000000000000000000000000000000007bffffffffffffffffffffffffffffffffffffffffffffffffffffffff19166020820180517bffffffffffffffffffffffffffffffffffffffffffffffffffffffff838183161783525050505090505050919050565b60008061016a6000848152602001908152602001600020600101549050600081036110865761016660009054906101000a900473ffffffffffffffffffffffffffffffffffffffff1673ffffffffffffffffffffffffffffffffffffffff16635109f03f846040518263ffffffff1660e01b815260040161103d9190614cc3565b602060405180830381865afa15801561105a573d6000803e3d6000fd5b505050506040513d601f19601f8201168201806040525081019061107e91906153a9565b9150506113d7565b61016160009054906101000a900473ffffffffffffffffffffffffffffffffffffffff1673ffffffffffffffffffffffffffffffffffffffff16636352211e826040518263ffffffff1660e01b81526004016110e29190614cc3565b602060405180830381865afa1580156110ff573d6000803e3d6000fd5b505050506040513d601f19601f82011682018060405250810190611123919061515b565b73ffffffffffffffffffffffffffffffffffffffff1661016160009054906101000a900473ffffffffffffffffffffffffffffffffffffffff1673ffffffffffffffffffffffffffffffffffffffff16636352211e856040518263ffffffff1660e01b81526004016111959190614cc3565b602060405180830381865afa1580156111b2573d6000803e3d6000fd5b505050506040513d601f19601f820116820180604052508101906111d6919061515b565b73ffffffffffffffffffffffffffffffffffffffff16036112e6576112de610e10600a61016a6000878152602001908152602001600020600001544261121c9190615405565b6112269190615439565b61123091906154aa565b61016660009054906101000a900473ffffffffffffffffffffffffffffffffffffffff1673ffffffffffffffffffffffffffffffffffffffff16635109f03f866040518263ffffffff1660e01b815260040161128c9190614cc3565b602060405180830381865afa1580156112a9573d6000803e3d6000fd5b505050506040513d601f19601f820116820180604052508101906112cd91906153a9565b6112d79190615405565b6064613115565b9150506113d7565b6113d3610e10601e61016a6000878152602001908152602001600020600001544261131191906154db565b61131b9190615439565b61132591906154aa565b61016660009054906101000a900473ffffffffffffffffffffffffffffffffffffffff1673ffffffffffffffffffffffffffffffffffffffff16635109f03f866040518263ffffffff1660e01b81526004016113819190614cc3565b602060405180830381865afa15801561139e573d6000803e3d6000fd5b505050506040513d601f19601f820116820180604052508101906113c291906153a9565b6113cc91906154db565b6064613115565b9150505b919050565b6113e582610e12565b6113ee81613131565b6113f883836130e1565b505050565b60008060008061016260009054906101000a900473ffffffffffffffffffffffffffffffffffffffff1673ffffffffffffffffffffffffffffffffffffffff16635e9bc53661016360009054906101000a900473ffffffffffffffffffffffffffffffffffffffff164661016060009054906101000a900473ffffffffffffffffffffffffffffffffffffffff16898a6040518663ffffffff1660e01b81526004016114ad9594939291906150f3565b602060405180830381865afa1580156114ca573d6000803e3d6000fd5b505050506040513d601f19601f820116820180604052508101906114ee919061515b565b905061016560009054906101000a900473ffffffffffffffffffffffffffffffffffffffff1673ffffffffffffffffffffffffffffffffffffffff1663952ba6d4826040518263ffffffff1660e01b815260040161154c9190615061565b606060405180830381865afa158015611569573d6000803e3d6000fd5b505050506040513d601f19601f8201168201806040525081019061158d919061550f565b80945081955082965050505061016754846115a891906154db565b935061016854836115b991906154db565b9250509193909250565b6115cb613145565b73ffffffffffffffffffffffffffffffffffffffff168173ffffffffffffffffffffffffffffffffffffffff1614611638576040517f08c379a000000000000000000000000000000000000000000000000000000000815260040161162f906155d4565b60405180910390fd5b611642828261314d565b5050565b7f000000000000000000000000000000000000000000000000000000000000000073ffffffffffffffffffffffffffffffffffffffff163073ffffffffffffffffffffffffffffffffffffffff16036116d4576040517f08c379a00000000000000000000000000000000000000000000000000000000081526004016116cb90615666565b60405180910390fd5b7f000000000000000000000000000000000000000000000000000000000000000073ffffffffffffffffffffffffffffffffffffffff16611713613181565b73ffffffffffffffffffffffffffffffffffffffff1614611769576040517f08c379a0000000000000000000000000000000000000000000000000000000008152600401611760906156f8565b60405180910390fd5b611772816131d8565b6117cb81600067ffffffffffffffff81111561179157611790614ecb565b5b6040519080825280601f01601f1916602001820160405280156117c35781602001600182028036833780820191505090505b506000613206565b50565b3373ffffffffffffffffffffffffffffffffffffffff1661016060009054906101000a900473ffffffffffffffffffffffffffffffffffffffff1673ffffffffffffffffffffffffffffffffffffffff16636352211e836040518263ffffffff1660e01b81526004016118419190614cc3565b602060405180830381865afa15801561185e573d6000803e3d6000fd5b505050506040513d601f19601f82011682018060405250810190611882919061515b565b73ffffffffffffffffffffffffffffffffffffffff16146118d8576040517f08c379a00000000000000000000000000000000000000000000000000000000081526004016118cf90615764565b60405180910390fd5b600061016960008381526020019081526020016000206001015403611932576040517f08c379a0000000000000000000000000000000000000000000000000000000008152600401611929906157d0565b60405180910390fd5b6000610169600083815260200190815260200160002060010154905061016060009054906101000a900473ffffffffffffffffffffffffffffffffffffffff1673ffffffffffffffffffffffffffffffffffffffff16636352211e836040518263ffffffff1660e01b81526004016119aa9190614cc3565b602060405180830381865afa1580156119c7573d6000803e3d6000fd5b505050506040513d601f19601f820116820180604052508101906119eb919061515b565b73ffffffffffffffffffffffffffffffffffffffff1661016160009054906101000a900473ffffffffffffffffffffffffffffffffffffffff1673ffffffffffffffffffffffffffffffffffffffff16636352211e836040518263ffffffff1660e01b8152600401611a5d9190614cc3565b602060405180830381865afa158015611a7a573d6000803e3d6000fd5b505050506040513d601f19601f82011682018060405250810190611a9e919061515b565b73ffffffffffffffffffffffffffffffffffffffff1603611b565761016660009054906101000a900473ffffffffffffffffffffffffffffffffffffffff1673ffffffffffffffffffffffffffffffffffffffff16637e94876b82611b0284610fbc565b6040518363ffffffff1660e01b8152600401611b1f9291906157f0565b600060405180830381600087803b158015611b3957600080fd5b505af1158015611b4d573d6000803e3d6000fd5b50505050611b60565b611b5f82613374565b5b611b69826134f5565b600061016a6000610169600086815260200190815260200160002060010154815260200190815260200160002060010181905550600061016960008481526020019081526020016000206001018190555080823373ffffffffffffffffffffffffffffffffffffffff167fdad7b65718aeb684bef2211abe2b9acb462274028de38696ed5b13bd822403c660405160405180910390a45050565b7f000000000000000000000000000000000000000000000000000000000000000073ffffffffffffffffffffffffffffffffffffffff163073ffffffffffffffffffffffffffffffffffffffff1603611c91576040517f08c379a0000000000000000000000000000000000000000000000000000000008152600401611c8890615666565b60405180910390fd5b7f000000000000000000000000000000000000000000000000000000000000000073ffffffffffffffffffffffffffffffffffffffff16611cd0613181565b73ffffffffffffffffffffffffffffffffffffffff1614611d26576040517f08c379a0000000000000000000000000000000000000000000000000000000008152600401611d1d906156f8565b60405180910390fd5b611d2f826131d8565b611d3b82826001613206565b5050565b600061016160009054906101000a900473ffffffffffffffffffffffffffffffffffffffff1673ffffffffffffffffffffffffffffffffffffffff16636352211e6101696000858152602001908152602001600020600101546040518263ffffffff1660e01b8152600401611db49190614cc3565b602060405180830381865afa158015611dd1573d6000803e3d6000fd5b505050506040513d601f19601f82011682018060405250810190611df5919061515b565b73ffffffffffffffffffffffffffffffffffffffff1661016060009054906101000a900473ffffffffffffffffffffffffffffffffffffffff1673ffffffffffffffffffffffffffffffffffffffff16636352211e846040518263ffffffff1660e01b8152600401611e679190614cc3565b602060405180830381865afa158015611e84573d6000803e3d6000fd5b505050506040513d601f19601f82011682018060405250810190611ea8919061515b565b73ffffffffffffffffffffffffffffffffffffffff1603611f0657610e10601e61016960008581526020019081526020016000206000015442611eeb9190615405565b611ef59190615439565b611eff91906154aa565b9050611f45565b610e10600a61016960008581526020019081526020016000206000015442611f2e9190615405565b611f389190615439565b611f4291906154aa565b90505b919050565b600061016260009054906101000a900473ffffffffffffffffffffffffffffffffffffffff1673ffffffffffffffffffffffffffffffffffffffff16635e9bc53661016360009054906101000a900473ffffffffffffffffffffffffffffffffffffffff164661016060009054906101000a900473ffffffffffffffffffffffffffffffffffffffff1686876040518663ffffffff1660e01b8152600401611ff69594939291906150f3565b602060405180830381865afa158015612013573d6000803e3d6000fd5b505050506040513d601f19601f82011682018060405250810190612037919061515b565b9050919050565b60007f000000000000000000000000000000000000000000000000000000000000000073ffffffffffffffffffffffffffffffffffffffff163073ffffffffffffffffffffffffffffffffffffffff16146120ce576040517f08c379a00000000000000000000000000000000000000000000000000000000081526004016120c59061588b565b60405180910390fd5b7f360894a13ba1a3210667c828492db98dca3e2076cc3735a920a3ca505d382bbc60001b905090565b600061016260009054906101000a900473ffffffffffffffffffffffffffffffffffffffff1673ffffffffffffffffffffffffffffffffffffffff16635e9bc53661016360009054906101000a900473ffffffffffffffffffffffffffffffffffffffff164661016060009054906101000a900473ffffffffffffffffffffffffffffffffffffffff1687886040518663ffffffff1660e01b81526004016121a39594939291906150f3565b602060405180830381865afa1580156121c0573d6000803e3d6000fd5b505050506040513d601f19601f820116820180604052508101906121e4919061515b565b90506121f0838361389e565b61222f576040517f08c379a0000000000000000000000000000000000000000000000000000000008152600401612226906158f7565b60405180910390fd5b60007fa9059cbb2ab09eb219583f4a59a5d0623ade346d962bcd4e46b11da047c9049b338460405160200161226693929190615926565b60405160208183030381529060405290508173ffffffffffffffffffffffffffffffffffffffff16639e5d4c4961016460009054906101000a900473ffffffffffffffffffffffffffffffffffffffff166000846040518463ffffffff1660e01b81526004016122d893929190615998565b6000604051808303816000875af11580156122f7573d6000803e3d6000fd5b505050506040513d6000823e3d601f19601f820116820180604052508101906123209190615a46565b5082843373ffffffffffffffffffffffffffffffffffffffff167f1e4a65c0786b328913f11fb9b5b642a34795e44d1fd141834127382ed76602c760405160405180910390a450505050565b6000603360009054906101000a900460ff16905090565b600080600061016360009054906101000a900473ffffffffffffffffffffffffffffffffffffffff1661016060009054906101000a900473ffffffffffffffffffffffffffffffffffffffff1661016260009054906101000a900473ffffffffffffffffffffffffffffffffffffffff16925092509250909192565b3373ffffffffffffffffffffffffffffffffffffffff1661016060009054906101000a900473ffffffffffffffffffffffffffffffffffffffff1673ffffffffffffffffffffffffffffffffffffffff16636352211e846040518263ffffffff1660e01b81526004016124729190614cc3565b602060405180830381865afa15801561248f573d6000803e3d6000fd5b505050506040513d601f19601f820116820180604052508101906124b3919061515b565b73ffffffffffffffffffffffffffffffffffffffff1614612509576040517f08c379a000000000000000000000000000000000000000000000000000000000815260040161250090615adb565b60405180910390fd5b600061016960008481526020019081526020016000206001015414612563576040517f08c379a000000000000000000000000000000000000000000000000000000000815260040161255a90615b47565b60405180910390fd5b600061016a600083815260200190815260200160002060010154146125bd576040517f08c379a00000000000000000000000000000000000000000000000000000000081526004016125b490615bb3565b60405180910390fd5b6040518060400160405280428152602001828152506101696000848152602001908152602001600020600082015181600001556020820151816001015590505060405180604001604052804281526020018381525061016a6000838152602001908152602001600020600082015181600001556020820151816001015590505080823373ffffffffffffffffffffffffffffffffffffffff167fcd27ca757e03fea95353ca5b5a9e1598052d5bcbff888261e23a30c691f2ccec60405160405180910390a45050565b60006126ad8260c96000868152602001908152602001600020613ac790919063ffffffff16565b905092915050565b60006097600084815260200190815260200160002060000160008373ffffffffffffffffffffffffffffffffffffffff1673ffffffffffffffffffffffffffffffffffffffff16815260200190815260200160002060009054906101000a900460ff16905092915050565b6000801b81565b600061016a60008381526020019081526020016000206001015403612781576040517f08c379a000000000000000000000000000000000000000000000000000000000815260040161277890615c1f565b60405180910390fd5b3373ffffffffffffffffffffffffffffffffffffffff1661016160009054906101000a900473ffffffffffffffffffffffffffffffffffffffff1673ffffffffffffffffffffffffffffffffffffffff16636352211e836040518263ffffffff1660e01b81526004016127f49190614cc3565b602060405180830381865afa158015612811573d6000803e3d6000fd5b505050506040513d601f19601f82011682018060405250810190612835919061515b565b73ffffffffffffffffffffffffffffffffffffffff161461288b576040517f08c379a000000000000000000000000000000000000000000000000000000000815260040161288290615c8b565b60405180910390fd5b3373ffffffffffffffffffffffffffffffffffffffff1661016060009054906101000a900473ffffffffffffffffffffffffffffffffffffffff1673ffffffffffffffffffffffffffffffffffffffff16636352211e61016a6000858152602001908152602001600020600101546040518263ffffffff1660e01b81526004016129159190614cc3565b602060405180830381865afa158015612932573d6000803e3d6000fd5b505050506040513d601f19601f82011682018060405250810190612956919061515b565b73ffffffffffffffffffffffffffffffffffffffff16036129ac576040517f08c379a00000000000000000000000000000000000000000000000000000000081526004016129a390615cf7565b60405180910390fd5b6129b581613ae1565b6129be81613ef3565b6129de61016a6000838152602001908152602001600020600101546134f5565b600061016a6000838152602001908152602001600020600101549050600061016060009054906101000a900473ffffffffffffffffffffffffffffffffffffffff1673ffffffffffffffffffffffffffffffffffffffff16636352211e836040518263ffffffff1660e01b8152600401612a589190614cc3565b602060405180830381865afa158015612a75573d6000803e3d6000fd5b505050506040513d601f19601f82011682018060405250810190612a99919061515b565b90506000610169600061016a600087815260200190815260200160002060010154815260200190815260200160002060010181905550600061016a60008581526020019081526020016000206001018190555082828273ffffffffffffffffffffffffffffffffffffffff167fa3e93c8fb59a212553dfc6efb0acee5cc78be47332bdce3a76a30af8df09de3760405160405180910390a4505050565b6000612b5360c96000848152602001908152602001600020613f94565b9050919050565b612b6382610e12565b612b6c81613131565b612b76838361314d565b505050565b60006101696000838152602001908152602001600020600101549050919050565b7f189ab7a9244df0848122154315af71fe140f3db0fe014031783b0946b8c9d2e381565b60007f7965db0b000000000000000000000000000000000000000000000000000000007bffffffffffffffffffffffffffffffffffffffffffffffffffffffff1916827bffffffffffffffffffffffffffffffffffffffffffffffffffffffff19161480612c335750612c3282613fa9565b5b9050919050565b60008061016260009054906101000a900473ffffffffffffffffffffffffffffffffffffffff1673ffffffffffffffffffffffffffffffffffffffff16635e9bc53661016360009054906101000a900473ffffffffffffffffffffffffffffffffffffffff164661016060009054906101000a900473ffffffffffffffffffffffffffffffffffffffff16898a6040518663ffffffff1660e01b8152600401612ce79594939291906150f3565b602060405180830381865afa158015612d04573d6000803e3d6000fd5b505050506040513d601f19601f82011682018060405250810190612d28919061515b565b9050600061016560009054906101000a900473ffffffffffffffffffffffffffffffffffffffff1673ffffffffffffffffffffffffffffffffffffffff1663f8046eea866040518263ffffffff1660e01b8152600401612d889190614cc3565b602060405180830381865afa158015612da5573d6000803e3d6000fd5b505050506040513d601f19601f82011682018060405250810190612dc991906153a9565b11612e09576040517f08c379a0000000000000000000000000000000000000000000000000000000008152600401612e0090615d63565b60405180910390fd5b600061016960008781526020019081526020016000206001015414612e63576040517f08c379a0000000000000000000000000000000000000000000000000000000008152600401612e5a90615df5565b60405180910390fd5b600061016460009054906101000a900473ffffffffffffffffffffffffffffffffffffffff1673ffffffffffffffffffffffffffffffffffffffff166370a08231836040518263ffffffff1660e01b8152600401612ec19190615061565b602060405180830381865afa158015612ede573d6000803e3d6000fd5b505050506040513d601f19601f82011682018060405250810190612f0291906153a9565b905060005b818110156130b057600061016460009054906101000a900473ffffffffffffffffffffffffffffffffffffffff1673ffffffffffffffffffffffffffffffffffffffff16632f745c5985846040518363ffffffff1660e01b8152600401612f6f929190615e15565b602060405180830381865afa158015612f8c573d6000803e3d6000fd5b505050506040513d601f19601f82011682018060405250810190612fb091906153a9565b9050600061016560009054906101000a900473ffffffffffffffffffffffffffffffffffffffff1673ffffffffffffffffffffffffffffffffffffffff16631e482f9d836040518263ffffffff1660e01b81526004016130109190614cc3565b602060405180830381865afa15801561302d573d6000803e3d6000fd5b505050506040513d601f19601f8201168201806040525081019061305191906151c1565b60ff169050808760ff160361309b576040517f08c379a000000000000000000000000000000000000000000000000000000000815260040161309290615eb0565b60405180910390fd5b505080806130a890615ed0565b915050612f07565b506001925050509392505050565b6000808273ffffffffffffffffffffffffffffffffffffffff163b119050919050565b6130eb8282614013565b6131108160c960008581526020019081526020016000206140f490919063ffffffff16565b505050565b6000818310156131275782905061312b565b8190505b92915050565b6131428161313d613145565b614124565b50565b600033905090565b61315782826141a9565b61317c8160c9600085815260200190815260200160002061428b90919063ffffffff16565b505050565b60006131af7f360894a13ba1a3210667c828492db98dca3e2076cc3735a920a3ca505d382bbc60001b6142bb565b60000160009054906101000a900473ffffffffffffffffffffffffffffffffffffffff16905090565b7f189ab7a9244df0848122154315af71fe140f3db0fe014031783b0946b8c9d2e361320281613131565b5050565b6132327f4910fdfa16fed3260ed0e7147f7cc6da11a60208b5b9406d12a635614ffd914360001b6142c5565b60000160009054906101000a900460ff161561325657613251836142cf565b61336f565b8273ffffffffffffffffffffffffffffffffffffffff166352d1902d6040518163ffffffff1660e01b8152600401602060405180830381865afa9250505080156132be57506040513d601f19601f820116820180604052508101906132bb9190615f2d565b60015b6132fd576040517f08c379a00000000000000000000000000000000000000000000000000000000081526004016132f490615fcc565b60405180910390fd5b7f360894a13ba1a3210667c828492db98dca3e2076cc3735a920a3ca505d382bbc60001b8114613362576040517f08c379a00000000000000000000000000000000000000000000000000000000081526004016133599061605e565b60405180910390fd5b5061336e838383614388565b5b505050565b600080613380836113fd565b50915091506000610169600085815260200190815260200160002060000154426133aa9190615405565b9050818111156133b8578190505b61015f60009054906101000a900473ffffffffffffffffffffffffffffffffffffffff1673ffffffffffffffffffffffffffffffffffffffff166340c10f1961016060009054906101000a900473ffffffffffffffffffffffffffffffffffffffff1673ffffffffffffffffffffffffffffffffffffffff16636352211e876040518263ffffffff1660e01b81526004016134539190614cc3565b602060405180830381865afa158015613470573d6000803e3d6000fd5b505050506040513d601f19601f82011682018060405250810190613494919061515b565b85846134a09190615439565b6040518363ffffffff1660e01b81526004016134bd929190615e15565b600060405180830381600087803b1580156134d757600080fd5b505af11580156134eb573d6000803e3d6000fd5b5050505050505050565b600061016260009054906101000a900473ffffffffffffffffffffffffffffffffffffffff1673ffffffffffffffffffffffffffffffffffffffff16635e9bc53661016360009054906101000a900473ffffffffffffffffffffffffffffffffffffffff164661016060009054906101000a900473ffffffffffffffffffffffffffffffffffffffff1686876040518663ffffffff1660e01b81526004016135a19594939291906150f3565b602060405180830381865afa1580156135be573d6000803e3d6000fd5b505050506040513d601f19601f820116820180604052508101906135e2919061515b565b905060006135ef83611d3f565b905061016160009054906101000a900473ffffffffffffffffffffffffffffffffffffffff1673ffffffffffffffffffffffffffffffffffffffff16636352211e6101696000868152602001908152602001600020600101546040518263ffffffff1660e01b81526004016136649190614cc3565b602060405180830381865afa158015613681573d6000803e3d6000fd5b505050506040513d601f19601f820116820180604052508101906136a5919061515b565b73ffffffffffffffffffffffffffffffffffffffff1661016060009054906101000a900473ffffffffffffffffffffffffffffffffffffffff1673ffffffffffffffffffffffffffffffffffffffff16636352211e856040518263ffffffff1660e01b81526004016137179190614cc3565b602060405180830381865afa158015613734573d6000803e3d6000fd5b505050506040513d601f19601f82011682018060405250810190613758919061515b565b73ffffffffffffffffffffffffffffffffffffffff16036138085761016560009054906101000a900473ffffffffffffffffffffffffffffffffffffffff1673ffffffffffffffffffffffffffffffffffffffff1663f953bf0783836040518363ffffffff1660e01b81526004016137d1929190615e15565b600060405180830381600087803b1580156137eb57600080fd5b505af11580156137ff573d6000803e3d6000fd5b50505050613899565b61016560009054906101000a900473ffffffffffffffffffffffffffffffffffffffff1673ffffffffffffffffffffffffffffffffffffffff1663856ce42383836040518363ffffffff1660e01b8152600401613866929190615e15565b600060405180830381600087803b15801561388057600080fd5b505af1158015613894573d6000803e3d6000fd5b505050505b505050565b60008061016260009054906101000a900473ffffffffffffffffffffffffffffffffffffffff1673ffffffffffffffffffffffffffffffffffffffff16635e9bc53661016360009054906101000a900473ffffffffffffffffffffffffffffffffffffffff164661016060009054906101000a900473ffffffffffffffffffffffffffffffffffffffff1688896040518663ffffffff1660e01b815260040161394b9594939291906150f3565b602060405180830381865afa158015613968573d6000803e3d6000fd5b505050506040513d601f19601f8201168201806040525081019061398c919061515b565b90506000610169600086815260200190815260200160002060010154146139e8576040517f08c379a00000000000000000000000000000000000000000000000000000000081526004016139df90615df5565b60405180910390fd5b8073ffffffffffffffffffffffffffffffffffffffff1661016460009054906101000a900473ffffffffffffffffffffffffffffffffffffffff1673ffffffffffffffffffffffffffffffffffffffff16636352211e856040518263ffffffff1660e01b8152600401613a5b9190614cc3565b602060405180830381865afa158015613a78573d6000803e3d6000fd5b505050506040513d601f19601f82011682018060405250810190613a9c919061515b565b73ffffffffffffffffffffffffffffffffffffffff1614613abc57600080fd5b600191505092915050565b6000613ad683600001836143b4565b60001c905092915050565b600061016a60008381526020019081526020016000206001015490503373ffffffffffffffffffffffffffffffffffffffff1661016060009054906101000a900473ffffffffffffffffffffffffffffffffffffffff1673ffffffffffffffffffffffffffffffffffffffff16636352211e836040518263ffffffff1660e01b8152600401613b709190614cc3565b602060405180830381865afa158015613b8d573d6000803e3d6000fd5b505050506040513d601f19601f82011682018060405250810190613bb1919061515b565b73ffffffffffffffffffffffffffffffffffffffff1603613c07576040517f08c379a0000000000000000000000000000000000000000000000000000000008152600401613bfe906160ca565b60405180910390fd5b6000806000613c15846113fd565b925092509250600061016a60008781526020019081526020016000206000015442613c409190615405565b905082811115613c4e578290505b61015f60009054906101000a900473ffffffffffffffffffffffffffffffffffffffff1673ffffffffffffffffffffffffffffffffffffffff166340c10f1961016160009054906101000a900473ffffffffffffffffffffffffffffffffffffffff1673ffffffffffffffffffffffffffffffffffffffff16636352211e896040518263ffffffff1660e01b8152600401613ce99190614cc3565b602060405180830381865afa158015613d06573d6000803e3d6000fd5b505050506040513d601f19601f82011682018060405250810190613d2a919061515b565b6064856064613d399190615405565b8886613d459190615439565b613d4f9190615439565b613d5991906154aa565b6040518363ffffffff1660e01b8152600401613d76929190615e15565b600060405180830381600087803b158015613d9057600080fd5b505af1158015613da4573d6000803e3d6000fd5b5050505061015f60009054906101000a900473ffffffffffffffffffffffffffffffffffffffff1673ffffffffffffffffffffffffffffffffffffffff166340c10f1961016160009054906101000a900473ffffffffffffffffffffffffffffffffffffffff1673ffffffffffffffffffffffffffffffffffffffff16636352211e886040518263ffffffff1660e01b8152600401613e439190614cc3565b602060405180830381865afa158015613e60573d6000803e3d6000fd5b505050506040513d601f19601f82011682018060405250810190613e84919061515b565b60648585613e929190615439565b613e9c91906154aa565b6040518363ffffffff1660e01b8152600401613eb9929190615e15565b600060405180830381600087803b158015613ed357600080fd5b505af1158015613ee7573d6000803e3d6000fd5b50505050505050505050565b6000613efe82610fbc565b905061016660009054906101000a900473ffffffffffffffffffffffffffffffffffffffff1673ffffffffffffffffffffffffffffffffffffffff16637e94876b83836040518363ffffffff1660e01b8152600401613f5e9291906157f0565b600060405180830381600087803b158015613f7857600080fd5b505af1158015613f8c573d6000803e3d6000fd5b505050505050565b6000613fa2826000016143df565b9050919050565b60007f01ffc9a7000000000000000000000000000000000000000000000000000000007bffffffffffffffffffffffffffffffffffffffffffffffffffffffff1916827bffffffffffffffffffffffffffffffffffffffffffffffffffffffff1916149050919050565b61401d82826126b5565b6140f05760016097600084815260200190815260200160002060000160008373ffffffffffffffffffffffffffffffffffffffff1673ffffffffffffffffffffffffffffffffffffffff16815260200190815260200160002060006101000a81548160ff021916908315150217905550614095613145565b73ffffffffffffffffffffffffffffffffffffffff168173ffffffffffffffffffffffffffffffffffffffff16837f2f8788117e7eff1d82e926ec794901d17c78024a50270940304540a733656f0d60405160405180910390a45b5050565b600061411c836000018373ffffffffffffffffffffffffffffffffffffffff1660001b6143f0565b905092915050565b61412e82826126b5565b6141a55761413b81614460565b6141498360001c602061448d565b60405160200161415a9291906161c9565b6040516020818303038152906040526040517f08c379a000000000000000000000000000000000000000000000000000000000815260040161419c919061623c565b60405180910390fd5b5050565b6141b382826126b5565b156142875760006097600084815260200190815260200160002060000160008373ffffffffffffffffffffffffffffffffffffffff1673ffffffffffffffffffffffffffffffffffffffff16815260200190815260200160002060006101000a81548160ff02191690831515021790555061422c613145565b73ffffffffffffffffffffffffffffffffffffffff168173ffffffffffffffffffffffffffffffffffffffff16837ff6391f5c32d9c69d2a47ea670b442974b53935d1edc7fd64eb21e047a839171b60405160405180910390a45b5050565b60006142b3836000018373ffffffffffffffffffffffffffffffffffffffff1660001b6146c9565b905092915050565b6000819050919050565b6000819050919050565b6142d8816130be565b614317576040517f08c379a000000000000000000000000000000000000000000000000000000000815260040161430e906162d0565b60405180910390fd5b806143447f360894a13ba1a3210667c828492db98dca3e2076cc3735a920a3ca505d382bbc60001b6142bb565b60000160006101000a81548173ffffffffffffffffffffffffffffffffffffffff021916908373ffffffffffffffffffffffffffffffffffffffff16021790555050565b614391836147dd565b60008251118061439e5750805b156143af576143ad838361482c565b505b505050565b60008260000182815481106143cc576143cb6162f0565b5b9060005260206000200154905092915050565b600081600001805490509050919050565b60006143fc8383614859565b61445557826000018290806001815401808255809150506001900390600052602060002001600090919091909150558260000180549050836001016000848152602001908152602001600020819055506001905061445a565b600090505b92915050565b60606144868273ffffffffffffffffffffffffffffffffffffffff16601460ff1661448d565b9050919050565b6060600060028360026144a09190615439565b6144aa91906154db565b67ffffffffffffffff8111156144c3576144c2614ecb565b5b6040519080825280601f01601f1916602001820160405280156144f55781602001600182028036833780820191505090505b5090507f30000000000000000000000000000000000000000000000000000000000000008160008151811061452d5761452c6162f0565b5b60200101907effffffffffffffffffffffffffffffffffffffffffffffffffffffffffffff1916908160001a9053507f780000000000000000000000000000000000000000000000000000000000000081600181518110614591576145906162f0565b5b60200101907effffffffffffffffffffffffffffffffffffffffffffffffffffffffffffff1916908160001a905350600060018460026145d19190615439565b6145db91906154db565b90505b600181111561467b577f3031323334353637383961626364656600000000000000000000000000000000600f86166010811061461d5761461c6162f0565b5b1a60f81b828281518110614634576146336162f0565b5b60200101907effffffffffffffffffffffffffffffffffffffffffffffffffffffffffffff1916908160001a905350600485901c9450806146749061631f565b90506145de565b50600084146146bf576040517f08c379a00000000000000000000000000000000000000000000000000000000081526004016146b690616394565b60405180910390fd5b8091505092915050565b600080836001016000848152602001908152602001600020549050600081146147d15760006001826146fb9190615405565b90506000600186600001805490506147139190615405565b9050818114614782576000866000018281548110614734576147336162f0565b5b9060005260206000200154905080876000018481548110614758576147576162f0565b5b90600052602060002001819055508387600101600083815260200190815260200160002081905550505b85600001805480614796576147956163b4565b5b6001900381819060005260206000200160009055905585600101600086815260200190815260200160002060009055600193505050506147d7565b60009150505b92915050565b6147e6816142cf565b8073ffffffffffffffffffffffffffffffffffffffff167fbc7cd75a20ee27fd9adebab32041f755214dbc6bffa90cc0225b39da2e5c2d3b60405160405180910390a250565b606061485183836040518060600160405280602781526020016164a36027913961487c565b905092915050565b600080836001016000848152602001908152602001600020541415905092915050565b60606000808573ffffffffffffffffffffffffffffffffffffffff16856040516148a6919061641f565b600060405180830381855af49150503d80600081146148e1576040519150601f19603f3d011682016040523d82523d6000602084013e6148e6565b606091505b50915091506148f786838387614902565b925050509392505050565b6060831561496457600083510361495c5761491c856130be565b61495b576040517f08c379a000000000000000000000000000000000000000000000000000000000815260040161495290616482565b60405180910390fd5b5b82905061496f565b61496e8383614977565b5b949350505050565b60008251111561498a5781518083602001fd5b806040517f08c379a00000000000000000000000000000000000000000000000000000000081526004016149be919061623c565b60405180910390fd5b6000604051905090565b600080fd5b600080fd5b60007fffffffff0000000000000000000000000000000000000000000000000000000082169050919050565b614a10816149db565b8114614a1b57600080fd5b50565b600081359050614a2d81614a07565b92915050565b600060208284031215614a4957614a486149d1565b5b6000614a5784828501614a1e565b91505092915050565b60008115159050919050565b614a7581614a60565b82525050565b6000602082019050614a906000830184614a6c565b92915050565b6000819050919050565b614aa981614a96565b8114614ab457600080fd5b50565b600081359050614ac681614aa0565b92915050565b60008060408385031215614ae357614ae26149d1565b5b6000614af185828601614ab7565b9250506020614b0285828601614ab7565b9150509250929050565b600073ffffffffffffffffffffffffffffffffffffffff82169050919050565b6000614b3782614b0c565b9050919050565b614b4781614b2c565b8114614b5257600080fd5b50565b600081359050614b6481614b3e565b92915050565b6000614b7582614b0c565b9050919050565b614b8581614b6a565b8114614b9057600080fd5b50565b600081359050614ba281614b7c565b92915050565b6000806000806000806000806000806101408b8d031215614bcc57614bcb6149d1565b5b6000614bda8d828e01614b55565b9a50506020614beb8d828e01614b55565b9950506040614bfc8d828e01614b55565b9850506060614c0d8d828e01614b55565b9750506080614c1e8d828e01614b93565b96505060a0614c2f8d828e01614b55565b95505060c0614c408d828e01614b55565b94505060e0614c518d828e01614b55565b935050610100614c638d828e01614ab7565b925050610120614c758d828e01614ab7565b9150509295989b9194979a5092959850565b600060208284031215614c9d57614c9c6149d1565b5b6000614cab84828501614ab7565b91505092915050565b614cbd81614a96565b82525050565b6000602082019050614cd86000830184614cb4565b92915050565b6000819050919050565b614cf181614cde565b8114614cfc57600080fd5b50565b600081359050614d0e81614ce8565b92915050565b600060208284031215614d2a57614d296149d1565b5b6000614d3884828501614cff565b91505092915050565b614d4a81614cde565b82525050565b6000602082019050614d656000830184614d41565b92915050565b600081519050919050565b600082825260208201905092915050565b60005b83811015614da5578082015181840152602081019050614d8a565b60008484015250505050565b6000601f19601f8301169050919050565b6000614dcd82614d6b565b614dd78185614d76565b9350614de7818560208601614d87565b614df081614db1565b840191505092915050565b60006020820190508181036000830152614e158184614dc2565b905092915050565b60008060408385031215614e3457614e336149d1565b5b6000614e4285828601614cff565b9250506020614e5385828601614b55565b9150509250929050565b6000606082019050614e726000830186614cb4565b614e7f6020830185614cb4565b614e8c6040830184614cb4565b949350505050565b600060208284031215614eaa57614ea96149d1565b5b6000614eb884828501614b55565b91505092915050565b600080fd5b600080fd5b7f4e487b7100000000000000000000000000000000000000000000000000000000600052604160045260246000fd5b614f0382614db1565b810181811067ffffffffffffffff82111715614f2257614f21614ecb565b5b80604052505050565b6000614f356149c7565b9050614f418282614efa565b919050565b600067ffffffffffffffff821115614f6157614f60614ecb565b5b614f6a82614db1565b9050602081019050919050565b82818337600083830152505050565b6000614f99614f9484614f46565b614f2b565b905082815260208101848484011115614fb557614fb4614ec6565b5b614fc0848285614f77565b509392505050565b600082601f830112614fdd57614fdc614ec1565b5b8135614fed848260208601614f86565b91505092915050565b6000806040838503121561500d5761500c6149d1565b5b600061501b85828601614b55565b925050602083013567ffffffffffffffff81111561503c5761503b6149d6565b5b61504885828601614fc8565b9150509250929050565b61505b81614b2c565b82525050565b60006020820190506150766000830184615052565b92915050565b60006060820190506150916000830186615052565b61509e6020830185615052565b6150ab6040830184615052565b949350505050565b600080604083850312156150ca576150c96149d1565b5b60006150d885828601614cff565b92505060206150e985828601614ab7565b9150509250929050565b600060a0820190506151086000830188615052565b6151156020830187614cb4565b6151226040830186615052565b61512f6060830185614cb4565b61513c6080830184614cb4565b9695505050505050565b60008151905061515581614b3e565b92915050565b600060208284031215615171576151706149d1565b5b600061517f84828501615146565b91505092915050565b600060ff82169050919050565b61519e81615188565b81146151a957600080fd5b50565b6000815190506151bb81615195565b92915050565b6000602082840312156151d7576151d66149d1565b5b60006151e5848285016151ac565b91505092915050565b600082825260208201905092915050565b7f796f7520686173206c6f61642074686973207479706520636f6d706f6e656e74600082015250565b60006152356020836151ee565b9150615240826151ff565b602082019050919050565b6000602082019050818103600083015261526481615228565b9050919050565b60006060820190506152806000830186615052565b61528d6020830185615052565b61529a6040830184614cb4565b949350505050565b7f496e697469616c697a61626c653a20636f6e747261637420697320616c72656160008201527f647920696e697469616c697a6564000000000000000000000000000000000000602082015250565b60006152fe602e836151ee565b9150615309826152a2565b604082019050919050565b6000602082019050818103600083015261532d816152f1565b9050919050565b6000819050919050565b6000819050919050565b600061536361535e61535984615334565b61533e565b615188565b9050919050565b61537381615348565b82525050565b600060208201905061538e600083018461536a565b92915050565b6000815190506153a381614aa0565b92915050565b6000602082840312156153bf576153be6149d1565b5b60006153cd84828501615394565b91505092915050565b7f4e487b7100000000000000000000000000000000000000000000000000000000600052601160045260246000fd5b600061541082614a96565b915061541b83614a96565b9250828203905081811115615433576154326153d6565b5b92915050565b600061544482614a96565b915061544f83614a96565b925082820261545d81614a96565b91508282048414831517615474576154736153d6565b5b5092915050565b7f4e487b7100000000000000000000000000000000000000000000000000000000600052601260045260246000fd5b60006154b582614a96565b91506154c083614a96565b9250826154d0576154cf61547b565b5b828204905092915050565b60006154e682614a96565b91506154f183614a96565b9250828201905080821115615509576155086153d6565b5b92915050565b600080600060608486031215615528576155276149d1565b5b600061553686828701615394565b935050602061554786828701615394565b925050604061555886828701615394565b9150509250925092565b7f416363657373436f6e74726f6c3a2063616e206f6e6c792072656e6f756e636560008201527f20726f6c657320666f722073656c660000000000000000000000000000000000602082015250565b60006155be602f836151ee565b91506155c982615562565b604082019050919050565b600060208201905081810360008301526155ed816155b1565b9050919050565b7f46756e6374696f6e206d7573742062652063616c6c6564207468726f7567682060008201527f64656c656761746563616c6c0000000000000000000000000000000000000000602082015250565b6000615650602c836151ee565b915061565b826155f4565b604082019050919050565b6000602082019050818103600083015261567f81615643565b9050919050565b7f46756e6374696f6e206d7573742062652063616c6c6564207468726f7567682060008201527f6163746976652070726f78790000000000000000000000000000000000000000602082015250565b60006156e2602c836151ee565b91506156ed82615686565b604082019050919050565b60006020820190508181036000830152615711816156d5565b9050919050565b7f4e6f74206f776e6572206f662063617200000000000000000000000000000000600082015250565b600061574e6010836151ee565b915061575982615718565b602082019050919050565b6000602082019050818103600083015261577d81615741565b9050919050565b7f436172206973206e6f74207061726b6564000000000000000000000000000000600082015250565b60006157ba6011836151ee565b91506157c582615784565b602082019050919050565b600060208201905081810360008301526157e9816157ad565b9050919050565b60006040820190506158056000830185614cb4565b6158126020830184614cb4565b9392505050565b7f555550535570677261646561626c653a206d757374206e6f742062652063616c60008201527f6c6564207468726f7567682064656c656761746563616c6c0000000000000000602082015250565b60006158756038836151ee565b915061588082615819565b604082019050919050565b600060208201905081810360008301526158a481615868565b9050919050565b7f796f752063616e7420756e6c6f6164207468697320636f6d706f6e656e740000600082015250565b60006158e1601e836151ee565b91506158ec826158ab565b602082019050919050565b60006020820190508181036000830152615910816158d4565b9050919050565b615920816149db565b82525050565b600060608201905061593b6000830186615917565b6159486020830185615052565b6159556040830184614cb4565b949350505050565b6000819050919050565b600061598261597d6159788461595d565b61533e565b614a96565b9050919050565b61599281615967565b82525050565b60006060820190506159ad6000830186615052565b6159ba6020830185615989565b81810360408301526159cc8184614dc2565b9050949350505050565b60006159e96159e484614f46565b614f2b565b905082815260208101848484011115615a0557615a04614ec6565b5b615a10848285614d87565b509392505050565b600082601f830112615a2d57615a2c614ec1565b5b8151615a3d8482602086016159d6565b91505092915050565b600060208284031215615a5c57615a5b6149d1565b5b600082015167ffffffffffffffff811115615a7a57615a796149d6565b5b615a8684828501615a18565b91505092915050565b7f596f7520617265206e6f7420746865206f776e6572206f662074686520636172600082015250565b6000615ac56020836151ee565b9150615ad082615a8f565b602082019050919050565b60006020820190508181036000830152615af481615ab8565b9050919050565b7f43617220697320616c7265616479207061726b65640000000000000000000000600082015250565b6000615b316015836151ee565b9150615b3c82615afb565b602082019050919050565b60006020820190508181036000830152615b6081615b24565b9050919050565b7f5061726b20697320616c72656164792066756c6c000000000000000000000000600082015250565b6000615b9d6014836151ee565b9150615ba882615b67565b602082019050919050565b60006020820190508181036000830152615bcc81615b90565b9050919050565b7f546865726520617265206e6f206361727320696e207468697320737061636500600082015250565b6000615c09601f836151ee565b9150615c1482615bd3565b602082019050919050565b60006020820190508181036000830152615c3881615bfc565b9050919050565b7f4e6f74206f776e6572206f66207061726b000000000000000000000000000000600082015250565b6000615c756011836151ee565b9150615c8082615c3f565b602082019050919050565b60006020820190508181036000830152615ca481615c68565b9050919050565b7f596f752063616e206e6f742066696e6520796f757273656c6600000000000000600082015250565b6000615ce16019836151ee565b9150615cec82615cab565b602082019050919050565b60006020820190508181036000830152615d1081615cd4565b9050919050565b7f596f75206d757374207265706169722074686973207061727420666972737400600082015250565b6000615d4d601f836151ee565b9150615d5882615d17565b602082019050919050565b60006020820190508181036000830152615d7c81615d40565b9050919050565b7f54686520636172206973206e6f77207061726b656420696e207468652070617260008201527f6b696e6720737061636500000000000000000000000000000000000000000000602082015250565b6000615ddf602a836151ee565b9150615dea82615d83565b604082019050919050565b60006020820190508181036000830152615e0e81615dd2565b9050919050565b6000604082019050615e2a6000830185615052565b615e376020830184614cb4565b9392505050565b7f796f752068617665206c6f61642074686973207479706520636f6d706f6e656e60008201527f7400000000000000000000000000000000000000000000000000000000000000602082015250565b6000615e9a6021836151ee565b9150615ea582615e3e565b604082019050919050565b60006020820190508181036000830152615ec981615e8d565b9050919050565b6000615edb82614a96565b91507fffffffffffffffffffffffffffffffffffffffffffffffffffffffffffffffff8203615f0d57615f0c6153d6565b5b600182019050919050565b600081519050615f2781614ce8565b92915050565b600060208284031215615f4357615f426149d1565b5b6000615f5184828501615f18565b91505092915050565b7f45524331393637557067726164653a206e657720696d706c656d656e7461746960008201527f6f6e206973206e6f742055555053000000000000000000000000000000000000602082015250565b6000615fb6602e836151ee565b9150615fc182615f5a565b604082019050919050565b60006020820190508181036000830152615fe581615fa9565b9050919050565b7f45524331393637557067726164653a20756e737570706f727465642070726f7860008201527f6961626c65555549440000000000000000000000000000000000000000000000602082015250565b60006160486029836151ee565b915061605382615fec565b604082019050919050565b600060208201905081810360008301526160778161603b565b9050919050565b7f596f752063616e206e6f742066696e6520796f75206f776e6572206361720000600082015250565b60006160b4601e836151ee565b91506160bf8261607e565b602082019050919050565b600060208201905081810360008301526160e3816160a7565b9050919050565b600081905092915050565b7f416363657373436f6e74726f6c3a206163636f756e7420000000000000000000600082015250565b600061612b6017836160ea565b9150616136826160f5565b601782019050919050565b600081519050919050565b600061615782616141565b61616181856160ea565b9350616171818560208601614d87565b80840191505092915050565b7f206973206d697373696e6720726f6c6520000000000000000000000000000000600082015250565b60006161b36011836160ea565b91506161be8261617d565b601182019050919050565b60006161d48261611e565b91506161e0828561614c565b91506161eb826161a6565b91506161f7828461614c565b91508190509392505050565b600061620e82616141565b61621881856151ee565b9350616228818560208601614d87565b61623181614db1565b840191505092915050565b600060208201905081810360008301526162568184616203565b905092915050565b7f455243313936373a206e657720696d706c656d656e746174696f6e206973206e60008201527f6f74206120636f6e747261637400000000000000000000000000000000000000602082015250565b60006162ba602d836151ee565b91506162c58261625e565b604082019050919050565b600060208201905081810360008301526162e9816162ad565b9050919050565b7f4e487b7100000000000000000000000000000000000000000000000000000000600052603260045260246000fd5b600061632a82614a96565b91506000820361633d5761633c6153d6565b5b600182039050919050565b7f537472696e67733a20686578206c656e67746820696e73756666696369656e74600082015250565b600061637e6020836151ee565b915061638982616348565b602082019050919050565b600060208201905081810360008301526163ad81616371565b9050919050565b7f4e487b7100000000000000000000000000000000000000000000000000000000600052603160045260246000fd5b600081905092915050565b60006163f982614d6b565b61640381856163e3565b9350616413818560208601614d87565b80840191505092915050565b600061642b82846163ee565b915081905092915050565b7f416464726573733a2063616c6c20746f206e6f6e2d636f6e7472616374000000600082015250565b600061646c601d836151ee565b915061647782616436565b602082019050919050565b6000602082019050818103600083015261649b8161645f565b905091905056fe416464726573733a206c6f772d6c6576656c2064656c65676174652063616c6c206661696c6564a26469706673582212207749657cefae51b351af5a3c2f73048693315f90594f4f9739fb4c59b5ffad5d64736f6c63430008140033",
  "linkReferences": {},
  "deployedLinkReferences": {}
}