{
  "_format": "hh-sol-artifact-1",
  "contractName": "ERC7527Factory",
  "sourceName": "contracts/systems/ERC7527/ERC7527.sol",
  "abi": [
    {
      "inputs": [],
      "name": "CreateFail",
      "type": "error"
    },
    {
      "inputs": [
        {
          "components": [
            {
              "internalType": "address payable",
              "name": "implementation",
              "type": "address"
            },
            {
              "components": [
                {
                  "internalType": "address",
                  "name": "currency",
                  "type": "address"
                },
                {
                  "internalType": "uint256",
                  "name": "premium",
                  "type": "uint256"
                },
                {
                  "internalType": "address",
                  "name": "feeRecipient",
                  "type": "address"
                },
                {
                  "internalType": "uint16",
                  "name": "mintFeePercent",
                  "type": "uint16"
                },
                {
                  "internalType": "uint16",
                  "name": "burnFeePercent",
                  "type": "uint16"
                }
              ],
              "internalType": "struct Asset",
              "name": "asset",
              "type": "tuple"
            },
            {
              "internalType": "bytes",
              "name": "immutableData",
              "type": "bytes"
            },
            {
              "internalType": "bytes",
              "name": "initData",
              "type": "bytes"
            }
          ],
          "internalType": "struct AgencySettings",
          "name": "agencySettings",
          "type": "tuple"
        },
        {
          "components": [
            {
              "internalType": "address",
              "name": "implementation",
              "type": "address"
            },
            {
              "internalType": "bytes",
              "name": "immutableData",
              "type": "bytes"
            },
            {
              "internalType": "bytes",
              "name": "initData",
              "type": "bytes"
            }
          ],
          "internalType": "struct AppSettings",
          "name": "appSettings",
          "type": "tuple"
        },
        {
          "internalType": "bytes",
          "name": "",
          "type": "bytes"
        }
      ],
      "name": "deployWrap",
      "outputs": [
        {
          "internalType": "address",
          "name": "",
          "type": "address"
        },
        {
          "internalType": "address",
          "name": "",
          "type": "address"
        }
      ],
      "stateMutability": "nonpayable",
      "type": "function"
    }
  ],
  "bytecode": "0x608060405234801561001057600080fd5b50610ab6806100206000396000f3fe608060405234801561001057600080fd5b506004361061002b5760003560e01c80630f47899114610030575b600080fd5b61004a60048036038101906100459190610623565b610061565b604051610058929190610710565b60405180910390f35b60008060006100f38680602001906100799190610748565b8080601f016020809104026020016040519081016040528093929190818152602001838380828437600081840152601f19601f820116905080830192505050505050508760000160208101906100cf91906107d7565b73ffffffffffffffffffffffffffffffffffffffff1661039690919063ffffffff16565b905060006101c88289602001600001602081019061011191906107d7565b8a602001602001358b602001604001602081019061012f91906107d7565b8c6020016060016020810190610145919061083e565b8d602001608001602081019061015b919061083e565b8e8060c0019061016b9190610748565b604051602001610182989796959493929190610953565b6040516020818303038152906040528960000160208101906101a49190610a10565b73ffffffffffffffffffffffffffffffffffffffff1661039690919063ffffffff16565b90508173ffffffffffffffffffffffffffffffffffffffff166339b3d243826040518263ffffffff1660e01b81526004016102039190610a4c565b600060405180830381600087803b15801561021d57600080fd5b505af1158015610231573d6000803e3d6000fd5b505050506000888060e001906102479190610748565b9050146102dd576000808273ffffffffffffffffffffffffffffffffffffffff168a8060e001906102789190610748565b604051610286929190610a67565b6000604051808303816000865af19150503d80600081146102c3576040519150601f19603f3d011682016040523d82523d6000602084013e6102c8565b606091505b5091509150816102da57805160208201fd5b50505b60008780604001906102ef9190610748565b905014610385576000808373ffffffffffffffffffffffffffffffffffffffff168980604001906103209190610748565b60405161032e929190610a67565b6000604051808303816000865af19150503d806000811461036b576040519150601f19603f3d011682016040523d82523d6000602084013e610370565b606091505b50915091508161038257805160208201fd5b50505b818193509350505094509492505050565b6000806002835101905060008160410190506000600a8203905060008060405190507f610000000000000000000000000000000000000000000000000000000000000081528260f01b60018201527f3d81600a3d39f33d3d3d3d363d3d37610000000000000000000000000000000060038201528460f01b60138201527f603736393661000000000000000000000000000000000000000000000000000060158201528460f01b601b8201527f013d730000000000000000000000000000000000000000000000000000000000601d8201528760601b60208201527f5af43d3d93803e603557fd5bf3000000000000000000000000000000000000006034820152600285039450600085905060006041830190506020890193505b602082106104d457835181526020810190506020840193506020820391506104b1565b60006001836020036101000a0319905080855116825282820191508760f01b825286846000f09850600073ffffffffffffffffffffffffffffffffffffffff168973ffffffffffffffffffffffffffffffffffffffff1603610562576040517febfef18800000000000000000000000000000000000000000000000000000000815260040160405180910390fd5b505050505050505092915050565b600080fd5b600080fd5b600080fd5b600061010082840312156105965761059561057a565b5b81905092915050565b6000606082840312156105b5576105b461057a565b5b81905092915050565b600080fd5b600080fd5b600080fd5b60008083601f8401126105e3576105e26105be565b5b8235905067ffffffffffffffff811115610600576105ff6105c3565b5b60208301915083600182028301111561061c5761061b6105c8565b5b9250929050565b6000806000806060858703121561063d5761063c610570565b5b600085013567ffffffffffffffff81111561065b5761065a610575565b5b6106678782880161057f565b945050602085013567ffffffffffffffff81111561068857610687610575565b5b6106948782880161059f565b935050604085013567ffffffffffffffff8111156106b5576106b4610575565b5b6106c1878288016105cd565b925092505092959194509250565b600073ffffffffffffffffffffffffffffffffffffffff82169050919050565b60006106fa826106cf565b9050919050565b61070a816106ef565b82525050565b60006040820190506107256000830185610701565b6107326020830184610701565b9392505050565b600080fd5b600080fd5b600080fd5b6000808335600160200384360303811261076557610764610739565b5b80840192508235915067ffffffffffffffff8211156107875761078661073e565b5b6020830192506001820236038313156107a3576107a2610743565b5b509250929050565b6107b4816106ef565b81146107bf57600080fd5b50565b6000813590506107d1816107ab565b92915050565b6000602082840312156107ed576107ec610570565b5b60006107fb848285016107c2565b91505092915050565b600061ffff82169050919050565b61081b81610804565b811461082657600080fd5b50565b60008135905061083881610812565b92915050565b60006020828403121561085457610853610570565b5b600061086284828501610829565b91505092915050565b60008160601b9050919050565b60006108838261086b565b9050919050565b600061089582610878565b9050919050565b6108ad6108a8826106ef565b61088a565b82525050565b6000819050919050565b6000819050919050565b6108d86108d3826108b3565b6108bd565b82525050565b60008160f01b9050919050565b60006108f6826108de565b9050919050565b61090e61090982610804565b6108eb565b82525050565b600081905092915050565b82818337600083830152505050565b600061093a8385610914565b935061094783858461091f565b82840190509392505050565b600061095f828b61089c565b60148201915061096f828a61089c565b60148201915061097f82896108c7565b60208201915061098f828861089c565b60148201915061099f82876108fd565b6002820191506109af82866108fd565b6002820191506109c082848661092e565b91508190509998505050505050505050565b60006109dd826106cf565b9050919050565b6109ed816109d2565b81146109f857600080fd5b50565b600081359050610a0a816109e4565b92915050565b600060208284031215610a2657610a25610570565b5b6000610a34848285016109fb565b91505092915050565b610a46816109d2565b82525050565b6000602082019050610a616000830184610a3d565b92915050565b6000610a7482848661092e565b9150819050939250505056fea2646970667358221220c71c48c06534b83a0a9420eb01a5ec0d6da5848be31d480420d427eb3e38e51564736f6c63430008140033",
  "linkReferences": {},
  "deployedLinkReferences": {}
}