{
  "_format": "hh-sol-artifact-1",
  "contractName": "ERC7527Agency",
  "sourceName": "contracts/systems/ERC7527/ERC7527.sol",
  "abi": [
    {
      "anonymous": false,
      "inputs": [
        {
          "indexed": true,
          "internalType": "address",
          "name": "to",
          "type": "address"
        },
        {
          "indexed": true,
          "internalType": "uint256",
          "name": "tokenId",
          "type": "uint256"
        },
        {
          "indexed": false,
          "internalType": "uint256",
          "name": "price",
          "type": "uint256"
        },
        {
          "indexed": false,
          "internalType": "uint256",
          "name": "fee",
          "type": "uint256"
        }
      ],
      "name": "Unwrap",
      "type": "event"
    },
    {
      "anonymous": false,
      "inputs": [
        {
          "indexed": true,
          "internalType": "address",
          "name": "to",
          "type": "address"
        },
        {
          "indexed": true,
          "internalType": "uint256",
          "name": "tokenId",
          "type": "uint256"
        },
        {
          "indexed": false,
          "internalType": "uint256",
          "name": "price",
          "type": "uint256"
        },
        {
          "indexed": false,
          "internalType": "uint256",
          "name": "fee",
          "type": "uint256"
        }
      ],
      "name": "Wrap",
      "type": "event"
    },
    {
      "inputs": [],
      "name": "getStrategy",
      "outputs": [
        {
          "internalType": "address",
          "name": "app",
          "type": "address"
        },
        {
          "components": [
            {
              "internalType": "address",
              "name": "currency",
              "type": "address"
            },
            {
              "internalType": "uint256",
              "name": "premium",
              "type": "uint256"
            },
            {
              "internalType": "address",
              "name": "feeRecipient",
              "type": "address"
            },
            {
              "internalType": "uint16",
              "name": "mintFeePercent",
              "type": "uint16"
            },
            {
              "internalType": "uint16",
              "name": "burnFeePercent",
              "type": "uint16"
            }
          ],
          "internalType": "struct Asset",
          "name": "asset",
          "type": "tuple"
        },
        {
          "internalType": "bytes",
          "name": "attributeData",
          "type": "bytes"
        }
      ],
      "stateMutability": "pure",
      "type": "function"
    },
    {
      "inputs": [
        {
          "internalType": "bytes",
          "name": "data",
          "type": "bytes"
        }
      ],
      "name": "getUnwrapOracle",
      "outputs": [
        {
          "internalType": "uint256",
          "name": "swap",
          "type": "uint256"
        },
        {
          "internalType": "uint256",
          "name": "fee",
          "type": "uint256"
        }
      ],
      "stateMutability": "pure",
      "type": "function"
    },
    {
      "inputs": [
        {
          "internalType": "bytes",
          "name": "data",
          "type": "bytes"
        }
      ],
      "name": "getWrapOracle",
      "outputs": [
        {
          "internalType": "uint256",
          "name": "swap",
          "type": "uint256"
        },
        {
          "internalType": "uint256",
          "name": "fee",
          "type": "uint256"
        }
      ],
      "stateMutability": "pure",
      "type": "function"
    },
    {
      "inputs": [
        {
          "internalType": "address",
          "name": "to",
          "type": "address"
        },
        {
          "internalType": "uint256",
          "name": "tokenId",
          "type": "uint256"
        },
        {
          "internalType": "bytes",
          "name": "data",
          "type": "bytes"
        }
      ],
      "name": "unwrap",
      "outputs": [],
      "stateMutability": "payable",
      "type": "function"
    },
    {
      "inputs": [
        {
          "internalType": "address",
          "name": "to",
          "type": "address"
        },
        {
          "internalType": "bytes",
          "name": "data",
          "type": "bytes"
        }
      ],
      "name": "wrap",
      "outputs": [
        {
          "internalType": "uint256",
          "name": "",
          "type": "uint256"
        }
      ],
      "stateMutability": "payable",
      "type": "function"
    },
    {
      "stateMutability": "payable",
      "type": "receive"
    }
  ],
  "bytecode": "0x608060405234801561001057600080fd5b5061155b806100206000396000f3fe60806040526004361061004e5760003560e01c806307da06031461005a5780633c6e2f221461008757806346992736146100a35780638ba6cd03146100e15780638e1f14471461011157610055565b3661005557005b600080fd5b34801561006657600080fd5b5061006f61014f565b60405161007e93929190610cad565b60405180910390f35b6100a1600480360381019061009c9190610dbc565b610221565b005b3480156100af57600080fd5b506100ca60048036038101906100c59190610f60565b6104a1565b6040516100d8929190610fb8565b60405180910390f35b6100fb60048036038101906100f69190610fe1565b610521565b6040516101089190611041565b60405180910390f35b34801561011d57600080fd5b5061013860048036038101906101339190610f60565b610849565b604051610146929190610fb8565b60405180910390f35b6000610159610acc565b606060006101656108c9565b905060008060008060008086013560601c9850601486013560601c945060288601359350604886013560601c9250605c86013560f01c9150605e86013560f01c90506040518060a001604052808673ffffffffffffffffffffffffffffffffffffffff1681526020018581526020018473ffffffffffffffffffffffffffffffffffffffff1681526020018361ffff1681526020018261ffff168152509750604051806020016040528060008152509650505050505050909192565b60008061022c61014f565b509150915061023c8232876108dc565b61027b576040517f08c379a0000000000000000000000000000000000000000000000000000000008152600401610272906110b9565b60405180910390fd5b6000848481019061028c91906110d9565b90508273ffffffffffffffffffffffffffffffffffffffff1663fe9d93038787876040518463ffffffff1660e01b81526004016102cb93929190611133565b600060405180830381600087803b1580156102e557600080fd5b505af11580156102f9573d6000803e3d6000fd5b5050505060008373ffffffffffffffffffffffffffffffffffffffff166318160ddd6040518163ffffffff1660e01b8152600401602060405180830381865afa15801561034a573d6000803e3d6000fd5b505050506040513d601f19601f8201168201806040525081019061036e919061117a565b905060008061039b836040516020016103879190611041565b604051602081830303815290604052610849565b91509150846000015173ffffffffffffffffffffffffffffffffffffffff1663a9059cbb8b83606488876103cf91906111d6565b6103d99190611247565b6103e39190611278565b6040518363ffffffff1660e01b81526004016104009291906112ac565b6020604051808303816000875af115801561041f573d6000803e3d6000fd5b505050506040513d601f19601f82011682018060405250810190610443919061130d565b50888a73ffffffffffffffffffffffffffffffffffffffff167f6f3909b7a53c87de0fbb65758a177c9d1137e29b1555684084e2e4161b064b2b848460405161048d929190610fb8565b60405180910390a350505050505050505050565b6000806000838060200190518101906104ba919061117a565b905060006104c661014f565b5091505060648160200151836104dc91906111d6565b6104e69190611247565b81602001516104f5919061133a565b9350612710816060015161ffff168561050e91906111d6565b6105189190611247565b92505050915091565b600080600061052e61014f565b509150915060008273ffffffffffffffffffffffffffffffffffffffff166318160ddd6040518163ffffffff1660e01b8152600401602060405180830381865afa158015610580573d6000803e3d6000fd5b505050506040513d601f19601f820116820180604052508101906105a4919061117a565b90506000806105d1836040516020016105bd9190611041565b6040516020818303038152906040526104a1565b9150915060008089898101906105e791906113a7565b91509150856000015173ffffffffffffffffffffffffffffffffffffffff166323b872dd8c308460ff16878961061d919061133a565b61062791906111d6565b6040518463ffffffff1660e01b8152600401610645939291906113e7565b6020604051808303816000875af1158015610664573d6000803e3d6000fd5b505050506040513d601f19601f82011682018060405250810190610688919061130d565b5060008773ffffffffffffffffffffffffffffffffffffffff1663b510391f8d856040516020016106b99190611041565b6040516020818303038152906040526040518363ffffffff1660e01b81526004016106e592919061141e565b6020604051808303816000875af1158015610704573d6000803e3d6000fd5b505050506040513d601f19601f82011682018060405250810190610728919061117a565b90508773ffffffffffffffffffffffffffffffffffffffff166318160ddd6040518163ffffffff1660e01b8152600401602060405180830381865afa158015610775573d6000803e3d6000fd5b505050506040513d601f19601f82011682018060405250810190610799919061117a565b6001876107a6919061133a565b146107e6576040517f08c379a00000000000000000000000000000000000000000000000000000000081526004016107dd9061149a565b60405180910390fd5b808c73ffffffffffffffffffffffffffffffffffffffff167f53c6313aa0cdb420b390a846db25405b96983737e602bba548f9ade0e4feaec9878760405161082f929190610fb8565b60405180910390a380985050505050505050509392505050565b600080600083806020019051810190610862919061117a565b9050600061086e61014f565b50915050606481602001518361088491906111d6565b61088e9190611247565b816020015161089d919061133a565b9350612710816080015161ffff16856108b691906111d6565b6108c09190611247565b92505050915091565b600060028036033560f01c013603905090565b60008084905060008173ffffffffffffffffffffffffffffffffffffffff16636352211e856040518263ffffffff1660e01b815260040161091d9190611041565b602060405180830381865afa15801561093a573d6000803e3d6000fd5b505050506040513d601f19601f8201168201806040525081019061095e91906114cf565b90508073ffffffffffffffffffffffffffffffffffffffff168573ffffffffffffffffffffffffffffffffffffffff161480610a1257508173ffffffffffffffffffffffffffffffffffffffff1663e985e9c582876040518363ffffffff1660e01b81526004016109d09291906114fc565b602060405180830381865afa1580156109ed573d6000803e3d6000fd5b505050506040513d601f19601f82011682018060405250810190610a11919061130d565b5b80610ac157508473ffffffffffffffffffffffffffffffffffffffff168273ffffffffffffffffffffffffffffffffffffffff1663081812fc866040518263ffffffff1660e01b8152600401610a689190611041565b602060405180830381865afa158015610a85573d6000803e3d6000fd5b505050506040513d601f19601f82011682018060405250810190610aa991906114cf565b73ffffffffffffffffffffffffffffffffffffffff16145b925050509392505050565b6040518060a00160405280600073ffffffffffffffffffffffffffffffffffffffff16815260200160008152602001600073ffffffffffffffffffffffffffffffffffffffff168152602001600061ffff168152602001600061ffff1681525090565b600073ffffffffffffffffffffffffffffffffffffffff82169050919050565b6000610b5a82610b2f565b9050919050565b610b6a81610b4f565b82525050565b610b7981610b4f565b82525050565b6000819050919050565b610b9281610b7f565b82525050565b600061ffff82169050919050565b610baf81610b98565b82525050565b60a082016000820151610bcb6000850182610b70565b506020820151610bde6020850182610b89565b506040820151610bf16040850182610b70565b506060820151610c046060850182610ba6565b506080820151610c176080850182610ba6565b50505050565b600081519050919050565b600082825260208201905092915050565b60005b83811015610c57578082015181840152602081019050610c3c565b60008484015250505050565b6000601f19601f8301169050919050565b6000610c7f82610c1d565b610c898185610c28565b9350610c99818560208601610c39565b610ca281610c63565b840191505092915050565b600060e082019050610cc26000830186610b61565b610ccf6020830185610bb5565b81810360c0830152610ce18184610c74565b9050949350505050565b6000604051905090565b600080fd5b600080fd5b610d0881610b4f565b8114610d1357600080fd5b50565b600081359050610d2581610cff565b92915050565b610d3481610b7f565b8114610d3f57600080fd5b50565b600081359050610d5181610d2b565b92915050565b600080fd5b600080fd5b600080fd5b60008083601f840112610d7c57610d7b610d57565b5b8235905067ffffffffffffffff811115610d9957610d98610d5c565b5b602083019150836001820283011115610db557610db4610d61565b5b9250929050565b60008060008060608587031215610dd657610dd5610cf5565b5b6000610de487828801610d16565b9450506020610df587828801610d42565b935050604085013567ffffffffffffffff811115610e1657610e15610cfa565b5b610e2287828801610d66565b925092505092959194509250565b600080fd5b7f4e487b7100000000000000000000000000000000000000000000000000000000600052604160045260246000fd5b610e6d82610c63565b810181811067ffffffffffffffff82111715610e8c57610e8b610e35565b5b80604052505050565b6000610e9f610ceb565b9050610eab8282610e64565b919050565b600067ffffffffffffffff821115610ecb57610eca610e35565b5b610ed482610c63565b9050602081019050919050565b82818337600083830152505050565b6000610f03610efe84610eb0565b610e95565b905082815260208101848484011115610f1f57610f1e610e30565b5b610f2a848285610ee1565b509392505050565b600082601f830112610f4757610f46610d57565b5b8135610f57848260208601610ef0565b91505092915050565b600060208284031215610f7657610f75610cf5565b5b600082013567ffffffffffffffff811115610f9457610f93610cfa565b5b610fa084828501610f32565b91505092915050565b610fb281610b7f565b82525050565b6000604082019050610fcd6000830185610fa9565b610fda6020830184610fa9565b9392505050565b600080600060408486031215610ffa57610ff9610cf5565b5b600061100886828701610d16565b935050602084013567ffffffffffffffff81111561102957611028610cfa565b5b61103586828701610d66565b92509250509250925092565b60006020820190506110566000830184610fa9565b92915050565b600082825260208201905092915050565b7f4c6e4d6f64756c653a206e6f74206f776e657200000000000000000000000000600082015250565b60006110a360138361105c565b91506110ae8261106d565b602082019050919050565b600060208201905081810360008301526110d281611096565b9050919050565b6000602082840312156110ef576110ee610cf5565b5b60006110fd84828501610d42565b91505092915050565b60006111128385610c28565b935061111f838584610ee1565b61112883610c63565b840190509392505050565b60006040820190506111486000830186610fa9565b818103602083015261115b818486611106565b9050949350505050565b60008151905061117481610d2b565b92915050565b6000602082840312156111905761118f610cf5565b5b600061119e84828501611165565b91505092915050565b7f4e487b7100000000000000000000000000000000000000000000000000000000600052601160045260246000fd5b60006111e182610b7f565b91506111ec83610b7f565b92508282026111fa81610b7f565b91508282048414831517611211576112106111a7565b5b5092915050565b7f4e487b7100000000000000000000000000000000000000000000000000000000600052601260045260246000fd5b600061125282610b7f565b915061125d83610b7f565b92508261126d5761126c611218565b5b828204905092915050565b600061128382610b7f565b915061128e83610b7f565b92508282039050818111156112a6576112a56111a7565b5b92915050565b60006040820190506112c16000830185610b61565b6112ce6020830184610fa9565b9392505050565b60008115159050919050565b6112ea816112d5565b81146112f557600080fd5b50565b600081519050611307816112e1565b92915050565b60006020828403121561132357611322610cf5565b5b6000611331848285016112f8565b91505092915050565b600061134582610b7f565b915061135083610b7f565b9250828201905080821115611368576113676111a7565b5b92915050565b600060ff82169050919050565b6113848161136e565b811461138f57600080fd5b50565b6000813590506113a18161137b565b92915050565b600080604083850312156113be576113bd610cf5565b5b60006113cc85828601610d42565b92505060206113dd85828601611392565b9150509250929050565b60006060820190506113fc6000830186610b61565b6114096020830185610b61565b6114166040830184610fa9565b949350505050565b60006040820190506114336000830185610b61565b81810360208301526114458184610c74565b90509392505050565b7f455243373532374167656e63793a205265656e7472616e637900000000000000600082015250565b600061148460198361105c565b915061148f8261144e565b602082019050919050565b600060208201905081810360008301526114b381611477565b9050919050565b6000815190506114c981610cff565b92915050565b6000602082840312156114e5576114e4610cf5565b5b60006114f3848285016114ba565b91505092915050565b60006040820190506115116000830185610b61565b61151e6020830184610b61565b939250505056fea2646970667358221220bd48fbe275161f165d9087a4967cc19433389960fd8fd3be8ac58bec656c075864736f6c63430008140033",
  "linkReferences": {},
  "deployedLinkReferences": {}
}