{
  "_format": "hh-sol-artifact-1",
  "contractName": "ERC7527App",
  "sourceName": "contracts/systems/ERC7527/ERC7527.sol",
  "abi": [
    {
      "inputs": [],
      "stateMutability": "nonpayable",
      "type": "constructor"
    },
    {
      "anonymous": false,
      "inputs": [
        {
          "indexed": true,
          "internalType": "address",
          "name": "owner",
          "type": "address"
        },
        {
          "indexed": true,
          "internalType": "address",
          "name": "approved",
          "type": "address"
        },
        {
          "indexed": true,
          "internalType": "uint256",
          "name": "tokenId",
          "type": "uint256"
        }
      ],
      "name": "Approval",
      "type": "event"
    },
    {
      "anonymous": false,
      "inputs": [
        {
          "indexed": true,
          "internalType": "address",
          "name": "owner",
          "type": "address"
        },
        {
          "indexed": true,
          "internalType": "address",
          "name": "operator",
          "type": "address"
        },
        {
          "indexed": false,
          "internalType": "bool",
          "name": "approved",
          "type": "bool"
        }
      ],
      "name": "ApprovalForAll",
      "type": "event"
    },
    {
      "anonymous": false,
      "inputs": [
        {
          "indexed": true,
          "internalType": "address",
          "name": "from",
          "type": "address"
        },
        {
          "indexed": true,
          "internalType": "address",
          "name": "to",
          "type": "address"
        },
        {
          "indexed": true,
          "internalType": "uint256",
          "name": "tokenId",
          "type": "uint256"
        }
      ],
      "name": "Transfer",
      "type": "event"
    },
    {
      "inputs": [
        {
          "internalType": "address",
          "name": "to",
          "type": "address"
        },
        {
          "internalType": "uint256",
          "name": "tokenId",
          "type": "uint256"
        }
      ],
      "name": "approve",
      "outputs": [],
      "stateMutability": "nonpayable",
      "type": "function"
    },
    {
      "inputs": [
        {
          "internalType": "address",
          "name": "owner",
          "type": "address"
        }
      ],
      "name": "balanceOf",
      "outputs": [
        {
          "internalType": "uint256",
          "name": "",
          "type": "uint256"
        }
      ],
      "stateMutability": "view",
      "type": "function"
    },
    {
      "inputs": [
        {
          "internalType": "uint256",
          "name": "tokenId",
          "type": "uint256"
        },
        {
          "internalType": "bytes",
          "name": "",
          "type": "bytes"
        }
      ],
      "name": "burn",
      "outputs": [],
      "stateMutability": "nonpayable",
      "type": "function"
    },
    {
      "inputs": [],
      "name": "getAgency",
      "outputs": [
        {
          "internalType": "address payable",
          "name": "",
          "type": "address"
        }
      ],
      "stateMutability": "view",
      "type": "function"
    },
    {
      "inputs": [
        {
          "internalType": "uint256",
          "name": "tokenId",
          "type": "uint256"
        }
      ],
      "name": "getApproved",
      "outputs": [
        {
          "internalType": "address",
          "name": "",
          "type": "address"
        }
      ],
      "stateMutability": "view",
      "type": "function"
    },
    {
      "inputs": [],
      "name": "getMaxSupply",
      "outputs": [
        {
          "internalType": "uint256",
          "name": "",
          "type": "uint256"
        }
      ],
      "stateMutability": "pure",
      "type": "function"
    },
    {
      "inputs": [
        {
          "internalType": "uint256",
          "name": "",
          "type": "uint256"
        }
      ],
      "name": "getName",
      "outputs": [
        {
          "internalType": "string",
          "name": "",
          "type": "string"
        }
      ],
      "stateMutability": "pure",
      "type": "function"
    },
    {
      "inputs": [
        {
          "internalType": "address",
          "name": "owner",
          "type": "address"
        },
        {
          "internalType": "address",
          "name": "operator",
          "type": "address"
        }
      ],
      "name": "isApprovedForAll",
      "outputs": [
        {
          "internalType": "bool",
          "name": "",
          "type": "bool"
        }
      ],
      "stateMutability": "view",
      "type": "function"
    },
    {
      "inputs": [
        {
          "internalType": "address",
          "name": "to",
          "type": "address"
        },
        {
          "internalType": "bytes",
          "name": "data",
          "type": "bytes"
        }
      ],
      "name": "mint",
      "outputs": [
        {
          "internalType": "uint256",
          "name": "",
          "type": "uint256"
        }
      ],
      "stateMutability": "nonpayable",
      "type": "function"
    },
    {
      "inputs": [],
      "name": "name",
      "outputs": [
        {
          "internalType": "string",
          "name": "",
          "type": "string"
        }
      ],
      "stateMutability": "view",
      "type": "function"
    },
    {
      "inputs": [
        {
          "internalType": "uint256",
          "name": "tokenId",
          "type": "uint256"
        }
      ],
      "name": "ownerOf",
      "outputs": [
        {
          "internalType": "address",
          "name": "",
          "type": "address"
        }
      ],
      "stateMutability": "view",
      "type": "function"
    },
    {
      "inputs": [
        {
          "internalType": "address",
          "name": "from",
          "type": "address"
        },
        {
          "internalType": "address",
          "name": "to",
          "type": "address"
        },
        {
          "internalType": "uint256",
          "name": "tokenId",
          "type": "uint256"
        }
      ],
      "name": "safeTransferFrom",
      "outputs": [],
      "stateMutability": "nonpayable",
      "type": "function"
    },
    {
      "inputs": [
        {
          "internalType": "address",
          "name": "from",
          "type": "address"
        },
        {
          "internalType": "address",
          "name": "to",
          "type": "address"
        },
        {
          "internalType": "uint256",
          "name": "tokenId",
          "type": "uint256"
        },
        {
          "internalType": "bytes",
          "name": "data",
          "type": "bytes"
        }
      ],
      "name": "safeTransferFrom",
      "outputs": [],
      "stateMutability": "nonpayable",
      "type": "function"
    },
    {
      "inputs": [
        {
          "internalType": "address payable",
          "name": "oracle",
          "type": "address"
        }
      ],
      "name": "setAgency",
      "outputs": [],
      "stateMutability": "nonpayable",
      "type": "function"
    },
    {
      "inputs": [
        {
          "internalType": "address",
          "name": "operator",
          "type": "address"
        },
        {
          "internalType": "bool",
          "name": "approved",
          "type": "bool"
        }
      ],
      "name": "setApprovalForAll",
      "outputs": [],
      "stateMutability": "nonpayable",
      "type": "function"
    },
    {
      "inputs": [
        {
          "internalType": "address",
          "name": "_lotloot",
          "type": "address"
        }
      ],
      "name": "setLotLootAddress",
      "outputs": [],
      "stateMutability": "nonpayable",
      "type": "function"
    },
    {
      "inputs": [
        {
          "internalType": "bytes4",
          "name": "interfaceId",
          "type": "bytes4"
        }
      ],
      "name": "supportsInterface",
      "outputs": [
        {
          "internalType": "bool",
          "name": "",
          "type": "bool"
        }
      ],
      "stateMutability": "view",
      "type": "function"
    },
    {
      "inputs": [],
      "name": "symbol",
      "outputs": [
        {
          "internalType": "string",
          "name": "",
          "type": "string"
        }
      ],
      "stateMutability": "view",
      "type": "function"
    },
    {
      "inputs": [
        {
          "internalType": "uint256",
          "name": "index",
          "type": "uint256"
        }
      ],
      "name": "tokenByIndex",
      "outputs": [
        {
          "internalType": "uint256",
          "name": "",
          "type": "uint256"
        }
      ],
      "stateMutability": "view",
      "type": "function"
    },
    {
      "inputs": [
        {
          "internalType": "address",
          "name": "owner",
          "type": "address"
        },
        {
          "internalType": "uint256",
          "name": "index",
          "type": "uint256"
        }
      ],
      "name": "tokenOfOwnerByIndex",
      "outputs": [
        {
          "internalType": "uint256",
          "name": "",
          "type": "uint256"
        }
      ],
      "stateMutability": "view",
      "type": "function"
    },
    {
      "inputs": [
        {
          "internalType": "uint256",
          "name": "tokenId",
          "type": "uint256"
        }
      ],
      "name": "tokenURI",
      "outputs": [
        {
          "internalType": "string",
          "name": "",
          "type": "string"
        }
      ],
      "stateMutability": "view",
      "type": "function"
    },
    {
      "inputs": [],
      "name": "totalSupply",
      "outputs": [
        {
          "internalType": "uint256",
          "name": "",
          "type": "uint256"
        }
      ],
      "stateMutability": "view",
      "type": "function"
    },
    {
      "inputs": [
        {
          "internalType": "address",
          "name": "from",
          "type": "address"
        },
        {
          "internalType": "address",
          "name": "to",
          "type": "address"
        },
        {
          "internalType": "uint256",
          "name": "tokenId",
          "type": "uint256"
        }
      ],
      "name": "transferFrom",
      "outputs": [],
      "stateMutability": "nonpayable",
      "type": "function"
    }
  ],
  "bytecode": "0x60806040523480156200001157600080fd5b506040518060400160405280600c81526020017f636172436f6d706f6e656e7400000000000000000000000000000000000000008152506040518060400160405280600381526020017f434354000000000000000000000000000000000000000000000000000000000081525081600090816200008f919062000324565b508060019081620000a1919062000324565b5050506200040b565b600081519050919050565b7f4e487b7100000000000000000000000000000000000000000000000000000000600052604160045260246000fd5b7f4e487b7100000000000000000000000000000000000000000000000000000000600052602260045260246000fd5b600060028204905060018216806200012c57607f821691505b602082108103620001425762000141620000e4565b5b50919050565b60008190508160005260206000209050919050565b60006020601f8301049050919050565b600082821b905092915050565b600060088302620001ac7fffffffffffffffffffffffffffffffffffffffffffffffffffffffffffffffff826200016d565b620001b886836200016d565b95508019841693508086168417925050509392505050565b6000819050919050565b6000819050919050565b600062000205620001ff620001f984620001d0565b620001da565b620001d0565b9050919050565b6000819050919050565b6200022183620001e4565b6200023962000230826200020c565b8484546200017a565b825550505050565b600090565b6200025062000241565b6200025d81848462000216565b505050565b5b8181101562000285576200027960008262000246565b60018101905062000263565b5050565b601f821115620002d4576200029e8162000148565b620002a9846200015d565b81016020851015620002b9578190505b620002d1620002c8856200015d565b83018262000262565b50505b505050565b600082821c905092915050565b6000620002f960001984600802620002d9565b1980831691505092915050565b6000620003148383620002e6565b9150826002028217905092915050565b6200032f82620000aa565b67ffffffffffffffff8111156200034b576200034a620000b5565b5b62000357825462000113565b6200036482828562000289565b600060209050601f8311600181146200039c576000841562000387578287015190505b62000393858262000306565b86555062000403565b601f198416620003ac8662000148565b60005b82811015620003d657848901518255600182019150602085019450602081019050620003af565b86831015620003f65784890151620003f2601f891682620002e6565b8355505b6001600288020188555050505b505050505050565b613700806200041b6000396000f3fe608060405234801561001057600080fd5b506004361061014d5760003560e01c80636352211e116100c3578063b510391f1161007c578063b510391f146103c4578063b88d4fde146103f4578063c87b56dd14610410578063dbd2e2e214610440578063e985e9c51461045c578063fe9d93031461048c5761014d565b80636352211e146102dc5780636b8ff5741461030c57806370a082311461033c57806395d89b411461036c578063a22cb4651461038a578063b4f35b9a146103a65761014d565b806323b872dd1161011557806323b872dd1461020a5780632f745c591461022657806339b3d2431461025657806342842e0e146102725780634c0f38c21461028e5780634f6ccce7146102ac5761014d565b806301ffc9a71461015257806306fdde0314610182578063081812fc146101a0578063095ea7b3146101d057806318160ddd146101ec575b600080fd5b61016c600480360381019061016791906123fa565b6104a8565b6040516101799190612442565b60405180910390f35b61018a610522565b60405161019791906124ed565b60405180910390f35b6101ba60048036038101906101b59190612545565b6105b4565b6040516101c791906125b3565b60405180910390f35b6101ea60048036038101906101e591906125fa565b6105fa565b005b6101f4610711565b6040516102019190612649565b60405180910390f35b610224600480360381019061021f9190612664565b61071e565b005b610240600480360381019061023b91906125fa565b61077e565b60405161024d9190612649565b60405180910390f35b610270600480360381019061026b91906126f5565b610823565b005b61028c60048036038101906102879190612664565b6108dd565b005b6102966108fd565b6040516102a39190612649565b60405180910390f35b6102c660048036038101906102c19190612545565b610906565b6040516102d39190612649565b60405180910390f35b6102f660048036038101906102f19190612545565b610977565b60405161030391906125b3565b60405180910390f35b61032660048036038101906103219190612545565b6109fd565b60405161033391906124ed565b60405180910390f35b61035660048036038101906103519190612722565b610a3c565b6040516103639190612649565b60405180910390f35b610374610af3565b60405161038191906124ed565b60405180910390f35b6103a4600480360381019061039f919061277b565b610b85565b005b6103ae610b9b565b6040516103bb91906127ca565b60405180910390f35b6103de60048036038101906103d9919061284a565b610baa565b6040516103eb9190612649565b60405180910390f35b61040e600480360381019061040991906129da565b610cc5565b005b61042a60048036038101906104259190612545565b610d27565b60405161043791906124ed565b60405180910390f35b61045a60048036038101906104559190612722565b610d8f565b005b61047660048036038101906104719190612a5d565b610e64565b6040516104839190612442565b60405180910390f35b6104a660048036038101906104a19190612a9d565b610ef8565b005b60007f780e9d63000000000000000000000000000000000000000000000000000000007bffffffffffffffffffffffffffffffffffffffffffffffffffffffff1916827bffffffffffffffffffffffffffffffffffffffffffffffffffffffff1916148061051b575061051a82610f7b565b5b9050919050565b60606000805461053190612b2c565b80601f016020809104026020016040519081016040528092919081815260200182805461055d90612b2c565b80156105aa5780601f1061057f576101008083540402835291602001916105aa565b820191906000526020600020905b81548152906001019060200180831161058d57829003601f168201915b5050505050905090565b60006105bf8261105d565b6004600083815260200190815260200160002060009054906101000a900473ffffffffffffffffffffffffffffffffffffffff169050919050565b600061060582610977565b90508073ffffffffffffffffffffffffffffffffffffffff168373ffffffffffffffffffffffffffffffffffffffff1603610675576040517f08c379a000000000000000000000000000000000000000000000000000000000815260040161066c90612bcf565b60405180910390fd5b8073ffffffffffffffffffffffffffffffffffffffff166106946110a8565b73ffffffffffffffffffffffffffffffffffffffff1614806106c357506106c2816106bd6110a8565b610e64565b5b610702576040517f08c379a00000000000000000000000000000000000000000000000000000000081526004016106f990612c61565b60405180910390fd5b61070c83836110b0565b505050565b6000600880549050905090565b61072f6107296110a8565b82611169565b61076e576040517f08c379a000000000000000000000000000000000000000000000000000000000815260040161076590612cf3565b60405180910390fd5b6107798383836111fe565b505050565b600061078983610a3c565b82106107ca576040517f08c379a00000000000000000000000000000000000000000000000000000000081526004016107c190612d85565b60405180910390fd5b600660008473ffffffffffffffffffffffffffffffffffffffff1673ffffffffffffffffffffffffffffffffffffffff168152602001908152602001600020600083815260200190815260200160002054905092915050565b600073ffffffffffffffffffffffffffffffffffffffff166108436114f7565b73ffffffffffffffffffffffffffffffffffffffff1614610899576040517f08c379a000000000000000000000000000000000000000000000000000000000815260040161089090612df1565b60405180910390fd5b80600b60006101000a81548173ffffffffffffffffffffffffffffffffffffffff021916908373ffffffffffffffffffffffffffffffffffffffff16021790555050565b6108f883838360405180602001604052806000815250610cc5565b505050565b60006064905090565b6000610910610711565b8210610951576040517f08c379a000000000000000000000000000000000000000000000000000000000815260040161094890612e83565b60405180910390fd5b6008828154811061096557610964612ea3565b5b90600052602060002001549050919050565b60008061098383611521565b9050600073ffffffffffffffffffffffffffffffffffffffff168173ffffffffffffffffffffffffffffffffffffffff16036109f4576040517f08c379a00000000000000000000000000000000000000000000000000000000081526004016109eb90612f1e565b60405180910390fd5b80915050919050565b60606040518060400160405280600381526020017f41707000000000000000000000000000000000000000000000000000000000008152509050919050565b60008073ffffffffffffffffffffffffffffffffffffffff168273ffffffffffffffffffffffffffffffffffffffff1603610aac576040517f08c379a0000000000000000000000000000000000000000000000000000000008152600401610aa390612fb0565b60405180910390fd5b600360008373ffffffffffffffffffffffffffffffffffffffff1673ffffffffffffffffffffffffffffffffffffffff168152602001908152602001600020549050919050565b606060018054610b0290612b2c565b80601f0160208091040260200160405190810160405280929190818152602001828054610b2e90612b2c565b8015610b7b5780601f10610b5057610100808354040283529160200191610b7b565b820191906000526020600020905b815481529060010190602001808311610b5e57829003601f168201915b5050505050905090565b610b97610b906110a8565b838361155e565b5050565b6000610ba56114f7565b905090565b6000610bb46114f7565b73ffffffffffffffffffffffffffffffffffffffff163373ffffffffffffffffffffffffffffffffffffffff1614610c21576040517f08c379a0000000000000000000000000000000000000000000000000000000008152600401610c189061301c565b60405180910390fd5b610c296108fd565b610c31610711565b10610c71576040517f08c379a0000000000000000000000000000000000000000000000000000000008152600401610c6890613088565b60405180910390fd5b60008383810190610c829190612545565b9050610c8e85826116ca565b610cba600a60009054906101000a900473ffffffffffffffffffffffffffffffffffffffff16826110b0565b809150509392505050565b610cd6610cd06110a8565b83611169565b610d15576040517f08c379a0000000000000000000000000000000000000000000000000000000008152600401610d0c90612cf3565b60405180910390fd5b610d21848484846118e7565b50505050565b6060610d328261105d565b6000610d3c611943565b90506000815111610d5c5760405180602001604052806000815250610d87565b80610d668461195a565b604051602001610d779291906130e4565b6040516020818303038152906040525b915050919050565b600073ffffffffffffffffffffffffffffffffffffffff16600a60009054906101000a900473ffffffffffffffffffffffffffffffffffffffff1673ffffffffffffffffffffffffffffffffffffffff1614610e20576040517f08c379a0000000000000000000000000000000000000000000000000000000008152600401610e179061317a565b60405180910390fd5b80600a60006101000a81548173ffffffffffffffffffffffffffffffffffffffff021916908373ffffffffffffffffffffffffffffffffffffffff16021790555050565b6000600560008473ffffffffffffffffffffffffffffffffffffffff1673ffffffffffffffffffffffffffffffffffffffff16815260200190815260200160002060008373ffffffffffffffffffffffffffffffffffffffff1673ffffffffffffffffffffffffffffffffffffffff16815260200190815260200160002060009054906101000a900460ff16905092915050565b610f006114f7565b73ffffffffffffffffffffffffffffffffffffffff163373ffffffffffffffffffffffffffffffffffffffff1614610f6d576040517f08c379a0000000000000000000000000000000000000000000000000000000008152600401610f649061301c565b60405180910390fd5b610f7683611a28565b505050565b60007f80ac58cd000000000000000000000000000000000000000000000000000000007bffffffffffffffffffffffffffffffffffffffffffffffffffffffff1916827bffffffffffffffffffffffffffffffffffffffffffffffffffffffff1916148061104657507f5b5e139f000000000000000000000000000000000000000000000000000000007bffffffffffffffffffffffffffffffffffffffffffffffffffffffff1916827bffffffffffffffffffffffffffffffffffffffffffffffffffffffff1916145b80611056575061105582611b76565b5b9050919050565b61106681611be0565b6110a5576040517f08c379a000000000000000000000000000000000000000000000000000000000815260040161109c90612f1e565b60405180910390fd5b50565b600033905090565b816004600083815260200190815260200160002060006101000a81548173ffffffffffffffffffffffffffffffffffffffff021916908373ffffffffffffffffffffffffffffffffffffffff160217905550808273ffffffffffffffffffffffffffffffffffffffff1661112383610977565b73ffffffffffffffffffffffffffffffffffffffff167f8c5be1e5ebec7d5bd14f71427d1e84f3dd0314c0f7b2291e5b200ac8c7c3b92560405160405180910390a45050565b60008061117583610977565b90508073ffffffffffffffffffffffffffffffffffffffff168473ffffffffffffffffffffffffffffffffffffffff1614806111b757506111b68185610e64565b5b806111f557508373ffffffffffffffffffffffffffffffffffffffff166111dd846105b4565b73ffffffffffffffffffffffffffffffffffffffff16145b91505092915050565b8273ffffffffffffffffffffffffffffffffffffffff1661121e82610977565b73ffffffffffffffffffffffffffffffffffffffff1614611274576040517f08c379a000000000000000000000000000000000000000000000000000000000815260040161126b9061320c565b60405180910390fd5b600073ffffffffffffffffffffffffffffffffffffffff168273ffffffffffffffffffffffffffffffffffffffff16036112e3576040517f08c379a00000000000000000000000000000000000000000000000000000000081526004016112da9061329e565b60405180910390fd5b6112f08383836001611c21565b8273ffffffffffffffffffffffffffffffffffffffff1661131082610977565b73ffffffffffffffffffffffffffffffffffffffff1614611366576040517f08c379a000000000000000000000000000000000000000000000000000000000815260040161135d9061320c565b60405180910390fd5b6004600082815260200190815260200160002060006101000a81549073ffffffffffffffffffffffffffffffffffffffff02191690556001600360008573ffffffffffffffffffffffffffffffffffffffff1673ffffffffffffffffffffffffffffffffffffffff168152602001908152602001600020600082825403925050819055506001600360008473ffffffffffffffffffffffffffffffffffffffff1673ffffffffffffffffffffffffffffffffffffffff16815260200190815260200160002060008282540192505081905550816002600083815260200190815260200160002060006101000a81548173ffffffffffffffffffffffffffffffffffffffff021916908373ffffffffffffffffffffffffffffffffffffffff160217905550808273ffffffffffffffffffffffffffffffffffffffff168473ffffffffffffffffffffffffffffffffffffffff167fddf252ad1be2c89b69c2b068fc378daa952ba7f163c4a11628f55a4df523b3ef60405160405180910390a46114f28383836001611d7f565b505050565b6000600b60009054906101000a900473ffffffffffffffffffffffffffffffffffffffff16905090565b60006002600083815260200190815260200160002060009054906101000a900473ffffffffffffffffffffffffffffffffffffffff169050919050565b8173ffffffffffffffffffffffffffffffffffffffff168373ffffffffffffffffffffffffffffffffffffffff16036115cc576040517f08c379a00000000000000000000000000000000000000000000000000000000081526004016115c39061330a565b60405180910390fd5b80600560008573ffffffffffffffffffffffffffffffffffffffff1673ffffffffffffffffffffffffffffffffffffffff16815260200190815260200160002060008473ffffffffffffffffffffffffffffffffffffffff1673ffffffffffffffffffffffffffffffffffffffff16815260200190815260200160002060006101000a81548160ff0219169083151502179055508173ffffffffffffffffffffffffffffffffffffffff168373ffffffffffffffffffffffffffffffffffffffff167f17307eab39ab6107e8899845ad3d59bd9653f200f220920489ca2b5937696c31836040516116bd9190612442565b60405180910390a3505050565b600073ffffffffffffffffffffffffffffffffffffffff168273ffffffffffffffffffffffffffffffffffffffff1603611739576040517f08c379a000000000000000000000000000000000000000000000000000000000815260040161173090613376565b60405180910390fd5b61174281611be0565b15611782576040517f08c379a0000000000000000000000000000000000000000000000000000000008152600401611779906133e2565b60405180910390fd5b611790600083836001611c21565b61179981611be0565b156117d9576040517f08c379a00000000000000000000000000000000000000000000000000000000081526004016117d0906133e2565b60405180910390fd5b6001600360008473ffffffffffffffffffffffffffffffffffffffff1673ffffffffffffffffffffffffffffffffffffffff16815260200190815260200160002060008282540192505081905550816002600083815260200190815260200160002060006101000a81548173ffffffffffffffffffffffffffffffffffffffff021916908373ffffffffffffffffffffffffffffffffffffffff160217905550808273ffffffffffffffffffffffffffffffffffffffff16600073ffffffffffffffffffffffffffffffffffffffff167fddf252ad1be2c89b69c2b068fc378daa952ba7f163c4a11628f55a4df523b3ef60405160405180910390a46118e3600083836001611d7f565b5050565b6118f28484846111fe565b6118fe84848484611d85565b61193d576040517f08c379a000000000000000000000000000000000000000000000000000000000815260040161193490613474565b60405180910390fd5b50505050565b606060405180602001604052806000815250905090565b60606000600161196984611f0c565b01905060008167ffffffffffffffff811115611988576119876128af565b5b6040519080825280601f01601f1916602001820160405280156119ba5781602001600182028036833780820191505090505b509050600082602001820190505b600115611a1d578080600190039150507f3031323334353637383961626364656600000000000000000000000000000000600a86061a8153600a8581611a1157611a10613494565b5b049450600085036119c8575b819350505050919050565b6000611a3382610977565b9050611a43816000846001611c21565b611a4c82610977565b90506004600083815260200190815260200160002060006101000a81549073ffffffffffffffffffffffffffffffffffffffff02191690556001600360008373ffffffffffffffffffffffffffffffffffffffff1673ffffffffffffffffffffffffffffffffffffffff168152602001908152602001600020600082825403925050819055506002600083815260200190815260200160002060006101000a81549073ffffffffffffffffffffffffffffffffffffffff021916905581600073ffffffffffffffffffffffffffffffffffffffff168273ffffffffffffffffffffffffffffffffffffffff167fddf252ad1be2c89b69c2b068fc378daa952ba7f163c4a11628f55a4df523b3ef60405160405180910390a4611b72816000846001611d7f565b5050565b60007f01ffc9a7000000000000000000000000000000000000000000000000000000007bffffffffffffffffffffffffffffffffffffffffffffffffffffffff1916827bffffffffffffffffffffffffffffffffffffffffffffffffffffffff1916149050919050565b60008073ffffffffffffffffffffffffffffffffffffffff16611c0283611521565b73ffffffffffffffffffffffffffffffffffffffff1614159050919050565b611c2d8484848461205f565b6001811115611c71576040517f08c379a0000000000000000000000000000000000000000000000000000000008152600401611c6890613535565b60405180910390fd5b6000829050600073ffffffffffffffffffffffffffffffffffffffff168573ffffffffffffffffffffffffffffffffffffffff1603611cb857611cb381612065565b611cf7565b8373ffffffffffffffffffffffffffffffffffffffff168573ffffffffffffffffffffffffffffffffffffffff1614611cf657611cf585826120ae565b5b5b600073ffffffffffffffffffffffffffffffffffffffff168473ffffffffffffffffffffffffffffffffffffffff1603611d3957611d348161221b565b611d78565b8473ffffffffffffffffffffffffffffffffffffffff168473ffffffffffffffffffffffffffffffffffffffff1614611d7757611d7684826122ec565b5b5b5050505050565b50505050565b6000611da68473ffffffffffffffffffffffffffffffffffffffff1661236b565b15611eff578373ffffffffffffffffffffffffffffffffffffffff1663150b7a02611dcf6110a8565b8786866040518563ffffffff1660e01b8152600401611df194939291906135aa565b6020604051808303816000875af1925050508015611e2d57506040513d601f19601f82011682018060405250810190611e2a919061360b565b60015b611eaf573d8060008114611e5d576040519150601f19603f3d011682016040523d82523d6000602084013e611e62565b606091505b506000815103611ea7576040517f08c379a0000000000000000000000000000000000000000000000000000000008152600401611e9e90613474565b60405180910390fd5b805181602001fd5b63150b7a0260e01b7bffffffffffffffffffffffffffffffffffffffffffffffffffffffff1916817bffffffffffffffffffffffffffffffffffffffffffffffffffffffff191614915050611f04565b600190505b949350505050565b600080600090507a184f03e93ff9f4daa797ed6e38ed64bf6a1f0100000000000000008310611f6a577a184f03e93ff9f4daa797ed6e38ed64bf6a1f0100000000000000008381611f6057611f5f613494565b5b0492506040810190505b6d04ee2d6d415b85acef81000000008310611fa7576d04ee2d6d415b85acef81000000008381611f9d57611f9c613494565b5b0492506020810190505b662386f26fc100008310611fd657662386f26fc100008381611fcc57611fcb613494565b5b0492506010810190505b6305f5e1008310611fff576305f5e1008381611ff557611ff4613494565b5b0492506008810190505b612710831061202457612710838161201a57612019613494565b5b0492506004810190505b60648310612047576064838161203d5761203c613494565b5b0492506002810190505b600a8310612056576001810190505b80915050919050565b50505050565b6008805490506009600083815260200190815260200160002081905550600881908060018154018082558091505060019003906000526020600020016000909190919091505550565b600060016120bb84610a3c565b6120c59190613667565b90506000600760008481526020019081526020016000205490508181146121aa576000600660008673ffffffffffffffffffffffffffffffffffffffff1673ffffffffffffffffffffffffffffffffffffffff168152602001908152602001600020600084815260200190815260200160002054905080600660008773ffffffffffffffffffffffffffffffffffffffff1673ffffffffffffffffffffffffffffffffffffffff168152602001908152602001600020600084815260200190815260200160002081905550816007600083815260200190815260200160002081905550505b6007600084815260200190815260200160002060009055600660008573ffffffffffffffffffffffffffffffffffffffff1673ffffffffffffffffffffffffffffffffffffffff16815260200190815260200160002060008381526020019081526020016000206000905550505050565b6000600160088054905061222f9190613667565b905060006009600084815260200190815260200160002054905060006008838154811061225f5761225e612ea3565b5b90600052602060002001549050806008838154811061228157612280612ea3565b5b9060005260206000200181905550816009600083815260200190815260200160002081905550600960008581526020019081526020016000206000905560088054806122d0576122cf61369b565b5b6001900381819060005260206000200160009055905550505050565b60006122f783610a3c565b905081600660008573ffffffffffffffffffffffffffffffffffffffff1673ffffffffffffffffffffffffffffffffffffffff168152602001908152602001600020600083815260200190815260200160002081905550806007600084815260200190815260200160002081905550505050565b6000808273ffffffffffffffffffffffffffffffffffffffff163b119050919050565b6000604051905090565b600080fd5b600080fd5b60007fffffffff0000000000000000000000000000000000000000000000000000000082169050919050565b6123d7816123a2565b81146123e257600080fd5b50565b6000813590506123f4816123ce565b92915050565b6000602082840312156124105761240f612398565b5b600061241e848285016123e5565b91505092915050565b60008115159050919050565b61243c81612427565b82525050565b60006020820190506124576000830184612433565b92915050565b600081519050919050565b600082825260208201905092915050565b60005b8381101561249757808201518184015260208101905061247c565b60008484015250505050565b6000601f19601f8301169050919050565b60006124bf8261245d565b6124c98185612468565b93506124d9818560208601612479565b6124e2816124a3565b840191505092915050565b6000602082019050818103600083015261250781846124b4565b905092915050565b6000819050919050565b6125228161250f565b811461252d57600080fd5b50565b60008135905061253f81612519565b92915050565b60006020828403121561255b5761255a612398565b5b600061256984828501612530565b91505092915050565b600073ffffffffffffffffffffffffffffffffffffffff82169050919050565b600061259d82612572565b9050919050565b6125ad81612592565b82525050565b60006020820190506125c860008301846125a4565b92915050565b6125d781612592565b81146125e257600080fd5b50565b6000813590506125f4816125ce565b92915050565b6000806040838503121561261157612610612398565b5b600061261f858286016125e5565b925050602061263085828601612530565b9150509250929050565b6126438161250f565b82525050565b600060208201905061265e600083018461263a565b92915050565b60008060006060848603121561267d5761267c612398565b5b600061268b868287016125e5565b935050602061269c868287016125e5565b92505060406126ad86828701612530565b9150509250925092565b60006126c282612572565b9050919050565b6126d2816126b7565b81146126dd57600080fd5b50565b6000813590506126ef816126c9565b92915050565b60006020828403121561270b5761270a612398565b5b6000612719848285016126e0565b91505092915050565b60006020828403121561273857612737612398565b5b6000612746848285016125e5565b91505092915050565b61275881612427565b811461276357600080fd5b50565b6000813590506127758161274f565b92915050565b6000806040838503121561279257612791612398565b5b60006127a0858286016125e5565b92505060206127b185828601612766565b9150509250929050565b6127c4816126b7565b82525050565b60006020820190506127df60008301846127bb565b92915050565b600080fd5b600080fd5b600080fd5b60008083601f84011261280a576128096127e5565b5b8235905067ffffffffffffffff811115612827576128266127ea565b5b602083019150836001820283011115612843576128426127ef565b5b9250929050565b60008060006040848603121561286357612862612398565b5b6000612871868287016125e5565b935050602084013567ffffffffffffffff8111156128925761289161239d565b5b61289e868287016127f4565b92509250509250925092565b600080fd5b7f4e487b7100000000000000000000000000000000000000000000000000000000600052604160045260246000fd5b6128e7826124a3565b810181811067ffffffffffffffff82111715612906576129056128af565b5b80604052505050565b600061291961238e565b905061292582826128de565b919050565b600067ffffffffffffffff821115612945576129446128af565b5b61294e826124a3565b9050602081019050919050565b82818337600083830152505050565b600061297d6129788461292a565b61290f565b905082815260208101848484011115612999576129986128aa565b5b6129a484828561295b565b509392505050565b600082601f8301126129c1576129c06127e5565b5b81356129d184826020860161296a565b91505092915050565b600080600080608085870312156129f4576129f3612398565b5b6000612a02878288016125e5565b9450506020612a13878288016125e5565b9350506040612a2487828801612530565b925050606085013567ffffffffffffffff811115612a4557612a4461239d565b5b612a51878288016129ac565b91505092959194509250565b60008060408385031215612a7457612a73612398565b5b6000612a82858286016125e5565b9250506020612a93858286016125e5565b9150509250929050565b600080600060408486031215612ab657612ab5612398565b5b6000612ac486828701612530565b935050602084013567ffffffffffffffff811115612ae557612ae461239d565b5b612af1868287016127f4565b92509250509250925092565b7f4e487b7100000000000000000000000000000000000000000000000000000000600052602260045260246000fd5b60006002820490506001821680612b4457607f821691505b602082108103612b5757612b56612afd565b5b50919050565b7f4552433732313a20617070726f76616c20746f2063757272656e74206f776e6560008201527f7200000000000000000000000000000000000000000000000000000000000000602082015250565b6000612bb9602183612468565b9150612bc482612b5d565b604082019050919050565b60006020820190508181036000830152612be881612bac565b9050919050565b7f4552433732313a20617070726f76652063616c6c6572206973206e6f7420746f60008201527f6b656e206f776e6572206f7220617070726f76656420666f7220616c6c000000602082015250565b6000612c4b603d83612468565b9150612c5682612bef565b604082019050919050565b60006020820190508181036000830152612c7a81612c3e565b9050919050565b7f4552433732313a2063616c6c6572206973206e6f7420746f6b656e206f776e6560008201527f72206f7220617070726f76656400000000000000000000000000000000000000602082015250565b6000612cdd602d83612468565b9150612ce882612c81565b604082019050919050565b60006020820190508181036000830152612d0c81612cd0565b9050919050565b7f455243373231456e756d657261626c653a206f776e657220696e646578206f7560008201527f74206f6620626f756e6473000000000000000000000000000000000000000000602082015250565b6000612d6f602b83612468565b9150612d7a82612d13565b604082019050919050565b60006020820190508181036000830152612d9e81612d62565b9050919050565b7f616c726561647920736574000000000000000000000000000000000000000000600082015250565b6000612ddb600b83612468565b9150612de682612da5565b602082019050919050565b60006020820190508181036000830152612e0a81612dce565b9050919050565b7f455243373231456e756d657261626c653a20676c6f62616c20696e646578206f60008201527f7574206f6620626f756e64730000000000000000000000000000000000000000602082015250565b6000612e6d602c83612468565b9150612e7882612e11565b604082019050919050565b60006020820190508181036000830152612e9c81612e60565b9050919050565b7f4e487b7100000000000000000000000000000000000000000000000000000000600052603260045260246000fd5b7f4552433732313a20696e76616c696420746f6b656e2049440000000000000000600082015250565b6000612f08601883612468565b9150612f1382612ed2565b602082019050919050565b60006020820190508181036000830152612f3781612efb565b9050919050565b7f4552433732313a2061646472657373207a65726f206973206e6f74206120766160008201527f6c6964206f776e65720000000000000000000000000000000000000000000000602082015250565b6000612f9a602983612468565b9150612fa582612f3e565b604082019050919050565b60006020820190508181036000830152612fc981612f8d565b9050919050565b7f6f6e6c79206167656e6379000000000000000000000000000000000000000000600082015250565b6000613006600b83612468565b915061301182612fd0565b602082019050919050565b6000602082019050818103600083015261303581612ff9565b9050919050565b7f6d617820737570706c7920726561636865640000000000000000000000000000600082015250565b6000613072601283612468565b915061307d8261303c565b602082019050919050565b600060208201905081810360008301526130a181613065565b9050919050565b600081905092915050565b60006130be8261245d565b6130c881856130a8565b93506130d8818560208601612479565b80840191505092915050565b60006130f082856130b3565b91506130fc82846130b3565b91508190509392505050565b7f6c6f746c6f6f74206164647265737320686173206265696e672073657474696e60008201527f6700000000000000000000000000000000000000000000000000000000000000602082015250565b6000613164602183612468565b915061316f82613108565b604082019050919050565b6000602082019050818103600083015261319381613157565b9050919050565b7f4552433732313a207472616e736665722066726f6d20696e636f72726563742060008201527f6f776e6572000000000000000000000000000000000000000000000000000000602082015250565b60006131f6602583612468565b91506132018261319a565b604082019050919050565b60006020820190508181036000830152613225816131e9565b9050919050565b7f4552433732313a207472616e7366657220746f20746865207a65726f2061646460008201527f7265737300000000000000000000000000000000000000000000000000000000602082015250565b6000613288602483612468565b91506132938261322c565b604082019050919050565b600060208201905081810360008301526132b78161327b565b9050919050565b7f4552433732313a20617070726f766520746f2063616c6c657200000000000000600082015250565b60006132f4601983612468565b91506132ff826132be565b602082019050919050565b60006020820190508181036000830152613323816132e7565b9050919050565b7f4552433732313a206d696e7420746f20746865207a65726f2061646472657373600082015250565b6000613360602083612468565b915061336b8261332a565b602082019050919050565b6000602082019050818103600083015261338f81613353565b9050919050565b7f4552433732313a20746f6b656e20616c7265616479206d696e74656400000000600082015250565b60006133cc601c83612468565b91506133d782613396565b602082019050919050565b600060208201905081810360008301526133fb816133bf565b9050919050565b7f4552433732313a207472616e7366657220746f206e6f6e20455243373231526560008201527f63656976657220696d706c656d656e7465720000000000000000000000000000602082015250565b600061345e603283612468565b915061346982613402565b604082019050919050565b6000602082019050818103600083015261348d81613451565b9050919050565b7f4e487b7100000000000000000000000000000000000000000000000000000000600052601260045260246000fd5b7f455243373231456e756d657261626c653a20636f6e736563757469766520747260008201527f616e7366657273206e6f7420737570706f727465640000000000000000000000602082015250565b600061351f603583612468565b915061352a826134c3565b604082019050919050565b6000602082019050818103600083015261354e81613512565b9050919050565b600081519050919050565b600082825260208201905092915050565b600061357c82613555565b6135868185613560565b9350613596818560208601612479565b61359f816124a3565b840191505092915050565b60006080820190506135bf60008301876125a4565b6135cc60208301866125a4565b6135d9604083018561263a565b81810360608301526135eb8184613571565b905095945050505050565b600081519050613605816123ce565b92915050565b60006020828403121561362157613620612398565b5b600061362f848285016135f6565b91505092915050565b7f4e487b7100000000000000000000000000000000000000000000000000000000600052601160045260246000fd5b60006136728261250f565b915061367d8361250f565b925082820390508181111561369557613694613638565b5b92915050565b7f4e487b7100000000000000000000000000000000000000000000000000000000600052603160045260246000fdfea2646970667358221220ff476aad78f0b758aa082406d3f86b1f7dec7b1d56e514500a2509d79643c32a64736f6c63430008140033",
  "linkReferences": {},
  "deployedLinkReferences": {}
}